:020000040000FA
:030000000200E318
:03001300020723BE
:030033000206942E
:03003B0002077247
:03004B000205CAE1
:0300630002059300
:03006B000205CEBD
:03007B0002062753
:100083000206EB00000080FB12013FB900030200EF
:10009300CDE4900101786079038002F0A3D8FCD904
:1000A300FA900360AA82AB839001427815790180AC
:1000B30015E493A3AC82AD838A828B83F0A3AA82D7
:1000C300AB838C828D83D8E9D9E775826D75830CF8
:1000D30074001200F575828675830074001200F5B2
:1000E30075D0007581BF751001751101759F0002F0
:1000F300008BC0F0F5F0E59F5407C0E0E59F54F88E
:1001030045F0D0F0F59FE473859FF053F0F8D0E00D
:1001130045F0F59F22D083D082E59F5407C0E0E4E9
:1001230093C0E0740193C0E07402935407C0F0F5E8
:10013300F0E59F54F845F0D0F0F59F22790122FFB6
:100143000000000000000000000000000000000AA2
:10015300000000120118C40700120118B9080012A8
:1001630001184009001201184B0900120118E00997
:1001730000120118060D00120118150D00120118C6
:10018300350D00120118530D00120118DA0F001279
:100193000118DF10001201181E1100120118C111FD
:1001A30000120118F51100120118FA1100120118BA
:1001B300620D001201188E0D00120118A80D001215
:1001C3000118B00D00120118E80D001201181C0EE1
:1001D30000120118F00900120118FF09001201189A
:1001E3000E0A001201183A0A00120118600A0012DE
:1001F3000118D70A00120118120B00120118540E2D
:1002030000120118B50E001201187C10001201181B
:100213008C1000120118B81000120118200F0012E0
:100223000118540F00120118590F00120118690F19
:1002330000120118730F001201187D0F001201182C
:10024300960F001201189F0F00120118B00F001231
:100253000118C10F00120118811100120118510B6E
:10026300001201183B1100C3E09608A3E09608A30F
:10027300E09608A3E096A2D265D03322E4CFC0E093
:10028300E4CEC0E0E4CDC0E0E4CCC0E075F020C330
:10029300E633F608E633F608E633F608E633F618EF
:1002A3001818EC33FCED33FDEE33FEEF33FFC3ECF4
:1002B3009709ED9709EE9709EF97191919400FFF61
:1002C300EC97FC09ED97FD09EE97FE191906D5F099
:1002D300BEECF709EDF709EEF709EFF7191919D095
:1002E300E0FCD0E0FDD0E0FED0E0FF22120357187F
:1002F300181812027F1203461919192212034619FC
:100303001919080808E618181820E7E012027F12E6
:10031300035718181822090909E719191920E7DCE6
:10032300080808E618181820E70302027F1203578B
:1003330018181812027F12035718181812034619B7
:10034300191922E4C397F709E497F709E497F70922
:10035300E497F722E4C396F608E496F608E496F6E3
:1003630008E496F622E0F608A3E0F608A3E0F60810
:10037300A3E0F622E6F008A3E6F008A3E6F008A35C
:10038300E6F022E0FAA3E0FBA3E0FCA3E0FD22EA0F
:10039300F0A3EBF0A3ECF0A3EDF022CAC0E0E6F08B
:1003A300A308DAFAD0E0FA22700422600D18C6C35B
:1003B30033C608C633C6D5E0F41822251010AF089B
:1003C300F510400215118008F51040021511D2AF47
:1003D30022C0D0251010AF08F51050020511800877
:1003E300F51050020511D2AFD0D0222510F582109E
:1003F300AF08F510400215118008F51040021511E1
:10040300D2AF851183222510F582E43511F58322BD
:10041300E4732510C582C0E0E51134FFC583C0E055
:10042300E510C3958224F810AF08858311858210E7
:100433008008858311858210D2AFCEF0A3E520F02A
:10044300A37808E608F0A3DEFAEFF0A3E58124FA27
:10045300F8E608F0A3E608F0A3E608F0A30808E628
:1004630008F0A3E608F0A315811581D0E0FED0E0E3
:10047300F8158115811581E8C0E0EEC0E0228511F1
:1004830083851082E0A3FEE0A3F5207808E0A3F6BD
:1004930008DFFAE0A3FFE0A3C0E0E0A3C0E0E0A32D
:1004A300C0E0E0A3C0E0E0A3C0E010AF0885821085
:1004B3008583118008858210858311D2AFD083D0C4
:1004C3008202010BC0D02510C582C0E0E51134FFC4
:1004D300C583C0E0E510C3958224F310AF0885837C
:1004E300118582108008858311858210D2AFC8F0F0
:1004F300A3E9F0A3EAF0A3EBF0A37908E709F0A3DB
:10050300D8FAECF0A3EDF0A3EEF0A3EFF0A3D0E064
:10051300F0A3D0E0F0A3D0E0F0A3E520F0A3E5F052
:10052300F0A322851183851082E0C0E0A3E0F9A344
:10053300E0FAA3E0FBA37808E0F608A3DFFAE0FC07
:10054300A3E0FDA3E0FEA3E0FFA3E0C0E0A3E0C0BF
:10055300E0A3E0F5D0A3E0F520A3E0A3F5F010AF0E
:10056300088583118582108008858311858210D2C6
:10057300AFD082D083D0E0F8D0E03274048004742A
:10058300028000C0E0F4041203EED0E012039E22C6
:10059300C0E0C0D0E8C0E0C082C083900101E004A5
:1005A300F0C394644002E4F0900102E0F89001018A
:1005B300E0C3984004D2808002C280D083D082D02E
:1005C300E0F8D0D0D0E03263800232C0E074F112A0
:1005D30004C7C2C5E58960477E0075080175090037
:1005E300EE78081203ABAF08E5895F602BEEC333E7
:1005F300F8E433F9741228F582740212067D60144C
:10060300EEC333F8E433F9741228F5827402120648
:1006130088120413EFF452890EEEC3940840BB7F93
:1006230002020526C0E074F11204C7C2EBE58A603A
:10063300477E00750801750900EE78081203ABAF19
:1006430008E58A5F602BEEC333F8E433F97422289C
:10065300F582740212067D6014EEC333F8E433F9B5
:10066300742228F5827402120688120413EFF452DE
:100673008A0EEEC3940840BB80A539F583E0F8A346
:10068300E0F9E8492239F583E0F8A3E0F5838882AD
:1006930022C0E074F11204C7C2E8E58B60477E0014
:1006A300750801750900EE78081203ABAF08E58BF6
:1006B3005F602BEEC333F8E433F9743228F58274A8
:1006C3000212067D6014EEC333F8E433F974322862
:1006D300F5827402120688120413EFF4528B0EEEA5
:1006E300C3940540BB020622C0E074F21204C7A201
:1006F300AFE433FEC2AFE5E9A2E6501A90024CE044
:10070300F8A3E0F9E8496008E0F58388821204134E
:10071300759B0053E9BFEEA2E092AF7F010205266D
:10072300C0E0C0D0E8C0E0E9C0E0C082C083E5C15A
:10073300C0E09002CFE0F8744E28F58274023400D2
:10074300F583D0E0F09002CEE0F8A3E0687004E512
:1007530095A3F09002CFE004F0C394804002E4F04C
:10076300D083D082D0E0F9D0E0F8D0D0D0E032C04E
:10077300E0C0D0E8C0E0C008C009C082C0839003D5
:1007830051E0F8A3E0687008539AFBA37401802634
:10079300C2E9900351E0F50874012508F074D125EE
:1007A30008F58274023400F583E0F5C1900351E04B
:1007B300C394804002E4F0D083D082D009D0088073
:1007C300A6C082C0831202461201A479017A0C7B6F
:1007D3000112023A90010CE0C2E7F064057034792B
:1007E300051208995004D2F08002C2F0A2F0E4335B
:1007F300900368F0900111E0A2E740030208919092
:10080300010FE0F8900103E0686003020891A3740C
:1008130001807AE024F5900365F090010CE0F91271
:1008230008995004D2F08002C2F0A2F0E43390039E
:1008330068F0900114E0F8A3E0F9900361E8F0A3F5
:10084300E9F09003667416F0A37401F01208A7741C
:100853001628F8740139F988828983E0900369F0D6
:1008630088828983A3E0A2E7501C900360E0F8909C
:10087300010FE068601090010DE054DF64417006E1
:1008830090036A7401F090010FE0900360F012018D
:10089300AA12024C80197A0D7B0112023A90010DC3
:1008A300E0A2E522900365E0F83395E0F922F9D060
:1008B30083D08202010B74F7120415EAFEEBFF12D8
:1008C300021CE9640170047901804E1201AA9001AF
:1008D3000AEEF0A3EFF0900366E4F0A3F0900105B5
:1008E30004F090036C12038690010612039212091E
:1008F30021A3A3E0F9120228120933FAA3E0FB12A1
:10090300022E120921E0FAA3E0FB1202347A567B8D
:10091300011202521201A479007F0102048112091B
:10092300252290010AE0F8A3E0F5838882A3A3229D
:1009330090010AE0F8A3E0F5838882E022C082C038
:100943008390036AE00208B174F21204158A088BDB
:1009530009890AECFEEDFF1201AA1208A7850A0C09
:10096300C3E8950CE99400A2D265D033500AE0F5B0
:100973000C3395E0F50D8003750D00780C1205829C
:10098300900366E0FCA3E0FDAA08AB0912026474BD
:10099300021203D4EE4F601E120222E9F5089003FF
:1009A300691208AAE8C39508F8E99400F98E828FC2
:1009B30083E8F0A3E9F090036AE4F01201A41208BB
:1009C300A7850A08C3E89508E99400A2D265D03345
:1009D3005004E0F98002A90A7F06020481C082C0A4
:1009E300839001057401F01202400208B274F712F9
:1009F3000415E9FE43FD40C286020AB874F71204E7
:100A030015E9FE43FD40D286020AB874F7120415B5
:100A1300EAFEEBFF890880128E828F83E0F91201D0
:100A2300DA8E828F83A3AE82AF83A80874FF28F582
:100A3300080470E4020AD274F71204158908EAFE66
:100A4300EBFF74026508700479C08002798012019B
:100A5300D47910EEFAEFFB1201E0020AD2C082C091
:100A63008343FD40C2A07A1E120AA279301201D438
:100A73007A02120AA2120A9C120A9C79101201D459
:100A830079061201D47901120A9E1201F2790C122D
:100A930001D4D083D08202010B7938120AAD227BB4
:100AA300001202167930120AAD221201D47A027BA7
:100AB30000120216228E90D2A07A027B001202103C
:100AC300C2A07A507B00120210900211E0F5907FD1
:100AD3000102048174F712041579801201D47E1087
:100AE30079201201DA1EEE70F779C01201D47E105C
:100AF30079201201DA1EEE70F780D4AA08AB09AC94
:100B03000AAD0B12025E8A088B09A808A909227490
:100B1300F4120415E9FFEAFE740C120409780812B2
:100B23000368120AFEEE90023CF0A3743AF0888246
:100B33008983E090023EF07420A3780DF0A3D8FCE3
:100B43007A3C7B02EFF91201E67F0402048174F020
:100B530012041574FB1203BE7401120409EAF0A314
:100B6300EBF0A3ECF0A3EDF07A547B0374011204D1
:100B730009C082C08390036C7808120368D083D0C5
:100B830082780812026A851082851183501C7401D1
:100B9300F0120409780812036878081203577401E5
:100BA30012040978081203778002E4F07401120436
:100BB30009780C1203689003707808120368780CA4
:100BC3007908120319E50824308A828B83F0A3AADB
:100BD30082AB837401120409780C120368900370CA
:100BE3007808120368780C79081203197401120447
:100BF30009780C1203777401120409780812036848
:100C0300E5084509450A450B70A2851082851183C5
:100C1300E0A2E0500B8A828B83742DF0A30AAB838E
:100C23008A828B83E4120C6378547903801D8A8251
:100C33008B83E0FC88828983E08A828B83120C6336
:100C4300EC88828983F0A3A882A983C3E89AE99BED
:100C530040DC7A547B0374051203D47F08020481B9
:100C6300F0EA24FF1AEB34FFFB2290020D7411F01B
:100C7300A3F0A304F0A37401F012018C1201EC7928
:100C8300081201FE7A2C7B0112019890020B743337
:100C9300F0A3F07A0B7B0212015C12016E800C79D7
:100CA300071202047A0A7B00120216120162E9603B
:100CB300EE7C007D00797F7A8C7B01120168E9600C
:100CC300EA90018CE064317008A3E0FA7B00120122
:100CD3007490018CE064327008A3E0FA7B00120187
:100CE3007A90018CE064337008A3E0FA7B00120170
:100CF3008090018CE0643470B8A3E0FA7B001201A9
:100D03008680AE74F4120415120D4412057E7A57D0
:100D1300801174F4120415120D4412057E7A4D7974
:100D230002800279011201F874041203D47F0402D1
:100D3300048174F4120415120D4412057E7A47805F
:100D4300E28A08EBF5093395E0F50AF50B780822FA
:100D530074F4120415120D4412057E7A4280C0C049
:100D630082C083D2A4D2A37A027B00120210C2A350
:100D73008002D2A47A027B00120210C2A47A027B00
:100D830000120210D083D08202010BC082C083C242
:100D9300A37A027B00120210D2A47A027B00120211
:100DA30010D2A380D8C082C083C2A380C574F712B7
:100DB3000415E9FF7E08EFA2E75004D2A38002C224
:100DC300A3D2A4C333FF120DD71EEE70E980007FB8
:100DD300010204817A027B00120210C2A47A027B10
:100DE300001202102274F7120415E9FFEAFE120D35
:100DF300FEEEF9120E111201B680D41201B079E0A1
:100E0300120E157900120E15EFF9120E1522120E9D
:100E130015221201C21201BC22C082C0837A6279F8
:100E2300001201C87AF779021201C87A077903120E
:100E330001C87A0079041201C87A0079051201C841
:100E43007A30790E1201C87A6A79001201C8020D4C
:100E530087C082C083E914601714601C14602114D6
:100E6300602614602B14603014603514603A803FA0
:100E7300900211E0D2E08036900211E0D2E1802EA0
:100E8300900211E0D2E28026900211E0D2E3801EAC
:100E9300900211E0D2E48016900211E0D2E5800EB8
:100EA300900211E0D2E68006900211E0D2E7F00250
:100EB3000F13C082C083E914601714601C146021EF
:100EC30014602614602B14603014603514603A806B
:100ED3003F900211E064018036900211E0640280C9
:100EE3002E900211E064048026900211E0640880D1
:100EF3001E900211E064108016900211E0642080BD
:100F03000E900211E064408006900211E06480F0CC
:100F1300900211E0F590D083D08202010BC082C011
:100F230083906189E04460F090619074D5F09061A2
:100F3300FA7409F09061B27415F09061AEE4F012A6
:100F4300024C79008004F0EBA3F0D083D08202013D
:100F53000B794902010BC082C08375F005E9A42413
:100F6300D490618F80E3C082C083EA90617480D69D
:100F7300C082C083EA90617280CCC082C083800D3E
:100F8300E5D98A828B83F0A3AA82AB8319E970F037
:100F9300020F4D75E1EC75E1E302010BC082C083E2
:100FA3009061A3E0C2E6F0539AFE020F4DC082C0E7
:100FB300839061A3E0D2E6F0439A01020F4DC08211
:100FC300C083E5A8F8C2AF90024CEAF0A3EBF0E8C7
:100FD300A2E792AF020F4DC082C08312020A53F4FC
:100FE300FEC29043FE0153F4FDC29143FE0253F44B
:100FF300FBC29243FE0453F4F7C29343FE0853F437
:10100300EFC29443FE1053F4DFC29543FE2053F422
:10101300BFC29643FE4053F47FC29743FE8053F50D
:10102300F753FFF753F7F753F77F53F5EF53FFEFFB
:1010330053F7EF53F77F53F5FEC2A043FF0153F37A
:10104300BFC28643FD4075F4007590FF75FEFF53E4
:10105300F3FDD28143FD027AAA7B0A120192900228
:1010630011E4F07590001201EC1201CE1202581235
:1010730001A4D083D08202010BC082C08379001205
:10108300019ED083D08202010BEBC313FBEA13FA58
:10109300EAF8EBF9E824FFFAE934FFFBE8496012C8
:1010A300000000000000000000000000000000003D
:1010B30080DE02010B74F7120415EAFEEBFFEEF873
:1010C300EFF9E824FFFEE934FFFFE84960097AE815
:1010D3007B0312021080E77F0102048174F0120483
:1010E3001543E40C750C48750DE8750E01750F007A
:1010F3008A088B09E4F50AF50B780C7908120319B1
:10110300850D09E509F5DBE50CF5DA75E54453E4EE
:10111300EF53E4FDC2B97F08020481C082C0837526
:10112300E20043E402D2B912021653E4FDC2B9D27B
:1011330081D083D08202010B74F6120415740A1253
:101143000409E0FEA3E0FFEAF8EBF980188C828D36
:1011530083E088828983F0A3A882A9838C828D830C
:10116300A3AC82AD838E088F09E50824FF1EE50931
:1011730034FFFFE508450970D47F02020481C08271
:10118300C08353F1FE43F30C53F2F375868075C4A9
:101193008075C2D875C50B75C402438640D2AA7543
:1011A300C1009002CEE4F0A3F0900351F0A3F090BD
:1011B30002D0F0900353F0D083D08202010BE5C636
:1011C3005480F853BEFBE59DA2E550FAE59DA2E2EB
:1011D30040F4007401697007744948F5C68005E955
:1011E300700288C6E5C6F8E59E6870FB43BE04023C
:0C11F300010BD2AF02010BC2AF02010BD6
:04000005000000E314
:00000001FF
