:020000040000FA
:030000000200E318
:030013000208D808
:030033000208437D
:03003B0002092E89
:03004B0002077D2C
:030063000207454C
:03006B0002078702
:03007B000207E198
:1000830002089B00000080FB120137B90003020045
:10009300CDE4900101785379028002F0A3D8FCD912
:1000A300FA900253AA82AB8390013A788679018051
:1000B30015E493A3AC82AD838A828B83F0A3AA82D7
:1000C300AB838C828D83D8E9D9E77582BF758311A1
:1000D30074001200F575828675830074001200F5B2
:1000E30075D0007581BF751001751101759F0002F0
:1000F300008BF5F0E59F5407C0E0E59F54F845F009
:10010300F59FE473859FF053F0F8D0E045F0F59F39
:1001130022D083D082E59F5407C0E0E493C0E0740B
:100123000193C0E07402935407F5F0E59F54F8453A
:10013300F0F59F22790122000000002A2A204D3188
:100143003630205465737420202A2A00202020444E
:10015300757479203D203530202025200030313240
:1001630033343536373839414243444546323432E5
:1001730030003234333000323433310032353230F0
:10018300003235333000323533310032353130000F
:100193003235313100313131300031313131002DDF
:1001A3002D2D2D000A0000002A2A20434378787859
:1001B3007820282029202A2A000000001201143662
:1001C30014001201144914001201146314001201E3
:1001D300148B13001201141F11001201146111007A
:1001E300120114981100120114A211001201146DCE
:1001F3001400120114E01400120114860900120104
:1002030014A60900120114C70900120114E609001B
:10021300120114EE0900120114140A0012011455FC
:100223000A001201147E0A00120114CB0A00120103
:1002330014030B00120114EA0B00120114FD0B004E
:10024300120114230C001201144F0C001201146A42
:100253000C00120114BE0C00120114EA0C0012016E
:1002630014110D00120114160D00120114370D00A4
:100273001201145F0D00120114C10D00120114BC10
:1002830012001201144D12001201145D120012012A
:10029300148F1200120114A31400120114AD1400E0
:1002A300120114EE1300120114460E00120114B7CA
:1002B3000E00120114E50F00120114A51000120123
:1002C30014C21400120114241300E066701008A372
:1002D300E066700A08A3E066700408A3E06622C320
:1002E300E09608A3E09608A3E09608A3E096A2D2BE
:1002F30065D03322E4CFC0E0E4CEC0E0E4CDC0E07B
:10030300E4CCC0E075F020C3E633F608E633F60824
:10031300E633F608E633F6181818EC33FCED33FD34
:10032300EE33FEEF33FFC3EC9709ED9709EE970920
:10033300EF97191919400FFFEC97FC09ED97FD0989
:10034300EE97FE191906D5F0BEECF709EDF709EEA5
:10035300F709EFF7191919D0E0FCD0E0FDD0E0FE62
:10036300D0E0FF221203CF1818181202F71203BEAF
:10037300191919221203BE191919080808E61818C1
:100383001820E7E01202F71203CF18181822090900
:1003930009E719191920E7DC080808E618181820D6
:1003A300E7030202F71203CF1818181202F7120319
:1003B300CF1818181203BE19191922E4C397F709A5
:1003C300E497F709E497F709E497F722E4C396F66D
:1003D30008E496F608E496F608E496F622E0F608B2
:1003E300A3E0F608A3E0F608A3E0F622E6F008A3EC
:1003F300E6F008A3E6F008A3E6F022CAC0E0E6F0C0
:10040300A308DAFAD0E0FA22CAC0E0E0A3C582CC9E
:10041300C582C583CDC583F0A3C582CCC582C58300
:10042300CDC583DAE6D0E0CA22700422600D18C677
:10043300C333C608C633C6D5E0F41822251010AF5F
:1004430008F510400215118008F51040021511D26D
:10045300AF22C0D0251010AF08F51050020511804F
:1004630008F51050020511D2AFD0D0222510F58225
:1004730010AF08F510400215118008F51040021561
:1004830011D2AF851183222510F582E43511F5834E
:1004930022E4732510C582C0E0E51134FFC583C093
:1004A300E0E510C3958224F8F8E4C5A88583118597
:1004B3008210C5A8E8CEF0A3E520F0A37808E608EB
:1004C300F0A3DEFAEFF0A3E58124FAF8E608F0A33F
:1004D300E608F0A3E608F0A30808E608F0A3E60898
:1004E300F0A315811581D0E0FED0E0F815811581C8
:1004F3001581E8C0E0EEC0E022851183851082E01B
:10050300A3FEE0A3F5207808E0A3F608DFFAE0A352
:10051300FFE0A3C0E0E0A3C0E0E0A3C0E0E0A3C02D
:10052300E0E0A3C0E0E4C5A8858210858311C5A8D7
:10053300D083D082020107C0D02510C582C0E0E578
:100543001134FFC583C0E0E510C3958224F310AFD7
:10055300088583118582108008858311858210D2D6
:10056300AFC8F0A3E9F0A3EAF0A3EBF0A37908E79F
:1005730009F0A3D8FAECF0A3EDF0A3EEF0A3EFF0AB
:10058300A3D0E0F0A3D0E0F0A3D0E0F0A3E520F007
:10059300A3E5F0F0A322851183851082E0C0E0A3D8
:1005A300E0F9A3E0FAA3E0FBA37808E0F608A3DFF1
:1005B300FAE0FCA3E0FDA3E0FEA3E0FFA3E0C0E0BC
:1005C300A3E0C0E0A3E0F5D0A3E0F520A3E0A3F50A
:1005D300F0E4C5A8858311858210C5A8D082D08395
:1005E300D0E0F8D0E03274028000C0E0F4041204DA
:1005F3006FD0E01203FE22D083D082C5F0E493A330
:10060300C5F0C395F0F5F0E493A3C395F04005E579
:10061300F0048001E475F002A42582F582E5F0354B
:1006230083F583E493A3C0E0E493C0E022D083D0B6
:1006330082CCC0E0E493A3600612065A1470FAE475
:1006430093A360061206791470FAD0E0FCE493A336
:10065300C0E0E493C0E022C0E0E493A3D39C501035
:10066300E493A3C39C400AD0E0D0E0D0E002064D5F
:10067300A3A3A3D0E022C0E0E493A36C7009D0E06D
:10068300D0E0D0E002064DA3A3D0E022D083D082F5
:10069300ECC0E0EDC0E0E493A3FCE493A3FDED4CD8
:1006A300600D1206DBEC24FFFCED34FFFD80EFE46C
:1006B30093A3FCE493A3FDED4C600D12071AEC2405
:1006C300FFFCED34FFFD80EFD0E0FDD0E0FCE493D0
:1006D300A3C0E0E493C0E022C0E0C3E493960874AF
:1006E30001939618400FE4936670080874019366AB
:1006F3001870007019A3A3C3E4939608740193962A
:1007030018A3A3400DD0E0D0E0D0E00206CBA3A312
:10071300A3A3A3A3D0E022C0E0C0F088F0E49366D3
:1007230070080874019366187000A8F0A3A3700BF7
:10073300D0F0D0E0D0E0D0E00206CBA3A3D0F0D03D
:10074300E022C0E0C0D0EAC0E0C082C083900101D3
:10075300E004F0C394644002E4F0E0C0E0900102DE
:10076300E0FAD0E0C39A4004D2808002C280D083F2
:10077300D082D0E0FAD0D0D0E032C0E0638002E58E
:1007830080D0E032C0E074F112053AC2C5E5896059
:10079300487E00750801750900EE780812042CAF35
:1007A30008E5895F602CEEC333F8E433F9E82404E9
:1007B300F582E93401F583E07002A3E0600EE824DA
:1007C30004F582E93401120838120494EFF45589D0
:1007D300F5890EEEC3940840BA7F02020599C0E082
:1007E30074F112053AC2EBE58A60487E0075080190
:1007F300750900EE780812042CAF08E58A5F602CB7
:10080300EEC333F8E433F9E82414F582E93401F54F
:1008130083E07002A3E0600EE82414F582E934015A
:10082300120838120494EFF4558AF58A0EEEC39435
:100833000840BA80A4F583E0F8A3E0F58388822218
:10084300C0E074F112053AC2E8E58B60487E00759A
:100853000801750900EE780812042CAF08E58B5FD8
:10086300602CEEC333F8E433F9E82424F582E93449
:1008730001F583E07002A3E0600EE82424F582E929
:100883003401120838120494EFF4558BF58B0EEEF5
:10089300C3940540BA0207DCC0E074F212053AA221
:1008A300AFE492E0FEC2AFE5E9A2E6501E90013F3D
:1008B300E07002A3E0600E90013FE0F8A3E0F5834F
:1008C3008882120494759B0053E9BFEEA2E092AFB5
:1008D3007F01020599C0E0C0D0E8C0E0E9C0E0EACA
:1008E300C0E0C082C083E5C1C0E09001C2E0244102
:1008F300F582E43401F583D0E0F09001C1E0FA9091
:1009030001C2E06A7006E5959001C3F09001C2E070
:1009130004F0C394804002E4F0D083D082D0E0FAA4
:10092300D0E0F9D0E0F8D0D0D0E032C0E0C0D0EAD7
:10093300C0E0C008C009C082C083900244E0FA90BE
:100943000245E06A700A539AFB74019002468025BF
:10095300C2E9900244E0F50874012508F0E5082493
:10096300C4F582E43401F583E0F5C1900244E0C3A9
:1009730094804002E4F0D083D082D009D008D0E044
:10098300FA80A3C082C083D2A4D2A37A027B0012CE
:10099300028BC2A31209D180031209CFD083D08264
:1009A300020107C082C083C2A37A027B0012028BBA
:1009B300D2A47A027B0012028BD2A37A027B0012AA
:1009C300028B80D8C082C083C2A380CDD2A4120977
:1009D300D5227A027B0012028BC2A47A027B001218
:1009E300028B22C082C083D2A380AE74F712049616
:1009F300E9FF7E08EFA2E75004D2A38002C2A3D28C
:100A0300A4C333FF120A4F70EB8001F97F01020484
:100A1300FC74F71204967F00D2A353F5F753FFF744
:100A230053F7F753F77F7A027B0012028B7E08D2CB
:100A3300A4EFC333FFA2A35003D2E0FF120A4F7007
:100A4300EE53F5F7D2A343FF08EF80BF1209D51E7B
:100A5300EE2274F7120496E9FEEAFF120A6BEFF92D
:100A6300120AAF12020180A41201FB79E0120AB349
:100A73007900120AB3EEF9120AB32274F71204963C
:100A83001201FB79E0120AAF7900120AAF7908125A
:100A93000AAF120ABA120207EEFF120219E9FE1296
:100AA300020D120201EEFAEFFB020A0F120AB32241
:100AB300120213120207221202011201FB79E11240
:100AC3000AB3120219E9FE22C082C0837A62790056
:100AD30012021F7AF7790212021F7A0779031202B0
:100AE3001F7A00790412021F7A00790512021F7A15
:100AF30030790E12021F7A6A790012021F02099FCF
:100B030074F61204961202258A088B0978081206D5
:100B13008F0000140082006E0B8400720B88007635
:100B23000B90009A0BA000A60B02017A0B04017E26
:100B33000B0801820B10019E0B2001AA0B020286F7
:100B43000B04028A0B08028E0B1002A20B2002AECA
:100B53000B0204920B04046A0B0804960B1004B2F4
:100B63000B2004B60BBA0B7E30804E7E31804A7E5A
:100B73003280467E3380427E34803E7E35803A7EAC
:100B83003680367E3780327E38802E7E39802A7ECC
:100B93002A80267E2380227E41801E7E42801A7E0A
:100BA3004380167E4480127E45800E7E46800A7EF8
:100BB3005580067E4E80027E0090012EE004F0C335
:100BC30094C94008E4F07A6AF912021FEE60117AC0
:100BD300AA7B0A1201DD7A147B001202911201E34F
:100BE300EEF97F020204FCC082C08343FD40C2864B
:100BF300120C08D083D082020107C082C08343FD58
:100C030040D28680EB8990D2A07A027B0012028BBD
:100C1300C2A07A507B0012028B900103E0F5902270
:100C230074F7120496EAFEEBFF890880128E828F16
:100C330083E0F912023D8E828F83A3AE82AF83AA33
:100C43000874FF2AF508EA70E4020CE574F712044D
:100C530096EAFEEBFF740269700479C08002798022
:100C630012023779108074C082C08343FD40C2A052
:100C73007A1E120CA879301202377A02120CA812CB
:100C83000CA2120CA27910120237790612023779DC
:100C930001120CA412025B790C120237020BF679D3
:100CA30038120CB3227B001202917930120CB3225A
:100CB3001202377A027B001202912274F712049611
:100CC300740269700479C0800279801202377E1041
:100CD300792012023D1EEE70F78007EEFAEFFB1249
:100CE30002437F010204FC74F71204967980120216
:100CF300377E10792012023D1EEE70F779C0120282
:100D0300377E10792012023D1EEE70F780D47910E1
:100D130002010774F7120496EBFE740269700774FC
:100D2300402A4480800374804AF9120237EEF91294
:100D3300023D80AE74F7120496ECFEEDFF74026977
:100D4300700774402A4480800374804AF912023782
:100D5300EEFAEFFB1202C1EAF9020CDE74F612049A
:100D630096EA7001EB60317C008A828B83E0601528
:100D7300C0E08C08120DA0D0E0F08A828B83A3AA76
:100D830082AB8380058C08120DB00CECC394104029
:100D9300D87A2F7B011202497F020204FC120DA4B0
:100DA30022E508242FF582E43401F58322120DA4F1
:100DB3007420F0227F060204FCF91202672274F207
:100DC300120496E9FF8A088C0AEB703A7E00ECFA6B
:100DD3007B007C007D001202AF8A0C8B0D8011FB1F
:100DE300120E1C850C82850D83A385820C85830DD1
:100DF300850C82850D83E070E6EEC3940350187B67
:100E030020120E1C80F374016B700CEC120E28126E
:100E13000E2F7401120E22809BEE120E220E22253B
:100E230008FAEF8094C4540F120E3A221202677428
:100E33000F550A120E3A222479F582E43402F5831F
:100E4300E0FB22C082C083E9120630000A01A00E33
:100E530002700E11A60E81940E84820E85760E8981
:100E63007C0E919A0EA5880EB58E0EAC0E7A897BF8
:100E730002803A7A8E7B0280347A937B02802E7AC8
:100E8300987B0280287A9D7B0280227AA27B028053
:100E93001C7AA77B0280167AAC7B0280107AB17B26
:100EA30002800A7AB67B0280047ABB7B02D083D0AD
:100EB3008202010774F012049674FB12043F74015A
:100EC30012048AEAF0A3EBF0A3ECF0A3EDF07A4767
:100ED3007B02740112048AC082C083900253780893
:100EE3001203E0D083D08278081202E25022740108
:100EF300851082851183F012048A78081203E07842
:100F0300081203CF740112048A78081203EF8008D1
:100F1300E4851082851183F0740112048A780C121F
:100F230003E09002C078081203E0780C79081203FA
:100F330091E50824308A828B83F0A3AA82AB837461
:100F43000112048A780C1203E09002C0780812039D
:100F5300E0780C7908120391740112048A780C1258
:100F630003EF740112048AC082C08390025378088D
:100F73001203E0D083D08278081202CD709A8510D4
:100F830082851183E0600B742D8A828B83F0A30A20
:100F9300AB83E48A828B83F0EA24FF1AEB34FFFBF2
:100FA300784779028016120FD4EA24FF1AEB34FF34
:100FB300FBEC88828983F0A3A882A983C3E89AE91A
:100FC3009B40E37A477B0274051204557F080204B1
:100FD300FC8A828B83E0FC88828983E08A828B830C
:100FE300F02274F61204968A088B09EA7001EB70FA
:100FF30005790002111A7F007E018036EE60337995
:101003000212025512108CE0FCA3E0FD7A03790270
:1010130012026D7B3C7A007902120267120261E9C7
:1010230014FA7B3E79021202677E007A647B001217
:1010330002917A647B00120291120231E9FA74235D
:101043006A70107AC87B0012029112108CA3A3E07D
:10105300F980A0744E6A701774012FC0E08508826E
:10106300850983A3A3E0F5F0D0E084AFF08090740A
:10107300556A7088EF700E850882850983A3A3E003
:1010830014FF0210021F021002EF75F003A4F8A967
:10109300F0850882850983E028FAA3E0398A82F57E
:1010A300832274F612049674EC12043FEAFEEBFFFB
:1010B300851082851183AC82AD837583027582C4EA
:1010C300741412040B750804F50978081205E91263
:1010D30002971202A9EAFCEBFD740712048AAA82A2
:1010E300AB831202C7740212045512029DE9243025
:1010F300C0E0740B12048AD0E0F08510828511835E
:10110300AA82AB837901120273EEFAEFFB79021222
:10111300027374141204557F020204FC74F0120467
:101123009643E40CE5E4750C48750DE8750E0175FE
:101133000F008A088B09750A00750B00780C790873
:10114300120391850D09E509F5DBE50CF5DA75E583
:101153004453E4EF53E4FDC2B97F080204FC74F086
:1011630012049675E200750C48750DE8750E01754D
:101173000F008A088B09750A00750B00780C790833
:10118300120391850D09E509F5DBE50CF5DA43E476
:1011930002D2B980C453E4FDC2B9D281020107C0AF
:1011A30082C08375E20043E402D2B912029153E490
:1011B300FDC2B9D281D083D0820201071201D17955
:1011C3000812027F7A577B021202BB7A2C7B011230
:1011D30002917A2C7B011201E9120231E960FA7A59
:1011E300007B001202B580031201CB12025B1201D5
:1011F300BF7A577B0279011202737A687B02790204
:101203001202737E3279321201C5801C744E6A70E9
:1012130007EE600474FB2EFEEEF91201C5EEFC7BB3
:10122300007A0A79021202797A147B00120291126F
:101233000231E9FA60F2742A6A60AD74556A70CCBF
:10124300EEC3946450D2740580CCC082C08379000D
:101253001201EFD083D082020107EBC313FBEA1321
:10126300FAEAF8EBF974FF28FA74FF39FB740068A3
:1012730070037400696012000000000000000000A9
:101283000000000000000080D802010774F7120478
:1012930096EAFEEBFFEEF8EFF974FF28FE74FF39D0
:1012A300FF740068700374006960097AE87B0312B5
:1012B300028B80E17F010204FCC082C083E9120536
:1012C300FA01071713D812E012E812F012F812000D
:1012D3001308131013900103E0D2E080369001034A
:1012E300E0D2E1802E900103E0D2E2802690010358
:1012F300E0D2E3801E900103E0D2E4801690010364
:10130300E0D2E5800E900103E0D2E680069001036F
:10131300E0D2E7F0900103E0F590D083D0820201A0
:101323000774F6120496740A12048AE0FEA3E0FF1F
:10133300EAF8EBF98E088F0974FF25081E74FF3550
:1013430009FFE5087002E50960358C828D83E0A30F
:10135300AC82AD838A828B83F0A3AA82AB8370D4E1
:10136300EEFCEFFD74FF2C1E74FF3DFFEC7001EDEE
:10137300600DE48A828B83F0A3AA82AB8380E1E8C9
:10138300FAE9FB7F020204FCC082C0831202855388
:10139300F5EFD2A443FF1053F5F7D2A343FF08534D
:1013A300F5F753FFF743F70853F5FEC2A043FF01D8
:1013B30053F3BFC28643FD4075F4007590FF75FE7D
:1013C300FF53F3FDD28143FD027AAA7B0A1201D7B0
:1013D300E4900103F075900012024F12022B1202E7
:1013E300A31201F5D083D082020107C082C08353C8
:1013F300F1FE43F30CE5F353F2F3E5F275868075E2
:10140300C48075C2D875C50B75C402438640D2AA81
:1014130075C100E49001C1F09001C2F0900244F064
:10142300900245F09001C3F0900246F0D083D08241
:1014330002010753F3FED28043FD0143EB8053EBDC
:10144300EFC2BC020107C082C083E4900101F0E94E
:10145300900102F043EB10D2BCD083D0820201078B
:1014630053EBEFC2BCD280020107748055C6FA5316
:10147300BEFBE59DA2E550FAE59DA2E240F40074AF
:101483000169700774494AF5C68005E970028AC686
:10149300E5C6FAE59EFBEA6B70F943BE0402010759
:1014A300C082C08390624AE0800DC082C083906294
:1014B30049E0C4540F8000F9D083D082020107C0F1
:1014C30082C0838A828B838001A3E070FCE582C3A0
:1014D3009AFAE5839BFBD083D082020107D2AF0245
:0214E3000107FF
:04000005000000E314
:00000001FF
