:020000040000FA
:030000000200E318
:03001300020DB328
:03003300020D1E9D
:03003B00020E09A9
:03006B00020C6222
:03007B00020CBCB8
:10008300020D7600000080FB120137B90003020065
:10009300CDE4900101784779028002F0A3D8FCD91E
:1000A300FA900247AA82AB8390013A786E79018075
:1000B30015E493A3AC82AD838A828B83F0A3AA82D7
:1000C300AB838C828D83D8E9D9E7758285758314D8
:1000D30074001200F575828675830074001200F5B2
:1000E30075D0007581BF751001751101759F0002F0
:1000F300008BF5F0E59F5407C0E0E59F54F845F009
:10010300F59FE473859FF053F0F8D0E045F0F59F39
:1001130022D083D082E59F5407C0E0E493C0E0740B
:100123000193C0E07402935407F5F0E59F54F8453A
:10013300F0F59F227901222A2A204D3134302054B0
:1001430065737420202A2A002054656D702E203D8B
:10015300202020202020204300323432300032344B
:1001630033300032343331003235323000323533FC
:1001730030003235333100323531300032353131F0
:1001830000313131300031313131002D2D2D2D0031
:100193002A2A2043437878787820282029202A2A7D
:1001A300000000001201148B1500120114B5150094
:1001B300120114CE15001201140216001201142F9D
:1001C3001600120114FD17001201140C190012017C
:1001D300140F1900120114121900120114991800B6
:1001E300120114151900120114E71000120114076B
:1001F30011001201142811001201144711001201F9
:10020300144F1100120114751100120114B61100DC
:10021300120114DF11001201142C120012011464D4
:100223001200120114610E00120114910E0012014A
:1002330014C10E00120114380F00120114640F00D0
:10024300120114830F00120114AA0F0012011445A6
:1002530010001201148410001201142E1700120151
:1002630014BF1600120114CF160012011401170057
:10027300120114CF1800120114D9180012011451DD
:1002830018001201144E16001201144B1300120130
:10029300140B1400120114EE180012011496170027
:1002A300CAC0E0E6F0A308DAFAD0E0FA22CAC0E056
:1002B300E0A3C582CCC582C583CDC583F0A3C58227
:1002C300CCC582C583CDC583DAE6D0E0CA22B900A6
:1002D30010BB0008E88AF084F8AAF022E4FBC8FA0D
:1002E30022EB70227B10C833C8C933C9335007C30C
:1002F3009AC3DBF280069A50012ADBEAC833F4C8BA
:10030300C933F4C9FA2275F008E4C833C8C933C93C
:1003130033C99AC99B5004C92AC93BD5F0ECFBC821
:1003230033F4C8E4C9FA22600D08C6A2E713C6185D
:10033300C613C6D5E0F322600C08C6C313C618C69D
:1003430013C6D5E0F422700422600D18C6C333C669
:1003530008C633C6D5E0F41822251010AF08F510EF
:10036300400215118008F51040021511D2AF22C0CA
:10037300D0251010AF08F510500205118008F510B4
:1003830050020511D2AFD0D0222510F58210AF084C
:10039300F510400215118008F51040021511D2AF77
:1003A300851183222510F582E43511F58322E47348
:1003B3002510C582C0E0E51134FFC583C0E0E51018
:1003C300C3958224F8F8E4C5A8858311858210C5F6
:1003D300A8E8CEF0A3E520F0A37808E608F0A3DEB2
:1003E300FAEFF0A3E58124FAF8E608F0A3E608F0B3
:1003F300A3E608F0A30808E608F0A3E608F0A315AF
:10040300811581D0E0FED0E0F8158115811581E8D2
:10041300C0E0EEC0E022851183851082E0A3FEE0F8
:10042300A3F5207808E0A3F608DFFAE0A3FFE0A332
:10043300C0E0E0A3C0E0E0A3C0E0E0A3C0E0E0A32D
:10044300C0E0E4C5A8858210858311C5A8D083D0F8
:1004530082020107C0D02510C582C0E0E51134FF38
:10046300C583C0E0E510C3958224F310AF088583EC
:10047300118582108008858311858210D2AFC8F060
:10048300A3E9F0A3EAF0A3EBF0A37908E709F0A34B
:10049300D8FAECF0A3EDF0A3EEF0A3EFF0A3D0E0D5
:1004A300F0A3D0E0F0A3D0E0F0A3E520F0A3E5F0C3
:1004B300F0A322851183851082E0C0E0A3E0F9A3B5
:1004C300E0FAA3E0FBA37808E0F608A3DFFAE0FC78
:1004D300A3E0FDA3E0FEA3E0FFA3E0C0E0A3E0C030
:1004E300E0A3E0F5D0A3E0F520A3E0A3F5F0E4C595
:1004F300A8858311858210C5A8D082D083D0E0F867
:10050300D0E03274028000C0E0F40412038CD0E027
:100513001202A322D083D082C5F0E493A3C5F0C313
:1005230095F0F5F0E493A3C395F04005E5F004805E
:1005330001E475F002A42582F582E5F03583F583A5
:10054300E493A3C0E0E493C0E022D083D082CCC084
:10055300E0E493A360061205771470FAE493A360B2
:10056300061205961470FAD0E0FCE493A3C0E0E40D
:1005730093C0E022C0E0E493A3D39C5010E493A380
:10058300C39C400AD0E0D0E0D0E002056AA3A3A355
:10059300D0E022C0E0E493A36C7009D0E0D0E0D0B7
:1005A300E002056AA3A3D0E022D083D082ECC0E0AE
:1005B300EDC0E0E493A3FCE493A3FDED4C600D12C6
:1005C30005F8EC24FFFCED34FFFD80EFE493A3FC7E
:1005D300E493A3FDED4C600D120637EC24FFFCED14
:1005E30034FFFD80EFD0E0FDD0E0FCE493A3C0E056
:1005F300E493C0E022C0E0C3E493960874019396A9
:1006030018400FE49366700808740193661870002D
:100613007019A3A3C3E49396087401939618A3A334
:10062300400DD0E0D0E0D0E00205E8A3A3A3A3A34C
:10063300A3D0E022C0E0C0F088F0E493667008081D
:1006430074019366187000A8F0A3A3700BD0F0D0C8
:10065300E0D0E0D0E00205E8A3A3D0F0D0E0220090
:100663000000000000000000000000000000000087
:100673000070F8F87000000000000D0D000000008D
:100683001C3C0000003C1C000000000000000000B7
:1006930020F8F820F8F82000020F0F020F0F0200D5
:1006A30070F8888E8E983000060C0838380F0700D3
:1006B3006060000080C06000080C0603010C0C00A1
:1006C30000B0F8C878B08000070F0809070F0800CA
:1006D300203C1C000000000000000000000000009F
:1006E30000E0F018080000000003070C08000000F9
:1006F30000000818F0E000000000080C0703008069
:10070300A0E0C0C0E0A0800002030101030200805A
:100713008080F0F080808000000007070000000068
:10072300000000000000000000101E0E000000800A
:1007330080808080808000000000000000000000B6
:10074300000000000000000000000C0C000000008E
:10075300000080C0603018000603010000000000A4
:10076300F0F888C868F8F000070F0908080F0700B9
:10077300002030F8F80000000008080F0F080800F8
:1007830010180888C87830000C0E0B09080C0C00F0
:100793001018888888F87000040C0808080F0700F0
:1007A30080C06030F8F80000010101090F0F090053
:1007B300F8F8888888880800040C0808080F0700E0
:1007C300E0F0988888800000070F0808080F0700EA
:1007D30018180888C878380000000F0F00000000C0
:1007E30070F8888888F87000070F0808080F07005A
:1007F30070F8888888F8F000000808080C070300E0
:100803000000303000000000000006060000000079
:10081300000030300000000000080E060000000059
:1008230080C0603018080000000103060C080000B7
:100833004040404040400000020202020202000029
:1008430008183060C0800000080C06030100000097
:1008530030380888C87830000000000D0D00000013
:10086300F0F808C8C8F8F000070F080B0B0B0100DD
:10087300C0E0301830E0C0000F0F0101010F0F007E
:1008830008F8F88888F87000080F0F08080F0700A9
:10089300E0F018080818300003070C08080C0600DD
:1008A30008F8F80818F0E000080F0F080C07030019
:1008B30008F8F888C8183800080F0F08090C0E004C
:1008C30008F8F888C8183800080F0F08010000005E
:1008D300E0F018080818300003070C0909070F0097
:1008E300F8F8808080F8F8000F0F0000000F0F0069
:1008F3000008F8F80800000000080F0F08000000C7
:1009030000000008F8F80800060E08080F070000AA
:1009130008F8F880E0781800080F0F00030F0C00A8
:1009230008F8F80800000000080F0F08080C0E0074
:10093300F8F8306030F8F8000F0F0000000F0F00D8
:10094300F8F870E0C0F8F8000F0F0000010F0F0077
:10095300E0F0180818F0E00003070C080C07030088
:1009630008F8F88888F87000080F0F0800000000E6
:10097300F0F8080808F8F000030704071E1F130027
:1009830008F8F88888F87000080F0F00010F0E00B0
:100993003078C88888383000060E0808090F061812
:1009A3000808F8F80808180000080F0F08000000EE
:1009B300F8F8000000F8F800070F0808080F070010
:1009C300F8F8000000F8F8000103060C0603010024
:1009D300F8F8000000F8F8000F0F0603060F0F00E9
:1009E3003878C080C07838000E0F0100010F0E0068
:1009F3003878C080C078380000080F0F0F08000057
:100A0300381888C8683818000E0F0908080C0E003B
:100A130000F8F80808000000000F0F0808000000A5
:100A23003870E0C0800000000000000103070E00E2
:100A3300000808F8F80000000008080F0F00000085
:100A430010180C060C181000000000000000000035
:100A530000000000000000002020202020200000D3
:100A63000000060E08000000000000000000000067
:100A730000404040C0800000060F0909070F08002E
:100A830008F8F840C0800000080F0708080F0700A7
:100A930080C0404040C08000070F0808080C0400D5
:100AA3000080C048F8F80000070F0808070F080087
:100AB30080C0404040C08000070F0909090D0500B0
:100AC30080F0F88898300000080F0F08000000003D
:100AD30080C0404080C04000133724243F1F0000E3
:100AE30008F8F88040C08000080F0F00000F0F00C7
:100AF300000040D8D80000000000080F0F080000D5
:100B030000000040D8D80000183820203F1F000004
:100B130008F8F80080C04000080F0F01030E0C0016
:100B2300000008F8F80000000000080F0F0800009C
:100B330080C0808080C080000F0F000F000F0F0067
:100B430040C0804040C08000000F0F00000F0F0026
:100B530080C0404040C08000070F0808080F07000E
:100B630040C0804040C08000203F3F240407030072
:100B730080C0404080C04000030704243F3F200062
:100B830040C080C040C08000080F0F080001010072
:100B930080C0404040C08000040D090B0A0E0400D1
:100BA3004040F0F8404000000000070F080C04002C
:100BB300C0C00000C0C00000070F0808070F0800EE
:100BC300C0C0000000C0C0000103060C0603010002
:100BD300C0C0000000C0C000070F0C060C0F0700C8
:100BE30040C0800080C04000080C0703070C0800C9
:100BF300C0C0000000C0C00003272424341F0F001E
:100C0300C0C04040C0C04000080C0E0B090C0C00D3
:100C13008080F078080800000000070F0808000033
:100C2300000078780000000000000F0F00000000B3
:100C3300080878F08080000008080F070000000013
:100C43001018081810180800000000000000000029
:100C530000000E0A0E00000000000000000000C0AB
:100C6300E074F1120457C2C5E58960487E00750837
:100C730001750900EE7808120349AF08E5895F6042
:100C83002CEEC333F8E433F9E82404F582E93401A4
:100C9300F583E07002A3E0600EE82404F582E934F2
:100CA30001120D131203B1EFF45589F5890EEEC34A
:100CB300940840BA7F020204B6C0E074F1120457EC
:100CC300C2EBE58A60487E00750801750900EE787D
:100CD30008120349AF08E58A5F602CEEC333F8E4DA
:100CE30033F9E82414F582E93401F583E07002A3B3
:100CF300E0600EE82414F582E93401120D131203A7
:100D0300B1EFF4558AF58A0EEEC3940840BA80A475
:100D1300F583E0F8A3E0F583888222C0E074F11242
:100D23000457C2E8E58B60487E0075080175090029
:100D3300EE7808120349AF08E58B5F602CEEC333EE
:100D4300F8E433F9E82424F582E93401F583E0700B
:100D530002A3E0600EE82424F582E93401120D13A6
:100D63001203B1EFF4558BF58B0EEEC3940540BA25
:100D7300020CB7C0E074F2120457A2AFE492E0FE93
:100D8300C2AFE5E9A2E6501E90013FE07002A3E086
:100D9300600E90013FE0F8A3E0F58388821203B16F
:100DA300759B0053E9BFEEA2E092AF7F010204B648
:100DB300C0E0C0D0E8C0E0E9C0E0EAC0E0C082C063
:100DC30083E5C1C0E09001C2E02441F582E434012F
:100DD300F583D0E0F09001C1E0FA9001C2E06A70BF
:100DE30006E5959001C3F09001C2E004F0C394803E
:100DF3004002E4F0D083D082D0E0FAD0E0F9D0E032
:100E0300F8D0D0D0E032C0E0C0D0EAC0E0C008C023
:100E130009C082C083900244E0FA900245E06A7000
:100E23000A539AFB74019002468025C2E99002445A
:100E3300E0F50874012508F0E50824C4F582E434DC
:100E430001F583E0F5C1900244E0C394804002E4DD
:100E5300F0D083D082D009D008D0E0FA80A374F612
:100E63001203B3C290C2A07A00750880750900EA24
:100E7300780812032AE508596004D2928002C292CC
:100E8300C291D2910AEAC3940840DE020F8874F635
:100E93001203B3D290C2A07A00750880750900EAE4
:100EA300780812032AE508596004D2928002C2929C
:100EB300C291D2910AEAC3940840DE020F88C0822D
:100EC300C08379E21202257A057B0012026D79E272
:100ED3001202257A057B00120F2B120F2B12026DC3
:100EE30079F8120225790112022579A312022579D4
:100EF300261202257981120225792012022579C052
:100F030012022579A112022579A612022579AF12C0
:100F130002257A147B0012026D7940120225120217
:100F23003DD083D08202010712026D792F12022570
:100F33007A027B002274F71203B3E9C33324AEF5BC
:100F4300087F02A9081202250508120F9F7E8079E7
:100F53000012022B1EEE70F71FEF70E77F010204F1
:100F63001974F71203B37FB0EF120F977E807900E5
:100F730012022B1EEE70F70FEFC394B840EA80DC29
:100F83007910020107D2A0D292900103E0F5907F7D
:100F930002020419F9120225120F9F22791012027C
:100FA3002579041202252274F31203B3E9C333240F
:100FB300AEF50AEA33333354F82404FAC4540F4425
:100FC30010F50B740F5AF50CEBC394204006EBC3DA
:100FD300948040027B208B0874E02508F50874FF99
:100FE3003400F50974047808120349AE08AF0912F6
:100FF3001029A90A120225750800801174086508D2
:10100300700B7401250AF9120225121029EE2462CD
:10101300F582EF34061210340508E508C394104036
:10102300DB7F05020419A90B120225A90C12022564
:1010330022F583E493F912022BEE24010EEF340020
:10104300FF2274F21203B3E9FF8A088C0C8D0DAAF8
:101053000CAB0D120297EAF5097E0080128E0AE5A9
:101063000C250AF582E50D3400F583E012107DEEC0
:10107300C3950940E87F06020419FBEE1210E10E46
:101083002274F61203B3EA7001EB60337C008A82A8
:101093008B83E06015C0E08C081210C5D0E0F08AA5
:1010A300828B83A3AA82AB8380058C081210D50C94
:1010B300ECC3941040D87C2F7D017A0012024F02BA
:1010C3000F921210C922E508242FF582E43401F5AA
:1010D30083221210C97420F022F912024922250832
:1010E300FAEF80F5C082C083D2A4D2A37A027B0038
:1010F300120267C2A31211328003121130D083D0BF
:1011030082020107C082C083C2A37A027B0012025B
:1011130067D2A47A027B00120267D2A37A027B0011
:1011230012026780D8C082C083C2A380CDD2A4122A
:101133001136227A027B00120267C2A47A027B0074
:1011430012026722C082C083D2A380AE74F7120357
:10115300B3E9FF7E08EFA2E75004D2A38002C2A343
:10116300D2A4C333FF1211B070EB8001F97F0102E7
:10117300041974F71203B37F00D2A353F5F753FF97
:10118300F753F7F753F77F7A027B001202677E0863
:10119300D2A4EFC333FFA2A35003D2E0FF1211B0D6
:1011A30070EE53F5F7D2A343FF08EF80BF12113659
:1011B3001EEE2274F71203B3E9FEEAFF1211CCEF1D
:1011C300F91212101201EF80A41201E979E0121250
:1011D300147900121214EEF91212142274F7120386
:1011E300B31201E979E01212107900121210790892
:1011F30012121012121B1201F5EEFF120207E9FE82
:101203001201FB1201EFEEFAEFFB0211701212143E
:10121300221202011201F5221201EF1201E979E112
:10122300121214120207E9FE22C082C0837A627985
:101233000012020D7AF7790212020D7A077903126E
:10124300020D7A00790412020D7A00790512020D5B
:101253007A30790E12020D7A6A790012020D0211A8
:101263000074F61203B31202138A088B097808126A
:1012730005AC000014008200CF128400D312880052
:10128300D7129000FB12A00007130201DB12040126
:10129300DF120801E3121001FF1220010B130202F7
:1012A300E7120402EB120802EF12100203132002EA
:1012B3000F130204F3120404CB120804F7121004F0
:1012C3001313200417131B137E30804E7E31804A84
:1012D3007E3280467E3380427E34803E7E35803A45
:1012E3007E3680367E3780327E38802E7E39802A65
:1012F3007E2A80267E2380227E41801E7E42801AA3
:101303007E4380167E4480127E45800E7E46800A90
:101313007E5580067E4E80027E0090012EE004F012
:10132300C394C94008E4F07A6AF912020DEE601121
:101333007AAA7B0A1201CB7A147B0012026D120186
:10134300D1EEF97F0202041974F61203B38A088BF3
:1013530009EA7001EB700579000214807F007E01B9
:101363008036EE603379021202371213F2E0FCA3E7
:10137300E0FD7A03790212024F7B3C7A0079021274
:101383000249120243E914FA7B3E79021202497EB2
:10139300007A647B0012026D7A647B0012026D1284
:1013A300021FE9FA74236A70107AC87B0012026D77
:1013B3001213F2A3A3E0F980A0744E6A70177401AC
:1013C3002FC0E0850882850983A3A3E0F5F0D0E070
:1013D30084AFF0809074556A7088EF700E85088230
:1013E300850983A3A3E014FF0213681F021368EFA8
:1013F30075F003A4F8A9F0850882850983E028FA2B
:10140300A3E0398A82F5832274F61203B374EC12D3
:10141300035CEAFEEBFF851082851183AC82AD830A
:101423007583027582A074141202B0750804F5095D
:101433007808120506120273120285EAFCEBFD74AA
:10144300071203A7AA82AB8312029D7402120372CE
:10145300120279E92430C0E0740B1203A7D0E0F044
:10146300851082851183AA82AB837901120255EE1E
:10147300FAEFFB790212025574141203727F02020F
:1014830004191201C5790812025B7A477B02120222
:10149300917A2C7B0112026D7A2C7B011201D712F7
:1014A300021FE960FA7A007B0012028B12023D7A76
:1014B3002C7B011201D71201B97A477B0279011201
:1014C30002557A587B0279031202557BDF7A0E7933
:1014D300031202498070EE75F00AA4FEAAF075F0BB
:1014E3000AEFA42AFF8E088F097405780812033ABD
:1014F300AE08AF09EEF8EFF97A647B001202D1E887
:101503002430FB7A0912157D1202D17A0A7B00126C
:1015130002D1EA2430FB7A0A79021202497B2E7A3D
:101523000B12157D1202D1EA2430FB7A0C790212D8
:10153300024912021FE9FE7A647B0012026D742ACB
:101543006E70030214AF1201BF8A088B09AE08AF95
:101553000974205FF9E47001E970030214D9E42EE1
:1015630074C03FF509EA75F00AA4F508AAF075F00E
:101573000AE509A42AF5090214EC7902120249EEDC
:10158300F8EFF97A0A7B0022E9FB7A08C285EBA21D
:10159300E75004D2848002C284C333FBE9C333F926
:1015A300D285A2865003D2E0F91AEA70DFD2840210
:1015B3000107C082C083C28779001201A779001294
:1015C30001A7D287D083D08202010774F71203B335
:1015D300C28779201201A7E9900101F0A3E4F090FA
:1015E3000101E0FF79001201A7E92400F8E43FF9C3
:1015F300900101E8F0A3E9F0D2877F01020419C04A
:1016030082C08353F3BF53FDBF538FBF53F7DF53E1
:10161300F3EFD28443FD1053F3DFD28543FD205310
:10162300F37FD28743FD801216408098C082C08327
:10163300121640900101E0FAA3E0FB80871201AD8E
:101643007A027B0012026D1201B322C082C083E9C9
:1016530012054D000A01A81602781611AE16819CD8
:1016630016848A16857E1689841691A216A590166D
:10167300B59616B4167A697B02803A7A6E7B02803D
:10168300347A737B02802E7A787B0280287A7D7B82
:101693000280227A827B02801C7A877B0280167A00
:1016A3008C7B0280107A917B02800A7A967B02807F
:1016B300047A9B7B02D083D082020107C082C0835D
:1016C30079001201DDD083D082020107EBC313FB43
:1016D300EA13FAEAF8EBF974FF28FA74FF39FB749A
:1016E30000687003740069601200000000000000CD
:1016F30000000000000000000080D802010774F71A
:101703001203B3EAFEEBFFEEF8EFF974FF28FE7461
:10171300FF39FF740068700374006960097AE87B1D
:101723000312026780E17F01020419C082C083E9CA
:10173300120517010789174A1752175A1762176AB2
:101743001772177A178217900103E0D2E080369060
:101753000103E0D2E1802E900103E0D2E2802690E3
:101763000103E0D2E3801E900103E0D2E4801690EF
:101773000103E0D2E5800E900103E0D2E6800690FB
:101783000103E0D2E7F0900103E0F590D083D0822B
:1017930002010774F61203B3740A1203A7E0FEA34F
:1017A300E0FFEAF8EBF98E088F0974FF25081E7431
:1017B300FF3509FFE5087002E50960358C828D83EA
:1017C300E0A3AC82AD838A828B83F0A3AA82AB832E
:1017D30070D4EEFCEFFD74FF2C1E74FF3DFFEC7024
:1017E30001ED600DE48A828B83F0A3AA82AB838030
:1017F300E1E8FAE9FB7F02020419C082C083120206
:101803006153F5EFD2A443FF1053F5F7D2A343FF7F
:101813000853F5F753FFF743F70853F5FEC2A04308
:10182300FF0153F3BFC28643FD4075F4007590FF7B
:1018330075FEFFE4900103F075900012023112026D
:101843001912027F1201E3D083D082020107C08202
:10185300C08353F1FE43F30CE5F353F2F3E5F27562
:10186300868075C48075C2D875C50B75C40243865E
:1018730040D2AA75C100E49001C1F09001C2F0907A
:101883000244F0900245F09001C3F0900246F0D07C
:1018930083D082020107748055C6FA53BEFBE59DCF
:1018A300A2E550FAE59DA2E240F4007401697007D5
:1018B30074494AF5C68005E970028AC6E5C6FAE5A9
:1018C3009EFBEA6B70F943BE04020107C082C0832A
:1018D30090624AE0800DC082C083906249E0C454A4
:1018E3000F8000F9D083D082020107C082C0838AAF
:1018F300828B838001A3E070FCE582C39AFAE583BF
:101903009BFBD083D0820201070201070201070279
:071913000107D2AF0201073A
:04000005000000E314
:00000001FF
