:020000040000FA
:030000000200E318
:030013000205C41F
:03003B0002061AA0
:03004B0002057D2E
:1000830002058700000080FB120137B9000302005C
:10009300CDE490010178BF79028002F0A3D8FCD9A6
:1000A300FA9002BFAA82AB8390013A78217901804A
:1000B30015E493A3AC82AD838A828B83F0A3AA82D7
:1000C300AB838C828D83D8E9D9E77582D275830897
:1000D30074001200F575828675830074001200F5B2
:1000E30075D0007581BF751001751101759F0002F0
:1000F300008BF5F0E59F5407C0E0E59F54F845F009
:10010300F59FE473859FF053F0F8D0E045F0F59F39
:1001130022D083D082E59F5407C0E0E493C0E0740B
:100123000193C0E07402935407F5F0E59F54F8453A
:10013300F0F59F22790122FF00000000000000007B
:10014300000000000000005266436F6E666967207E
:100153004572726F7221001201140B0B001201140D
:10016300040C001201148C0C00120114970C0012E1
:1001730001142E0D00120114C40F001201140210F9
:1001830000120114650F00120114A70F00120114CD
:100193005E10001201149410001201149910001241
:1001A3000114F60E00120114060F00120114380F89
:1001B30000120114300E00120114590E0012011422
:1001C3005E0E001201146F0E001201147F0E001256
:1001D3000114960E00120114AF0E00120114B80E92
:1001E30000120114C90E00120114DA0E00120114D8
:1001F300720600120114B00600120114DC0600128C
:1002030001142607001201143A07001201144C07C7
:1002130000120114D8070012011448080012011437
:100223003E0D001201148B0D00120114161000E490
:10023300CFC0E0E4CEC0E0E4CDC0E0E4CCC0E075E4
:10024300F020C3E633F608E633F608E633F608E6AD
:1002530033F6181818EC33FCED33FDEE33FEEF33B1
:10026300FFC3EC9709ED9709EE9709EF9719191951
:10027300400FFFEC97FC09ED97FD09EE97FE191966
:1002830006D5F0BEECF709EDF709EEF709EFF7191C
:100293001919D0E0FCD0E0FDD0E0FED0E0FF22123F
:1002A300030A1818181202321202F9191919221224
:1002B30002F9191919080808E618181820E7E012B6
:1002C300023212030A18181822090909E719191921
:1002D30020E7DC080808E618181820E703020232B2
:1002E30012030A18181812023212030A18181812E5
:1002F30002F919191922E4C397F709E497F709E4F6
:1003030097F709E497F722E4C396F608E496F6080C
:10031300E496F608E496F622E0F608A3E0F608A3CE
:10032300E0F608A3E0F622E6F008A3E6F008A3E669
:10033300F008A3E6F022CAC0E0E6F0A308DAFAD098
:10034300E0FA22B90010BB0008E88AF084F8AAF0AA
:1003530022E4FBC8FA22EB70227B10C833C8C933EE
:10036300C9335007C39AC3DBF280069A50012ADBD4
:10037300EAC833F4C8C933F4C9FA2275F008E4C8EB
:1003830033C8C933C933C99AC99B5004C92AC93B65
:10039300D5F0ECFBC833F4C8E4C9FA22600D08C6F3
:1003A300A2E713C618C613C6D5E0F3227004226071
:1003B3000D18C6C333C608C633C6D5E0F4182225C4
:1003C3001010AF08F510400215118008F510400217
:1003D3001511D2AF22C0D0251010AF08F51050026E
:1003E30005118008F51050020511D2AFD0D0222597
:1003F30010F58210AF08F510400215118008F510B2
:1004030040021511D2AF851183222510F582E43500
:1004130011F58322E4732510C582C0E0E51134FF92
:10042300C583C0E0E510C3958224F8F8E4C5A88528
:100433008311858210C5A8E8CEF0A3E520F0A37848
:1004430008E608F0A3DEFAEFF0A3E58124FAF8E664
:1004530008F0A3E608F0A3E608F0A30808E608F00E
:10046300A3E608F0A315811581D0E0FED0E0F815CE
:100473008115811581E8C0E0EEC0E02285118385F6
:100483001082E0A3FEE0A3F5207808E0A3F608DFDE
:10049300FAE0A3FFE0A3C0E0E0A3C0E0E0A3C0E074
:1004A300E0A3C0E0E0A3C0E0E4C5A8858210858393
:1004B30011C5A8D083D082020107C0D02510C58200
:1004C300C0E0E51134FFC583C0E0E510C395822485
:1004D300F310AF0885831185821080088583118509
:1004E3008210D2AFC8F0A3E9F0A3EAF0A3EBF0A324
:1004F3007908E709F0A3D8FAECF0A3EDF0A3EEF046
:10050300A3EFF0A3D0E0F0A3D0E0F0A3D0E0F0A3FA
:10051300E520F0A3E5F0F0A322851183851082E0A6
:10052300C0E0A3E0F9A3E0FAA3E0FBA37808E0F6B8
:1005330008A3DFFAE0FCA3E0FDA3E0FEA3E0FFA332
:10054300E0C0E0A3E0C0E0A3E0F5D0A3E0F520A382
:10055300E0A3F5F0E4C5A8858311858210C5A8D072
:1005630082D083D0E0F8D0E03274028000C0E0F49F
:10057300041203F2D0E012033922C0E0638002E5E3
:1005830080D0E032C0E074F21204BDA2AFE492E086
:10059300FEC2AFE5E9A2E6501E9001B0E07002A3EF
:1005A300E0600E9001B0E0F8A3E0F58388821204C6
:1005B30017759B0053E9BFEEA2E092AF7F010205DE
:1005C3001CC0E0C0D0E8C0E0E9C0E0EAC0E0C082FF
:1005D300C083E5C1C0E090023AE024B9F582E43477
:1005E30001F583D0E0F0900239E0FA90023AE06A34
:1005F3007006E59590023BF090023AE004F0C39454
:10060300804002E4F0D083D082D0E0FAD0E0F9D089
:10061300E0F8D0D0D0E032C0E0C0D0EAC0E0C008FB
:10062300C009C082C0839002BCE0FA9002BDE06AB8
:10063300700A539AFB74019002BE8025C2E99002AE
:10064300BCE0F50874012508F0E508243CF582E4D4
:100653003402F583E0F5C19002BCE0C3948040020C
:10066300E4F0D083D082D009D008D0E0FA80A3741C
:10067300F412041953F4FB53FEFB53F6FB53F7BF79
:100683007508007E0012070CA2925010750A0175BE
:100693000B00EE780A1203AFE50A42080EEEC3948C
:1006A3000840E21207B1A9087F0402047F74F6121E
:1006B3000419E9FF7E00750880750900EE780812B9
:1006C300039FE5085F6004D2928002C2921207037F
:1006D30040E4D2927F0202047F74F6120419E9FF08
:1006E3007E00750801750900EE78081203AFE5086E
:1006F3005F6004D2928002C29212070340E480D268
:1007030012070C0EEEC39408227A147B001201A880
:10071300C2937A147B001201A8D2937A147B00123D
:1007230001A822E975F00A84AAF075F00AE984C4E5
:1007330054F02AF9020107740F59C0E075F00AE971
:10074300C4540FA4FAD0E080E974F71204197E00B0
:100753001207B153F4F7D29343FE0853F4EFC29454
:1007630043FE10C294D293D292D29479611207C5F8
:1007730050041207BA0EC294D29479631207C5507B
:10078300051207BA7E01C29474016E701CD294796B
:10079300601201F679021201FCC294D294796212BA
:1007A30001F679081201FCC2947F0102047F53F41D
:1007B300FBD29243FE042279601201F67901120101
:1007C300FC221201F61201F0E9FF7AC87B00120144
:1007D300A8EFA2E72274F7120419D2949001B2C3CE
:1007E300E094D0A3E09407400D9001B2C3E09434A9
:1007F300A3E09408400A9001B274D0F0A37407F008
:100803009001B2E02430FE79641201F6EE12084042
:100813009001B412083B9001B512083B790012080D
:10082300419001B612083B9001B712083B9001B802
:1008330012083BC2940207ACE012084022F91202EC
:10084300021201FC2274F6120419D2947965120182
:10085300F61208CAF5081208CA9001B41208C99022
:1008630001B5F01201F01202081201F0E9543FF948
:10087300120208E99001B61208C99001B7F01201FB
:10088300F0E9547FF9120208E99001B8F0C29474B8
:10089300D02508F874073400F99001B2E8F0A3E911
:1008A300F09001B2E094D0A3E09407400C9001B221
:1008B300E09434A3E09408400A9001B274D0F0A30A
:1008C3007407F00206D7F01201F0120208E922744D
:1008D300E01203C29001AC7411F0A3F07412900102
:1008E300AEF074019001AFF01201787A2C7B011203
:1008F300018A9001AA7433F0A3F07AAA7B01120152
:1009030060E9640170077ACF7B0212017E120172E3
:1009130012021A9001B2C3E094D9A3E094074003F2
:10092300020AA09001B274DAF0A37407F074019084
:1009330001B4F09001B5F0740C9001B6F0E49001AD
:10094300B7F09001B8F0120214020AA012021A9032
:1009530001B8E06E7003020AA0E0FE7432851082D3
:10096300851183F0740112040D7430120AF312031B
:10097300467A0A7B00120346EA2430C0E07402126E
:10098300040DD0E0120AF3120346EA2430C0E074E7
:100993000312040DD0E0F0740412040D742FF075EB
:1009A300F00A9001B4E0842430C0E0740512040D11
:1009B300D0E0F09001B4120B01C0E0740612040DF4
:1009C300D0E0F0740712040D742FF075F00A900153
:1009D300B5E0842430C0E0740812040DD0E0F09038
:1009E30001B5120B01C0E0740912040DD0E0F074DC
:1009F3000A12040D7420F075F00A9001B6E0842405
:100A030030C0E0740B12040DD0E0F09001B6120B6D
:100A130001C0E0740C12040DD0E0F0740D12040D4B
:100A2300743AF075F00A9001B7E0842430C0E074A2
:100A33000E12040DD0E0F09001B7120B01C0E07468
:100A43000F12040DD0E0F0741012040D743AF07517
:100A5300F00A9001B8E0842430C0E0741112040D50
:100A6300D0E0F09001B8120B01C0E0741212040D33
:100A7300D0E0F0741312040D7420F0741412040DFA
:100A8300740D120ADB7C157D00851082851183AA03
:100A930082AB83120AE67A0A7B0012018A1201668C
:100AA300E9700302094F7C007D0079207A8A7B017B
:100AB30012016CE960E77A1E7B0012018A742090B0
:100AC300018BF0740D90018C120ADB7C037D007A9C
:100AD3008A7B01120AE680C5F0D2967AF47B011272
:100AE30001A8221202267A647B001201A8C2962270
:100AF300F09001B2E0F8A3E0F97A0A7B0022E075F6
:100B0300F00A84E5F0243022C082C0831201DE1291
:100B1300019679017A0A7B011201D290010AE0C29F
:100B2300E7F0640570377905120BEC5004D2F080BE
:100B330002C2F0A2F0E492E09002C7F090010FE04D
:100B4300A2E74003020BDC90010DE0FA900101E003
:100B53006A6003020BDC7401900102807BE024F5E0
:100B63009002C4F090010AE0F9120BEC5004D2F0A9
:100B73008002C2F0A2F0E492E09002C7F09001126A
:100B8300E0F8A3E0F99002C0E8F0A3E9F09002C511
:100B93007414F0A37401F0120BFAE82414F8E93486
:100BA30001F988828983E09002C8F088828983A34F
:100BB300E0A2E7501C9002BFE0FA90010DE06A60EA
:100BC3001090010BE054DF6441700674019002C978
:100BD300F090010DE09002BFF012019C1201E4803D
:100BE30001F9D083D0820201077A0B7B011201D273
:100BF30090010BE0A2E5229002C4E0F83395E0F9FE
:100C03002274F4120419EAFEEBFF1201B4E9640141
:100C130070047901805412019C900108EEF0A3EF57
:100C2300F09002C5E4F0A3F07401900103F0900288
:100C3300CB780812031B900104780812032A120CC4
:100C430072A3A3E0F91201C0120C7CE0FAA3E0FB4B
:100C53001201C6120C72E0FAA3E0FB1201CC7A5A1D
:100C63007B011201EA12019679007F0402047F12CC
:100C73000C7622120C80A3A322120C80229001086E
:100C8300E0F8A3E0F583888222C082C0839002C982
:100C9300E0020BE474F21204198A088B09890AEC46
:100CA300FEEDFF12019C120BFA850A0CC3E8950CAA
:100CB300E99400A2D265D033500AE0F50C3395E0F5
:100CC300F50D8003750D00780C12056C9002C5E0DC
:100CD300FCA3E0FDAA08AB0912022C74021203D88C
:100CE300EE7001EF601E1201BAE9F5089002C81216
:100CF3000BFDE8C39508F8E99400F98E828F83E829
:100D0300F0A3E9F0E49002C9F0120196120BFA8500
:100D13000A08C3E89508E99400A2D265D0335004C9
:100D2300E0F98002A90A7F0602047FC082C08374AF
:100D330001900103F01201D8020BE5C082C0835376
:100D4300F1FE43F30CE5F353F2F3E5F27586807598
:100D5300C48075C2D875C50B75C402438640D2AA38
:100D630075C100E4900239F090023AF09002BCF0B1
:100D73009002BDF090023BF09002BEF0D083D0828F
:100D83000201077F0102047F74F71204199002BD68
:100D9300E0C0E09002BCE0FED0E0C39EE0F8900229
:100DA300BDE0FEE8501BC39EF8E49400F974FF28ED
:100DB3001874FF39F9E87001E9701B780079008035
:100DC30029C39EF8E49400F9747F28F8E439F9C341
:100DD300E89CE99D50E57A007B008043E004F04302
:100DE3009A04E8240108E93400F9C3E89CE99D501A
:100DF3002A8A828B83E0C0E09002BDE0243CF58226
:100E0300E43402F583D0E0120E25E49002BEF090A4
:100E130002BDE0C3947F40C4E480C3E8FAE9FB0267
:100E23000D86F08A828B83A3AA82AB8322C082C001
:100E330083906189E04460F074D5906190F0740907
:100E43009061FAF074159061B2F0E49061AEF01223
:100E530001E4790080367949020107C082C08375B5
:100E6300F005E9A424D490618FF08020C082C08370
:100E7300EA906174F0EB906175F08010C082C083DA
:100E8300EA906172F0EB906173F08000D083D082BE
:100E9300020107C082C083800DE5D98A828B83F06B
:100EA300A3AA82AB8319E970F0020E8F75E1EC758A
:100EB300E1E3020107C082C0839061A3E0C2E6F0D0
:100EC300539AFE020E8FC082C0839061A3E0D2E6E4
:100ED300F0439A01020E8FC082C083A2AFE492E076
:100EE300FCC2AF9001B0EAF0A3EBF0ECA2E092AF4A
:100EF300020E8FC082C0837900120190D083D0820A
:100F0300020107EBC313FBEA13FAEAF8EBF974FFE8
:100F130028FA74FF39FB7400687003740069601267
:100F230000000000000000000000000000000000BE
:100F330080D802010774F7120419EAFEEBFFEEF8FA
:100F4300EFF974FF28FE74FF39FF740068700374AF
:100F5300006960097AE87B031201A880E17F01023E
:100F6300047F74F012041943E40CE5E4750C48752E
:100F73000DE8750E01750F008A088B09750A007557
:100F83000B00780C79081202CC850D09E509F5DB15
:100F9300E50CF5DA75E54453E4EF53E4FDC2B97F9C
:100FA3000802047FC082C08375E20043E402D2B921
:100FB3001201AE53E4FDC2B9D281D083D0820201C3
:100FC30007C082C0831201A253F4FED29043FE01F4
:100FD30053F4FDD29143FE0253F4BFC29643FE4045
:100FE30053F3FDD28143FD027AAA7B0A12018412D4
:100FF300020E120220120196D083D082020107C092
:1010030082C0837AC87B001201AE7AC87B001201CA
:10101300AE80F074F6120419740A12040DE0FEA3F4
:10102300E0FFEAF8EBF980188C828D83E0888289EF
:1010330083F0A3A882A9838C828D83A3AC82AD8322
:101043008E088F0974FF25081E74FF3509FFE50814
:101053007002E50970D27F0202047F748055C6FADC
:1010630053BEFBE59DA2E550FAE59DA2E240F400E4
:10107300740169700774494AF5C68005E970028AEC
:10108300C6E5C6FAE59EFBEA6B70F943BE040201AE
:0B10930007D2AF020107C2AF02010745
:04000005000000E314
:00000001FF
