:020000040000FA
:030000000200E318
:0300130002123C9A
:030033000211A710
:03003B000212921C
:03004B000210E1BF
:03006B000210EB95
:03007B000211452A
:100083000211FF00000080FB120137B900030200D8
:10009300CDE4900101784579028002F0A3D8FCD920
:1000A300FA900245AA82AB8390013A78787901806D
:1000B30015E493A3AC82AD838A828B83F0A3AA82D7
:1000C300AB838C828D83D8E9D9E7758279758319DF
:1000D30074001200F575828675830074001200F5B2
:1000E30075D0007581BF751001751101759F0002F0
:1000F300008BF5F0E59F5407C0E0E59F54F845F009
:10010300F59FE473859FF053F0F8D0E045F0F59F39
:1001130022D083D082E59F5407C0E0E493C0E0740B
:100123000193C0E07402935407F5F0E59F54F8453A
:10013300F0F59F227901224B6579706164204C436D
:10014300442054657374004B6579506164204C43BB
:10015300442054657374004B6579696E20576F7240
:10016300643A0032343230003234333000323433C4
:1001730031003235323000323533300032353331ED
:100183000032353130003235313100313131300018
:1001930031313131002D2D2D2D002A2A2043437872
:1001A30078787820282029202A2A000000001201CC
:1001B30014941B001201147A1A00120114BC1A00C1
:1001C300120114F31A00120114FD1A00120114B6DD
:1001D3001D00120114291E001201149C15001201A6
:1001E30014BC1500120114DD1500120114FC1500D6
:1001F3001201140416001201142A16001201146BC2
:100203001600120114941600120114E116001201D3
:1002130014191700120114EA12001201141A130020
:100223001201144A1300120114C11300120114ED38
:1002330013001201140C14001201145F14001201B4
:1002430014FA1400120114391500120114E71C00EA
:10025300120114781C00120114881C00120114BA34
:100263001C00120114EC1D00120114F61D001201F2
:10027300140018001201144818001201149C1800ED
:10028300120114411900120114071C001201141A5F
:100293001B001201140B1E001201144F1D00E4CFAA
:1002A300C0E0E4CEC0E0E4CDC0E0E4CCC0E075F053
:1002B30020C3E633F608E633F608E633F608E633FA
:1002C300F6181818EC33FCED33FDEE33FEEF33FF75
:1002D300C3EC9709ED9709EE9709EF9719191940A0
:1002E3000FFFEC97FC09ED97FD09EE97FE19190630
:1002F300D5F0BEECF709EDF709EEF709EFF7191999
:1003030019D0E0FCD0E0FDD0E0FED0E0FF221203E4
:10031300791818181202A112036819191922120365
:1003230068191919080808E618181820E7E01202D6
:10033300A112037918181822090909E719191920B4
:10034300E7DC080808E618181820E7030202A112E0
:1003530003791818181202A1120379181818120336
:100363006819191922E4C397F709E497F709E49781
:10037300F709E497F722E4C396F608E496F608E44F
:1003830096F608E496F622CAC0E0E6F0A308DAFA85
:10039300D0E0FA22CAC0E0E0A3C582CCC582C583FF
:1003A300CDC583F0A3C582CCC582C583CDC583DA11
:1003B300E6D0E0CA22600D08C6A2E713C618C6132A
:1003C300C6D5E0F322700422600D18C6C333C608F5
:1003D300C633C6D5E0F41822251010AF08F5104037
:1003E3000215118008F51040021511D2AF22C0D0BA
:1003F300251010AF08F510500205118008F51050B4
:10040300020511D2AFD0D0222510F58210AF08F526
:1004130010400215118008F51040021511D2AF8566
:100423001183222510F582E43511F58322E4732527
:1004330010C582C0E0E51134FFC583C0E0E510C3F9
:10044300958224F8F8E4C5A8858311858210C5A890
:10045300E8CEF0A3E520F0A37808E608F0A3DEFADF
:10046300EFF0A3E58124FAF8E608F0A3E608F0A389
:10047300E608F0A30808E608F0A3E608F0A3158150
:100483001581D0E0FED0E0F8158115811581E8C013
:10049300E0EEC0E022851183851082E0A3FEE0A395
:1004A300F5207808E0A3F608DFFAE0A3FFE0A3C095
:1004B300E0E0A3C0E0E0A3C0E0E0A3C0E0E0A3C0AD
:1004C300E0E4C5A8858210858311C5A8D083D082B6
:1004D300020107C0D02510C582C0E0E51134FFC575
:1004E30083C0E0E510C3958224F310AF0885831120
:1004F3008582108008858311858210D2AFC8F0A34E
:10050300E9F0A3EAF0A3EBF0A37908E709F0A3D895
:10051300FAECF0A3EDF0A3EEF0A3EFF0A3D0E0F03C
:10052300A3D0E0F0A3D0E0F0A3E520F0A3E5F0F042
:10053300A322851183851082E0C0E0A3E0F9A3E044
:10054300FAA3E0FBA37808E0F608A3DFFAE0FCA334
:10055300E0FDA3E0FEA3E0FFA3E0C0E0A3E0C0E072
:10056300A3E0F5D0A3E0F520A3E0A3F5F0E4C5A84C
:10057300858311858210C5A8D082D083D0E0F8D0BE
:10058300E03274028000C0E0F40412040BD0E012E5
:10059300038A22D083D082C5F0E493A3C5F0C39528
:1005A300F0F5F0E493A3C395F04005E5F004800172
:1005B300E475F002A42582F582E5F03583F583E442
:1005C30093A3C0E0E493C0E022D083D082CCC0E008
:1005D300E493A360061205F61470FAE493A360068D
:1005E3001206151470FAD0E0FCE493A3C0E0E49380
:1005F300C0E022C0E0E493A3D39C5010E493A3C3D0
:100603009C400AD0E0D0E0D0E00205E9A3A3A3D048
:10061300E022C0E0E493A36C7009D0E0D0E0D0E026
:100623000205E9A3A3D0E022D083D082ECC0E0EDA1
:10063300C0E0E493A3FCE493A3FDED4C600D12062C
:1006430077EC24FFFCED34FFFD80EFE493A3FCE49F
:1006530093A3FDED4C600D1206B6EC24FFFCED34C4
:10066300FFFD80EFD0E0FDD0E0FCE493A3C0E0E425
:1006730093C0E022C0E0C3E49396087401939618F4
:10068300400FE49366700808740193661870007055
:1006930019A3A3C3E49396087401939618A3A340E4
:1006A3000DD0E0D0E0D0E0020667A3A3A3A3A3A3E9
:1006B300D0E022C0E0C0F088F0E4936670080874CC
:1006C300019366187000A8F0A3A3700BD0F0D0E0DC
:1006D300D0E0D0E0020667A3A3D0F0D0E022FF0170
:1006E300010101010101010101010181C1414141F7
:1006F300C1810101C1C101010101C1C10101C1C127
:10070300010101F1212121A1A1A1A1A1212121F116
:1007130021012121E12121E1312101018141311116
:10072300010101F151515151F1012121A16121B186
:100733002101010121212121212121212131210116
:10074300010101F1A1A1A1F12101F1A1A1A1F121D6
:1007530001010101010101010101010101FFFF008B
:10076300000000000000000000003F7FC080888878
:1007730078F900003F7FC08080C07F3F0000FFFF0B
:10078300000000FF0008E82BEAAEEA2BE80800FFB0
:1007930000000808FF0808FF080C292110088662DA
:1007A300200028BD2B35693DAB3460FF959595FF3F
:1007B300010002C23212020202FE02021222C283AC
:1007C300020048C9686858C90E0AC9485A6CE94CFE
:1007D30048000000000000000000000000FFFF00D0
:1007E3000000000000000000000000000000008086
:1007F3008000800000000080000080000000800076
:1008030000000087820203820282820283020207BF
:10081300000004830000000700000404828100003C
:1008230000000201000300030003040201000102AF
:100833000400018000000080000700000000800128
:10084300000000870202820700008702020207807D
:1008530080000000000000000000000000FFFF0017
:1008630000000000000000FF02EAAAAAAAEA027F31
:10087300820202F3120008300300FF494949FF01D5
:10088300FE0200FF000000FF496C4800EF09FD0075
:10089300494949FF010020201008E423000102E434
:1008A30028081030100001FD0909F9494D4B49F999
:1008B3000909FD090100040305C55F55555F555539
:1008C3005FC505030100FF9595FF95D508F492F5E3
:1008D30004F592F4040000000000000000FFFF0094
:1008E300000000000000300F10081C2224380428E8
:1008F300130C13203800300C2320170A020A173078
:100903000310301F0000222312120A0A03020302FB
:100913000A0A123302000020100C03000000003FFB
:10092300000000000000003F10101F121212121FDF
:1009330010103F0000000000203F15151515151578
:10094300153F200000000D022C22140F2018062A48
:10095300100E0A30000000000000000000FFFF003E
:100963000000000000000000000080808080808084
:1009730080808080F0B0B0B0B0F080808080800054
:100983000000000000000000000000000000000064
:10099300C0000000C0008040408000000080C00014
:1009A3000000804040800000804040800000000044
:1009B3000000000000000000000000000000000034
:1009C30000C02010908808080888901020C00000FC
:1009D30000000000000000000000000000FFFF0016
:1009E300000000000000000000003F2A2AEAEA7F1E
:1009F3002A2A3A3A3F2A2A3A3A3F2A2A2A2A3F00FF
:100A030000000000000000000000000000000000E3
:100A1300010E700E01003F40403F000000007F00C8
:100A230000003F40403F00003F40403F00000000C7
:100A330000000000000000000000000000000000B3
:100A43001F608018316140404061311880601F0091
:100A530000000000000000000000000000FF7F40D5
:100A63004040404040404040404040404040404083
:100A73004040404040404040404040404040404073
:100A83004040404040404040404040404040404063
:100A93004040404040404040404040404040404053
:100AA3004040404040404040404040404040404043
:100AB3004040404040404040404040404040404033
:100AC3004040404141424242424241414040404015
:100AD300404040404040404040404040407F000054
:100AE3000000000000000000000000000000000003
:100AF30070F8F87000000000000D0D000000001CED
:100B03003C0000003C1C000000000000000000202E
:100B1300F8F820F8F82000020F0F020F0F02007000
:100B2300F8888E8E983000060C0838380F0700605E
:100B330060000080C06000080C0603010C0C00007C
:100B4300B0F8C878B08000070F0809070F08002025
:100B53003C1C00000000000000000000000000003A
:100B6300E0F018080000000003070C080000000074
:100B7300000818F0E000000000080C07030080A044
:100B8300E0C0C0E0A08000020301010302008080F6
:100B930080F0F08080800000000707000000000064
:100BA3000000000000000000101E0E000000808006
:100BB30080808080800000000000000000000000B2
:100BC3000000000000000000000C0C00000000000A
:100BD3000080C0603018000603010000000000F030
:100BE300F888C868F8F000070F0908080F07000025
:100BF3002030F8F80000000008080F0F0808001064
:100C0300180888C87830000C0E0B09080C0C00106B
:100C130018888888F87000040C0808080F070080FB
:100C2300C06030F8F80000010101090F0F0900F856
:100C3300F8888888880800040C0808080F0700E073
:100C4300F0988888800000070F0808080F0700182D
:100C5300180888C878380000000F0F0000000070E3
:100C6300F8888888F87000070F0808080F070070D5
:100C7300F8888888F8F000000808080C07030000CB
:100C830000303000000000000006060000000000F5
:100C93000030300000000000080E06000000008055
:100CA300C0603018080000000103060C0800004073
:100CB30040404040400000020202020202000008DD
:100CC300183060C0800000080C06030100000030EB
:100CD300380888C87830000000000D0D000000F0CF
:100CE300F808C8C8F8F000070F080B0B0B0100C089
:100CF300E0301830E0C0000F0F0101010F0F0008B2
:100D0300F8F88888F87000080F0F08080F0700E04C
:100D1300F018080818300003070C08080C06000830
:100D2300F8F80818F0E000080F0F080C0703000894
:100D3300F8F888C8183800080F0F08090C0E0008C7
:100D4300F8F888C8183800080F0F0801000000E001
:100D5300F018080818300003070C0909070F00F8FA
:100D6300F8808080F8F8000F0F0000000F0F0000DC
:100D730008F8F80800000000080F0F080000000042
:100D8300000008F8F80800060E08080F070000081E
:100D9300F8F880E0781800080F0F00030F0C000824
:100DA300F8F80800000000080F0F08080C0E00F800
:100DB300F8306030F8F8000F0F0000000F0F00F854
:100DC300F870E0C0F8F8000F0F0000010F0F00E00B
:100DD300F0180818F0E00003070C080C07030008DC
:100DE300F8F88888F87000080F0F0800000000F07A
:100DF300F8080808F8F000030704071E1F1300088B
:100E0300F8F88888F87000080F0F00010F0E003003
:100E130078C88888383000060E0808090F061808B5
:100E230008F8F80808180000080F0F08000000F879
:100E3300F8000000F8F800070F0808080F0700F88B
:100E4300F8000000F8F8000103060C06030100F89F
:100E5300F8000000F8F8000F0F0603060F0F003824
:100E630078C080C07838000E0F0100010F0E0038E3
:100E730078C080C078380000080F0F0F08000038D2
:100E83001888C8683818000E0F0908080C0E0000EF
:100E9300F8F80808000000000F0F080800000038E9
:100EA30070E0C0800000000000000103070E000096
:100EB3000808F8F80000000008080F0F00000010F1
:100EC300180C060C181000000000000000000000C1
:100ED300000000000000002020202020200000004F
:100EE30000060E08000000000000000000000000E3
:100EF300404040C0800000060F0909070F080008A2
:100F0300F8F840C0800000080F0708080F070080AA
:100F1300C0404040C08000070F0808080C040000D0
:100F230080C048F8F80000070F0808070F08008082
:100F3300C0404040C08000070F0909090D0500802B
:100F4300F0F88898300000080F0F080000000080B8
:100F5300C0404080C04000133724243F1F000008D6
:100F6300F8F88040C08000080F0F00000F0F00004A
:100F73000040D8D80000000000080F0F0800000050
:100F8300000040D8D80000183820203F1F00000878
:100F9300F8F80080C04000080F0F01030E0C00009A
:100FA3000008F8F80000000000080F0F0800008098
:100FB300C0808080C080000F0F000F000F0F004023
:100FC300C0804040C08000000F0F00000F0F008062
:100FD300C0404040C08000070F0808080F070040CA
:100FE300C0804040C08000203F3F240407030080AE
:100FF300C0404080C04000030704243F3F2000401E
:10100300C080C040C08000080F0F080001010080AD
:10101300C0404040C08000040D090B0A0E0400408C
:1010230040F0F8404000000000070F080C0400C027
:10103300C00000C0C00000070F0808070F0800C069
:10104300C0000000C0C0000103060C06030100C07D
:10105300C0000000C0C000070F0C060C0F070040C3
:10106300C0800080C04000080C0703070C0800C0C4
:10107300C0000000C0C00003272424341F0F00C099
:10108300C04040C0C04000080C0E0B090C0C00808F
:1010930080F078080800000000070F08080000002F
:1010A3000078780000000000000F0F000000000827
:1010B3000878F08080000008080F07000000001087
:1010C30018081810180800000000000000000000B5
:1010D300000E0A0E00000000000000000000C0E047
:1010E300638002E580D0E032C0E074F11204D6C21E
:1010F300C5E58960487E00750801750900EE78082A
:101103001203C8AF08E5895F602CEEC333F8E433FC
:10111300F9E82402F582E93401F583E07002A3E0E3
:10112300600EE82402F582E9340112119C120430A6
:10113300EFF45589F5890EEEC3940840BA7F020295
:101143000535C0E074F11204D6C2EBE58A60487E2F
:1011530000750801750900EE78081203C8AF08E5A9
:101163008A5F602CEEC333F8E433F9E82412F58286
:10117300E93401F583E07002A3E0600EE82412F580
:1011830082E9340112119C120430EFF4558AF58A76
:101193000EEEC3940840BA80A4F583E0F8A3E0F50B
:1011A30083888222C0E074F11204D6C2E8E58B6022
:1011B300487E00750801750900EE78081203C8AF70
:1011C30008E58B5F602CEEC333F8E433F9E824229F
:1011D300F582E93401F583E07002A3E0600EE824B0
:1011E30022F582E9340112119C120430EFF4558B7D
:1011F300F58B0EEEC3940540BA021140C0E074F2C1
:101203001204D6A2AFE492E0FEC2AFE5E9A2E65033
:101213001E90013DE07002A3E0600E90013DE0F8F6
:10122300A3E0F5838882120430759B0053E9BFEE77
:10123300A2E092AF7F01020535C0E0C0D0E8C0E074
:10124300E9C0E0EAC0E0C082C083E5C1C0E090012C
:10125300C0E0243FF582E43401F583D0E0F090014F
:10126300BFE0FA9001C0E06A7006E5959001C1F015
:101273009001C0E004F0C394804002E4F0D083D036
:1012830082D0E0FAD0E0F9D0E0F8D0D0D0E032C09C
:10129300E0C0D0EAC0E0C008C009C082C0839002A9
:1012A30042E0FA900243E06A700A539AFB74019099
:1012B30002448025C2E9900242E0F5087401250842
:1012C300F0E50824C2F582E43401F583E0F5C1902A
:1012D3000242E0C394804002E4F0D083D082D0097C
:1012E300D008D0E0FA80A374F6120432C290C2A0F0
:1012F3007A00750880750900EA78081203B8E508D2
:10130300596004D2928002C292C291D2910AEAC376
:10131300940840DE02143D74F6120432D290C2A047
:101323007A00750880750900EA78081203B8E508A1
:10133300596004D2928002C292C291D2910AEAC346
:10134300940840DE02143DC082C08379E212021782
:101353007A057B0012025F79E21202177A057B009D
:101363001213B41213B412025F79F812021779013F
:1013730012021779A3120217792612021779811222
:101383000217792012021779C012021779A11202EB
:101393001779A612021779AF1202177A147B00127B
:1013A300025F794012021712022FD083D08202010A
:1013B3000712025F792F1202177A027B002274F759
:1013C300120432E9C33324AEF5087F02A9081202DE
:1013D3001705081214547E80790012021D1EEE7048
:1013E300F71FEF70E77F0102049874F71204327F4E
:1013F300B0EF12144C7E80790012021D1EEE70F7BE
:101403000FEFC394B840EA80DC74F61204327E0016
:101413007F008E0974B0250912144C750880EE24E0
:10142300E1F582EF34061214E91508E50870EF05BB
:1014330009E509C3940840DC800AD2A0D292900146
:1014430001E0F5907F02020498F912021712145476
:1014530022791012021779041202172274F312046C
:1014630032E9C33324AEF50AEA33333354F82404A0
:10147300FAC4540F4410F50B740F5AF50CEBC394D4
:10148300204006EBC3948040027B208B0874E02548
:1014930008F50874FF3400F509740478081203C8CA
:1014A300AE08AF091214DEA90A12021775080080EC
:1014B3001174086508700B7401250AF912021712DA
:1014C30014DEEE24E1F582EF340A1214E90508E58F
:1014D30008C3941040DB7F05020498A90B1202177E
:1014E300A90C12021722F583E493F912021DEE24CC
:1014F300010EEF3400FF2274F2120432E9FF8A086E
:101503008C0C8D0DAA0CAB0D120295EAF5097E0029
:1015130080128E0AE50C250AF582E50D3400F58369
:10152300E0121532EEC3950940E87F06020498FBEA
:10153300EE1215960E2274F6120432EA7001EB6075
:10154300337C008A828B83E06015C0E08C0812151F
:101553007AD0E0F08A828B83A3AA82AB8380058C46
:101563000812158A0CECC3941040D87C2D7D017AA7
:101573000012024102144712157E22E508242DF5BC
:1015830082E43401F5832212157E7420F022F912CD
:10159300023B222508FAEF80F5C082C083D2A4D291
:1015A300A37A027B00120259C2A31215E780031229
:1015B30015E5D083D082020107C082C083C2A37A1B
:1015C300027B00120259D2A47A027B00120259D282
:1015D300A37A027B0012025980D8C082C083C2A3BF
:1015E30080CDD2A41215EB227A027B00120259C2DB
:1015F300A47A027B0012025922C082C083D2A38044
:10160300AE74F7120432E9FF7E08EFA2E75004D26A
:10161300A38002C2A3D2A4C333FF12166570EB806A
:1016230001F97F0102049874F71204327F00D2A3F8
:1016330053F5F753FFF753F7F753F77F7A027B001E
:101643001202597E08D2A4EFC333FFA2A35003D2E0
:10165300E0FF12166570EE53F5F7D2A343FF08EFD0
:1016630080BF1215EB1EEE2274F7120432E9FEEA74
:10167300FF121681EFF91216C51201E180A41201BF
:10168300DB79E01216C979001216C9EEF91216C9F0
:101693002274F71204321201DB79E01216C57900C5
:1016A3001216C579081216C51216D01201E7EEFFFD
:1016B3001201F9E9FE1201ED1201E1EEFAEFFB026C
:1016C30016251216C9221201F31201E7221201E1B3
:1016D3001201DB79E11216C91201F9E9FE22C08277
:1016E300C0837A6279001201FF7AF779021201FF4F
:1016F3007A0779031201FF7A0079041201FF7A0055
:1017030079051201FF7A30790E1201FF7A6A7900A6
:101713001201FF0215B574F61204321202058A088B
:101723008B09780812062B000014008200841784AA
:1017330000881788008C179000B017A000BC170210
:1017430001901704019417080198171001B417208A
:1017530001C01702029C170402A0170802A4171065
:1017630002B8172002C4170204A81704048017083C
:1017730004AC171004C8172004CC17D0177E308090
:101783004E7E31804A7E3280467E3380427E348074
:101793003E7E35803A7E3680367E3780327E388094
:1017A3002E7E39802A7E2A80267E2380227E4180D7
:1017B3001E7E42801A7E4380167E4480127E4580C0
:1017C3000E7E46800A7E5580067E4E80027E009005
:1017D300012CE004F0C394C94008E4F07A6AF912DA
:1017E30001FFEE60117AAA7B0A1201BD7A147B0015
:1017F30012025F1201C3EEF97F02020498C082C095
:101803008353F1FE43F30CE5F353F2F3E5F27586EC
:101813008075C48075C23B75C50975C40243864093
:10182300D2AA75C100E49001BFF09001C0F090020C
:1018330042F0900243F09001C1F0900244F0D08353
:10184300D08202010774F712043278007900802DE8
:101853009001BFE0243FF582E43401F583E08A82FE
:101863008B83F09001BFE004121936C394804005C6
:10187300E49001BFF0E8240108E93400F99001BFC6
:10188300E0FE9001C0E06E6007C3E89CE99D40C0A4
:10189300E8FAE9FB7F0102049874F712043290021C
:1018A30043E0C0E0900242E0FED0E0C39EE0F89047
:1018B3000243E0FEE8501BC39EF8E49400F974FF72
:1018C300281874FF39F9E87001E9701B7800790072
:1018D3008029C39EF8E49400F9747F28F8E439F969
:1018E300C3E89CE99D50E57A007B008043E004F067
:1018F300439A04E8240108E93400F9C3E89CE99D0C
:10190300502A8A828B83E0C0E0900243E024C2F530
:1019130082E43401F583D0E0121936E4900244F0F6
:10192300900243E0C3947F40C4E480C3E8FAE9FB38
:10193300021897F08A828B83A3AA82AB8322C08288
:10194300C0839001C0E0C0E09001BFE0FAD0E0C3E3
:101953009A400C9001C0E0C39AFAE494008013E02B
:10196300F87480C398F8E49400F99001C0E028FA71
:10197300E439FB02184174F61203DB1201B1790852
:1019830012024D1202357A2C7B011201C912021187
:10199300E960FA7A457B0212028F7E0012022F7CE5
:1019A300557D027A0079011202417C657D027A003D
:1019B3007902120241021A5EEEFA790312023B0E19
:1019C300EEC3942040137A2C7B011201C9790312D0
:1019D300022979041202297E007AC87B0012025F71
:1019E300AB087A0B790212023B851082851183E5DD
:1019F30008F07401120426740DF0740212042674A4
:101A03000AF07C037D00851082851183AA82AB8353
:101A130012027D120283EAF5086039C39411400370
:101A2300750810AC087D007405120426AA82AB83E6
:101A33001202777405120426E5822508F582E583F0
:101A43003400F583E4F07405120426AA82AB83798B
:101A5300031202477A0A7B0012025F120211E9F5B0
:101A63000860F1EEC39410AB0850030219BB74F085
:101A73002EFA79040219BF74F012043243E40CE520
:101A8300E4750C48750DE8750E01750F008A088B17
:101A930009750A00750B00780C790812033B850D54
:101AA30009E509F5DBE50CF5DA75E54453E4EF5395
:101AB300E4FDC2B97F0802049874F012043275E29F
:101AC30000750C48750DE8750E01750F008A088BBB
:101AD30009750A00750B00780C790812033B850D14
:101AE30009E509F5DBE50CF5DA43E402D2B980C474
:101AF30053E4FDC2B9D281020107C082C08375E2FB
:101B03000043E402D2B912025F53E4FDC2B9D281A9
:101B1300D083D08202010774F612043274EC1203EC
:101B2300DBEAFEEBFF851082851183AC82AD837502
:101B330083027582A87414120397750804F5097853
:101B430008120585120265120289EAFCEBFD74078F
:101B5300120426AA82AB8312029B74021203F112AF
:101B6300026BE92430C0E0740B120426D0E0F08548
:101B73001082851183AA82AB837901120247EEFAA0
:101B8300EFFB790212024774141203F17F0202047D
:101B930098C082C08312025375F40075900075FEDD
:101BA300FFE4900101F075900053F5EFD2A443FFD9
:101BB3001053F5F7D2A343FF0853F5F753FFF74349
:101BC300F70853F5FED2A043FF0153F4FED290432E
:101BD300FE0153F4FDD29143FE0253F4FBD2924330
:101BE300FE0453F3FDD28143FD027AAA7B0A12015C
:101BF300B712022312020B1202711201D5D083D045
:101C030082020107C082C083E91205CC000A016188
:101C13001C02311C11671C81551C84431C85371C15
:101C2300893D1C915B1CA5491CB54F1C6D1C7A7129
:101C33007B02803A7A767B0280347A7B7B02802E29
:101C43007A807B0280287A857B0280227A8A7B02D3
:101C5300801C7A8F7B0280167A947B0280107A999B
:101C63007B02800A7A9E7B0280047AA37B02D08364
:101C7300D082020107C082C08379001201CFD083D2
:101C8300D082020107EBC313FBEA13FAEAF8EBF97C
:101C930074FF28FA74FF39FB7400687003740069D9
:101CA30060120000000000000000000000000000BF
:101CB300000080D802010774F7120432EAFEEBFF3A
:101CC300EEF8EFF974FF28FE74FF39FF74006870B3
:101CD3000374006960097AE87B0312025980E17F8B
:101CE30001020498C082C083E91205960107421DD0
:101CF300031D0B1D131D1B1D231D2B1D331D3B1D01
:101D0300900101E0D2E08036900101E0D2E1802E23
:101D1300900101E0D2E28026900101E0D2E3801E2F
:101D2300900101E0D2E48016900101E0D2E5800E3B
:101D3300900101E0D2E68006900101E0D2E7F09045
:101D43000101E0F590D083D08202010774F61204FA
:101D530032740A120426E0FEA3E0FFEAF8EBF98EE0
:101D6300088F0974FF25081E74FF3509FFE5087005
:101D730002E50960358C828D83E0A3AC82AD838A52
:101D8300828B83F0A3AA82AB8370D4EEFCEFFD7445
:101D9300FF2C1E74FF3DFFEC7001ED600DE48A82A1
:101DA3008B83F0A3AA82AB8380E1E8FAE9FB7F028D
:101DB300020498748055C6FA53BEFBE59DA2E55014
:101DC300FAE59DA2E240F400740169700774494A80
:101DD300F5C68005E970028AC6E5C6FAE59EFBEA08
:101DE3006B70F943BE04020107C082C08390624A4C
:101DF300E0800DC082C083906249E0C4540F80002C
:101E0300F9D083D082020107C082C0838A828B8388
:101E13008001A3E070FCE582C39AFAE5839BFBD0C3
:0B1E230083D082020107D2AF0201074A
:04000005000000E314
:00000001FF
