:020000040000FA
:030000000200BA41
:0300130002034A9B
:030033000202BB0B
:03003B0002039924
:03004B000203EBC2
:03006B000201F59A
:03007B0002024E30
:1000830002031200000080FB120116B900030200F4
:10009300A4E4900101783479028002F0A3D8FCD95A
:1000A300FA75824E75830474001200CC75828675CE
:1000B300830074001200CC75D0007581BF751001E8
:1000C300751101759F0002008BC0F0F5F0E59F5498
:1000D30007C0E0E59F54F845F0D0F0F59FE4738541
:1000E3009FF053F0F8D0E045F0F59F22D083D08203
:1000F300E59F5407C0E0E493C0E0740193C0E0744B
:1001030002935407C0F0F5F0E59F54F845F0D0F0A2
:10011300F59F227901221200EF2C04001200EF4117
:100123000400700422600D18C6C333C608C633C664
:10013300D5E0F41822E473C0D02510C582C0E0E5F1
:100143001134FFC583C0E0E510C3958224F310AFDB
:10015300088583118582108008858311858210D2DA
:10016300AFC8F0A3E9F0A3EAF0A3EBF0A37908E7A3
:1001730009F0A3D8FAECF0A3EDF0A3EEF0A3EFF0AF
:10018300A3D0E0F0A3D0E0F0A3D0E0F0A3E520F00B
:10019300A3E5F0F0A322851183851082E0C0E0A3DC
:1001A300E0F9A3E0FAA3E0FBA37808E0F608A3DFF5
:1001B300FAE0FCA3E0FDA3E0FEA3E0FFA3E0C0E0C0
:1001C300A3E0C0E0A3E0F5D0A3E0F520A3E0A3F50E
:1001D300F010AF088583118582108008858311850F
:1001E3008210D2AFD082D083D0E0F8D0E0326380E7
:1001F3000232C0E074F112013AC2C5E58960477E5C
:1002030000750801750900EE7808120125AF08E5AD
:10021300895F602BEEC333F8E433F9740128F58268
:1002230074011202A46014EEC333F8E433F97401C9
:1002330028F58274011202AF120138EFF452890ECD
:10024300EEC3940840BB7F02020199C0E074F1122F
:10025300013AC2EBE58A60477E0075080175090023
:10026300EE7808120125AF08E58A5F602BEEC333F1
:10027300F8E433F9741128F58274011202A46014AE
:10028300EEC333F8E433F9741128F58274011202D2
:10029300AF120138EFF4528A0EEEC3940840BB80CC
:1002A300A539F583E0F8A3E0F9E8492239F583E0BD
:1002B300F8A3E0F583888222C0E074F112013AC208
:1002C300E8E58B60477E00750801750900EE780844
:1002D300120125AF08E58B5F602BEEC333F8E433DF
:1002E300F9742128F58274011202A46014EEC33359
:1002F300F8E433F9742128F58274011202AF120174
:1003030038EFF4528B0EEEC3940540BB020249C092
:10031300E074F212013AA2AFE433FEC2AFE5E9A200
:10032300E6501A90012BE0F8A3E0F9E8496008E0F1
:10033300F5838882120138759B0053E9BFEEA2E072
:1003430092AF7F01020199C0E0C0D0E8C0E0E9C0EC
:10035300E0C082C083E5C1C0E09001AEE0F8742D37
:1003630028F58274013400F583D0E0F09001ADE00C
:10037300F8A3E0687004E595A3F09001AEE004F003
:10038300C394804002E4F0D083D082D0E0F9D0E07F
:10039300F8D0D0D0E032C0E0C0D0E8C0E0C008C0A0
:1003A30009C082C083900230E0F8A3E0687008536C
:1003B3009AFBA374018026C2E9900230E0F5087429
:1003C300012508F074B02508F58274013400F58323
:1003D300E0F5C1900230E0C394804002E4F0D083A2
:1003E300D082D009D00880A6C0E0C0D0C082C0832C
:1003F300C0F053AFFE900233E004F075F00A84E5D9
:10040300F0700AD2F0A28530F001B39285E0646403
:10041300700CD2F0A28630F001B39286E4F0D0F0F3
:10042300D083D082D0D0D0E03275DAD475DB3043BC
:10043300E504D2B9D2DED2AF75E40E0200E253F383
:100443009F43FD60C285C2860200E212011F1201B2
:030453001980FE0F
:04000005000000BA3D
:00000001FF
