:020000040000FA
:030000000200BA41
:030013000203568F
:030033000202C7FF
:03003B000203A518
:03004B000201FDB2
:03006B000202018D
:03007B0002025A24
:1000830002031E00000080FB120116B900030200E8
:10009300A4E4900101783379028002F0A3D8FCD95B
:1000A300FA7582F775830374001200CC7582867526
:1000B300830074001200CC75D0007581BF751001E8
:1000C300751101759F0002008BC0F0F5F0E59F5498
:1000D30007C0E0E59F54F845F0D0F0F59FE4738541
:1000E3009FF053F0F8D0E045F0F59F22D083D08203
:1000F300E59F5407C0E0E493C0E0740193C0E0744B
:1001030002935407C0F0F5F0E59F54F845F0D0F0A2
:10011300F59F227901221200EF2E04001200EF4115
:1001230004001200EF5204001200EF700400700488
:1001330022600D18C6C333C608C633C6D5E0F4180B
:1001430022E473C0D02510C582C0E0E51134FFC599
:1001530083C0E0E510C3958224F310AF08858311B3
:100163008582108008858311858210D2AFC8F0A3E1
:10017300E9F0A3EAF0A3EBF0A37908E709F0A3D829
:10018300FAECF0A3EDF0A3EEF0A3EFF0A3D0E0F0D0
:10019300A3D0E0F0A3D0E0F0A3E520F0A3E5F0F0D6
:1001A300A322851183851082E0C0E0A3E0F9A3E0D8
:1001B300FAA3E0FBA37808E0F608A3DFFAE0FCA3C8
:1001C300E0FDA3E0FEA3E0FFA3E0C0E0A3E0C0E006
:1001D300A3E0F5D0A3E0F520A3E0A3F5F010AF086A
:1001E3008583118582108008858311858210D2AFA3
:1001F300D082D083D0E0F8D0E03263800232C0E016
:1002030074F1120146C2C5E58960477E0075080195
:10021300750900EE7808120131AF08E5895F602B9C
:10022300EEC333F8E433F9740128F5827401120242
:10023300B06014EEC333F8E433F9740128F5827423
:10024300011202BB120144EFF452890EEEC394086B
:1002530040BB7F020201A5C0E074F1120146C2EB6C
:10026300E58A60477E00750801750900EE7808127B
:100273000131AF08E58A5F602BEEC333F8E433F94D
:10028300741128F58274011202B06014EEC333F8BE
:10029300E433F9741128F58274011202BB1201448C
:1002A300EFF4528A0EEEC3940840BB80A539F58360
:1002B300E0F8A3E0F9E8492239F583E0F8A3E0F593
:1002C30083888222C0E074F1120146C2E8E58B60A4
:1002D300477E00750801750900EE7808120131AFF9
:1002E30008E58B5F602BEEC333F8E433F974212800
:1002F300F58274011202B06014EEC333F8E433F9EB
:10030300742128F58274011202BB120144EFF452E6
:100313008B0EEEC3940540BB020255C0E074F2128B
:100323000146A2AFE433FEC2AFE5E9A2E6501A905C
:10033300012BE0F8A3E0F9E8496008E0F58388823F
:10034300120144759B0053E9BFEEA2E092AF7F0117
:100353000201A5C0E0C0D0E8C0E0E9C0E0C082C0AF
:1003630083E5C1C0E09001AEE0F8742D28F58274F6
:10037300013400F583D0E0F09001ADE0F8A3E0682C
:100383007004E595A3F09001AEE004F0C3948040BF
:1003930002E4F0D083D082D0E0F9D0E0F8D0D0D01E
:1003A300E032C0E0C0D0E8C0E0C008C009C082C0ED
:1003B30083900230E0F8A3E0687008539AFBA374BB
:1003C300018026C2E9900230E0F50874012508F0A7
:1003D30074B02508F58274013400F583E0F5C1900B
:1003E3000230E0C394804002E4F0D083D082D0098D
:1003F300D00880A612011F12012B120125A28340EF
:10040300137A647B00120119800675DF0075DEE143
:10041300A28350F6A28440E57A647B00120119A2FC
:100423008440DA75DF0075DE1980F4EAF8EBF9E849
:1004330024FF1AE934FFFBE84970F00200E285F477
:10044300F443FE0153F3E753FDE7C2900200E24396
:10045300F40143F14053F5EF43FFC043FE0175E45C
:100463000275E71C75DB0075DAFA0200E243C64049
:0F047300E59EA2E650FA53C60743C6380200E2E0
:04000005000000BA3D
:00000001FF
