:020000040000FA
:030000000200E318
:030013000208C719
:0300330002083888
:03003B00020916A1
:03006B0002077217
:03007B000207CBAE
:1000830002088F00000080FB12013FB90003020049
:10009300CDE4900101786179048002F0A3D8FCD902
:1000A300FA900461AA82AB839001427803790280BB
:1000B30015E493A3AC82AD838A828B83F0A3AA82D7
:1000C300AB838C828D83D8E9D9E775826875830900
:1000D30074001200F575828675830074001200F5B2
:1000E30075D0007581BF751001751101759F0002F0
:1000F300008BC0F0F5F0E59F5407C0E0E59F54F88E
:1001030045F0D0F0F59FE473859FF053F0F8D0E00D
:1001130045F0F59F22D083D082E59F5407C0E0E4E9
:1001230093C0E0740193C0E07402935407C0F0F5E8
:10013300F0E59F54F845F0D0F0F59F22790122496C
:100143002E4F2E4C5F53797374656D3A4D5F4100AA
:100153005461726765743A4142435F5F5F00524F77
:100163004D00496E7075742050726F6772616D5FD8
:1001730031005072657373202A206F722023005F51
:100183005F205072657373202A206F722023005FF3
:100193005F5F5F6D732044656C61792020202000D0
:1001A300546172676574203A203120322033005342
:1001B300656E645F5A6F6E65203A20535F4120007D
:1001C30053656E645F5A6F6E65203A20535F422019
:1001D3000053656E645F5A6F6E65203A20535F4328
:1001E300200053656E645F4D6F6465203A203120B3
:1001F3000053656E645F4D6F6465203A20322000C2
:1002030053656E645F4D6F6465203A20332000535D
:10021300686F77205A6F6E653A4D6F646500535F60
:10022300413A00535F423A00535F433A00FF0000F4
:10023300000000000000000000000000000A0000B1
:1002430000120118EC1600120118181700120118F9
:100253003217001201183A17001201184217001240
:1002630001186B1700120118B31700120118D317E6
:1002730000120118F01700120118400A00120118A9
:10028300650B00120118A00B00120118BD0C00121F
:100293000118330D00120118F20D00120118940E0B
:1002A30000120118EE0E00120118E30F00120118DC
:1002B300C61000120118BA110012011834120012EC
:1002C30001183613001201181C1B001201180C1C14
:1002D300001201180F1C00120118121C0012011841
:1002E300B01B00120118021C00120118071C001297
:1002F30001184513001201187113001201188B1312
:10030300001201189313001201189B130012011815
:10031300C413001201181114001201183A14001228
:100323000118881400120118C01400120118A51531
:1003330000120118B41500120118C3150012011898
:10034300EF15001201186616001201188D1600121F
:100353000118B416001201184E1A00120118B91A26
:1003630000120118C91A00120118F51A0012011817
:10037300411900120118751900120118851900128C
:1003830001188F1900120118991900120118C619C2
:1003930000120118E41900120118F21900120118D1
:1003A300FB1900120118041A00120118151A001281
:1003B3000118261A001201183F1A00120118701BA7
:1003C30000120118251800120118E41B00C3E0965F
:1003D30008A3E09608A3E09608A3E096A2D265D00E
:1003E3003322E4CFC0E0E4CEC0E0E4CDC0E0E4CC0F
:1003F300C0E075F020C3E633F608E633F608E633CB
:10040300F608E633F6181818EC33FCED33FDEE333B
:10041300FEEF33FFC3EC9709ED9709EE9709EF97CA
:10042300191919400FFFEC97FC09ED97FD09EE9799
:10043300FE191906D5F0BEECF709EDF709EEF70939
:10044300EFF7191919D0E0FCD0E0FDD0E0FED0E0C1
:10045300FF221204BD1818181203E51204AC19196F
:1004630019221204AC191919080808E618181820DB
:10047300E7E01203E51204BD18181822090909E779
:1004830019191920E7DC080808E618181820E703EB
:100493000203E51204BD1818181203E51204BD186F
:1004A30018181204AC19191922E4C397F709E49731
:1004B300F709E497F709E497F722E4C396F608E40B
:1004C30096F608E496F608E496F622E0F608A3E02A
:1004D300F608A3E0F608A3E0F622E6F008A3E6F0A8
:1004E30008A3E6F008A3E6F022E0FAA3E0FBA3E00A
:1004F300FCA3E0FD22EAF0A3EBF0A3ECF0A3EDF004
:1005030022700422600D18C6C333C608C633C6D58D
:10051300E0F41822251010AF08F5104002151180E1
:1005230008F51040021511D2AF22C0D0251010AF2C
:1005330008F510500205118008F51050020511D27C
:10054300AFD0D0222510F582E43511F58322E47370
:100553002510C582C0E0E51134FFC583C0E0E51076
:10056300C3958224F810AF08858311858210800813
:10057300858311858210D2AFCEF0A3E520F0A37856
:1005830008E608F0A3DEFAEFF0A3E58124FAF8E623
:1005930008F0A3E608F0A3E608F0A30808E608F0CD
:1005A300A3E608F0A315811581D0E0FED0E0F8158D
:1005B3008115811581E8C0E0EEC0E02285118385B5
:1005C3001082E0A3FEE0A3F5207808E0A3F608DF9D
:1005D300FAE0A3FFE0A3C0E0E0A3C0E0E0A3C0E033
:1005E300E0A3C0E0E0A3C0E010AF088582108583DC
:1005F300118008858210858311D2AFD083D0820207
:10060300010BC0D02510C582C0E0E51134FFC583BE
:10061300C0E0E510C3958224F310AF0885831185EC
:1006230082108008858311858210D2AFC8F0A3E9B8
:10063300F0A3EAF0A3EBF0A37908E709F0A3D8FA53
:10064300ECF0A3EDF0A3EEF0A3EFF0A3D0E0F0A362
:10065300D0E0F0A3D0E0F0A3E520F0A3E5F0F0A311
:1006630022851183851082E0C0E0A3E0F9A3E0FABC
:10067300A3E0FBA37808E0F608A3DFFAE0FCA3E01D
:10068300FDA3E0FEA3E0FFA3E0C0E0A3E0C0E0A37E
:10069300E0F5D0A3E0F520A3E0A3F5F010AF0885C3
:1006A30083118582108008858311858210D2AFD093
:1006B30082D083D0E0F8D0E032D083D082ECC0E0A7
:1006C300EDC0E0E493A3FCE493A3FDED4C600D12B5
:1006D3000708EC24FFFCED34FFFD80EFE493A3FC5B
:1006E300E493A3FDED4C600D120747EC24FFFCEDF2
:1006F30034FFFD80EFD0E0FDD0E0FCE493A3C0E045
:10070300E493C0E022C0E0C3E49396087401939697
:1007130018400FE49366700808740193661870001C
:100723007019A3A3C3E49396087401939618A3A323
:10073300400DD0E0D0E0D0E00206F8A3A3A3A3A32A
:10074300A3D0E022C0E0C0F088F0E493667008080C
:1007530074019366187000A8F0A3A3700BD0F0D0B7
:10076300E0D0E0D0E00206F8A3A3D0F0D0E022C0AE
:10077300E074F1120605C2C5E58960477E0075087D
:1007830001750900EE7808120504AF08E5895F607A
:100793002BEEC333F8E433F9742228F58274031281
:1007A30008216014EEC333F8E433F9742228F58288
:1007B300740312082C120551EFF452890EEEC39400
:1007C3000840BB7F02020664C0E074F1120605C252
:1007D300EBE58A60477E00750801750900EE78082D
:1007E300120504AF08E58A5F602BEEC333F8E433E8
:1007F300F9743228F58274031208216014EEC333AE
:10080300F8E433F9743228F582740312082C1205C4
:1008130051EFF4528A0EEEC3940840BB80A539F51C
:1008230083E0F8A3E0F9E8492239F583E0F8A3E08F
:10083300F583888222C0E074F1120605C2E8E58BD5
:1008430060477E00750801750900EE7808120504FB
:10085300AF08E58B5F602BEEC333F8E433F97442E2
:1008630028F58274031208216014EEC333F8E433CD
:10087300F9744228F582740312082C120551EFF41F
:10088300528B0EEEC3940540BB0207C6C0E074F260
:10089300120605A2AFE433FEC2AFE5E9A2E6501AA1
:1008A30090034DE0F8A3E0F9E8496008E0F5838898
:1008B30082120551759B0053E9BFEEA2E092AF7F10
:1008C30001020664C0E0C0D0E8C0E0E9C0E0C08235
:1008D300C083E5C1C0E09003D0E0F8744F28F582EF
:1008E30074033400F583D0E0F09003CFE0F8A3E085
:1008F300687004E595A3F09003D0E004F0C39480FE
:100903004002E4F0D083D082D0E0F9D0E0F8D0D038
:10091300D0E032C0E0C0D0E8C0E0C008C009C08267
:10092300C083900452E0F8A3E0687008539AFBA3D5
:1009330074018026C2E9900452E0F5087401250889
:10094300F074D22508F58274033400F583E0F5C111
:10095300900452E0C394804002E4F0D083D082D06C
:1009630009D00880A69002027411F0A3F0A304F04A
:10097300A37401F01202C81203401202687908122C
:1009830003587A2C7B011202DA9002007422F0A33E
:10099300120A379002007433120A2F900200744433
:1009A300120A2F1202C27C617D047A0079011203BC
:1009B300527C727D047A007902120352900222E47F
:1009C300F0A3F0A3F0FE8011EEFB7A0E790212027F
:1009D300807AE87B0312036A0E120A29600AE06434
:1009E300426005E0644370051202928013740A6E3C
:1009F30070D67C807D047A0D79021203521202A410
:100A0300120A29600AE064426005E064437003123D
:100A1300029290020EE06430700312029E7A2C7BE5
:100A23000112036A80DA120D2A644122F0A37422B0
:100A3300120A3722F07A007B021202B62274F412F1
:100A4300055374FE120517E9FF90020FE4F07E01CF
:100A53001203467A2C7B0112036A7C847D047A009C
:100A63007901120352EEFB7A0E7901120280803A69
:100A730012028CE9FA90020FE0F885108285118347
:100A8300E58228F582E5833400F583E9F0740B6A87
:100A93006011120D26FB90020FE0FA790212034C4B
:100AA300120CAF7A2C7B0112036A90020FE0C394FD
:100AB3000240BD8E82AA82EAC333F8E433F974128A
:100AC30028F8740239F9851082851183E075F00ADC
:100AD300A4FC85F0097401120547E0F50AEC250A28
:100AE300FCE5093400FD88828983ECF0A3EDF07402
:100AF300022AFA74013400FB88828983E08A828B9C
:100B030083F0FA75F00AEFA42E2409F912026E7C21
:100B1300947D047A037902120352120D2664237022
:100B23000B7A647B001202DA0E120B5590020EE070
:100B3300642A700A7A647B001202DA120B557A2C4B
:100B43007B0112036AEEC394095003020A6874021C
:100B5300804390020FE4F07CA17D04FA7902120332
:100B6300522274F4120553E9FFEAFEEBFAE4FBFCAC
:100B7300FD1203C48A0A8B0BAC0AAD0B74016F70B0
:100B830006EEFA7901800974026F7007EEFA7902B2
:100B9300120352800312052D7F040205BF74F7125E
:100BA30005537CB17D047A00790212035280407AA6
:100BB3002C7B0112036A12028C12028CE9C3940A81
:100BC300502D12028CE9F890020FE0C333FAE4339C
:100BD300FB74062AF58274023BF583E8F0A3E4F084
:100BE300E8FB90020FE0FA7902120280120CAF9038
:100BF300020FE0C3940440B77A647B001202DA90D8
:100C03000206E0FAA3E0FBEA75F0E8A4CAA8F075CF
:100C1300F003A428F875F0E8EBA428FBA3E0F8A3FD
:100C2300E0F9E875F064A4F8ACF075F064E9A42C7D
:100C3300F9EA28FAEB39FBA3E0F8A3E0F9E875F049
:100C43000AA4F8ACF075F00AE9A42CF9EA28F8EB49
:100C530039F9A3E028F8A3E039F9900210E8F0A3EA
:100C6300E9F07E2875F0E8900206E0A4FAEEF912A6
:100C7300026E75F064900208E0A4FA7401120CA9E4
:100C830075F00A90020AE0A4FA7402120CA9900209
:100C93000CE0FA7403120CA9740A2EFEC3943D40AF
:100CA300C37F010205BF2EF912026E227A647B0014
:100CB3001202DA90020FE004F022C082C083120D08
:100CC300266431700479018053E064327004790240
:100CD300804AE06433700479038041E06434700433
:100CE30079048038E0643570047905802FE0643638
:100CF300700479068026E0643770047907801DE06C
:100D03006438700479088014E064397004790980C8
:100D13000BE06430700479008002790BD083D082B9
:100D230002010B120D2A22120328E990020EF0226F
:100D330074F7120553E9FE7A647B001202DA120398
:100D4300467CC27D047A007902120352EE24BF600E
:100D53000814602A14604C80727CD17D047A007977
:100D6300011203527901120DE56005E0900222F0B1
:100D7300900102E0FA7900120DDB7A2280487CE2CE
:100D83007D047A0079011203527902120DE56005A0
:100D9300E0900223F0900102E0FA7901120DDB7A70
:100DA3003380237CF37D047A0079011203527903A3
:100DB300120DE56005E0900224F0900102E0FA795B
:100DC30002120DDB7A447B221202BC7AE87B031207
:100DD300036A12029E020CA412026E79FF7C017D4B
:100DE3000122120298E9F8900102F0740368227458
:100DF300F7120553E9FE12028CE9FF74FF2FC39427
:100E03000350F37A647B001202DAEF146008146073
:100E13002B146053807874016E7008900101740183
:100E2300F0800A74026E60F374036E60EE7C047DDE
:100E3300057A00790212035279018052EEF9120207
:100E43007A74016E70089001017402F0800A7402D2
:100E53006E60F374036E60EE7C137D057A00790295
:100E63001203527902802712028674016E70089071
:100E730001017403F0800A74026E60F374036E6000
:100E8300EE7C227D057A0079021203527903020C6B
:100E9300A4C082C0831203467C317D057A007901A8
:100EA3001203527C407D057A0079021203527C457D
:100EB3007D057A0579021203527C4A7D057A0A7907
:100EC30002120352900222E0FB7A0479021202809A
:100ED300900223E0FB7A097902120280900224E057
:100EE300FB7A0E7902120280020D1F74F41205536D
:100EF30074EE1205177E00EEF9120274120FCEE99A
:100F0300F07F0075F00A74042EA42FF9120274E91D
:100F1300C0E08F088E0A750B007402780A1205046C
:100F23007406120547E582250AF8E583350BF9E8CF
:100F33002508F582E93400F583D0E0F00FEFC39480
:100F43000440C0120FCEE060678E82AC8275090048
:100F5300740278081205047406120547E582250811
:100F6300F888828983A3A3A3C082C08375F00A880B
:100F7300828983A3A3E0A4FB75F06488828983A399
:100F8300E0A4FA75F0E888828983E0A42A2BD08351
:100F9300D082F8E028FB7403120547120FC2EBF06E
:100FA300851082851183120FC2E0FAEEF91202AAAC
:100FB3000EEEC394035003020EFA7412020B98E56B
:100FC300822CF582E5833400F583228E0885108216
:100FD300851183E5822508F582E5833400F58322B4
:100FE30074F4120553E9FEEA146006146036021025
:100FF300919001027401F0EE146008146010146003
:1010030018802190010174011210B87401F090014D
:101013000174011210A27401F09001017401121005
:10102300947401F09001027402F0750A00750B00CC
:1010330075F00A7401250AA4250BF9120274850BB5
:101043000874032508F58274013400F583E9F0057B
:101053000BE50BC3940840D8050AE50AC394034083
:10106300CCEE146008146010146018802190010104
:1010730074021210B87402F090010174021210A2EB
:101083007402F090010174021210947402F0020BC6
:101093009B1210B07A447B221202BC9002242212CB
:1010A30010B07A337B221202BC90022322F079FF24
:1010B3007C017D01221210B07A227B221202BC90A5
:1010C300022222C082C0831203A61202E679017AA9
:1010D300A17B0212038E9002A1E0C2E7F0640570C7
:1010E30034790512119B5004D2F08002C2F0A2F0B1
:1010F300E433900557F09002A6E0A2E74003021103
:10110300939002A4E0F8900225E068600302119333
:10111300A37401807AE024F5900554F09002A1E0D5
:10112300F912119B5004D2F08002C2F0A2F0E43312
:10113300900557F09002A9E0F8A3E0F9900550E874
:10114300F0A3E9F090055574ABF0A37402F012110B
:10115300A974AB28F8740239F988828983E0900571
:1011630058F088828983A3E0A2E7501C90054FE0E2
:10117300F89002A4E06860109002A2E054DF64419A
:1011830070069005597401F09002A4E090054FF0A9
:101193001202EC1203AC80187AA27B0212038E9027
:1011A30002A2E0A2E522900554E0F83395E0F9228B
:1011B300D083D08202010B74F7120553EAFEEBFFD2
:1011C300120370E9640170047901804E1202EC90FD
:1011D300022CEEF0A3EFF0900555E4F0A3F090029B
:1011E3002704F090055B1204EC9002281204F81215
:1011F3001222A3A3E0F9120376121321FAA3E0FB50
:1012030012037C121222E0FAA3E0FB1203827AB0EB
:101213007B021203B21202E679007F010205BF12BC
:1012230012262290022CE0F8A3E0F5838882A3A380
:101233002274F4120553EAFEEBFF8C088D09890A28
:10124300900227E0700312039AE50AC394675005DE
:10125300850A0B8003750B671203B81203A6740B80
:10126300250B90022EF012132E90022F600474614E
:1012730080027441F0A37488F0900225E09002315B
:10128300F090022D12122CE0F8A3E0F9900232E85C
:10129300F0A3E9F0A3EEF0A3EFF0121321F8A3E01B
:1012A300F9900236E8F0A3E9F07A0080218A82A857
:1012B30082E50828F582E5093400F583E0C0E0748F
:1012C3003828F58274023400F583D0E0F00AEAC3CB
:1012D300950B40D9740A250BF97A2E7B02120388E9
:1012E3001203AC12039412132E6012900226E4F040
:1012F3007A4A7B02120364900226E060047E008037
:10130300027E01900227E070031203A0EEA2E040E8
:1013130006900225E004F0EEF97F040205BF900277
:101323002CE0F8A3E0F5838882E022121226A3A31F
:10133300A3E022C082C083900227E4F01203A0023C
:1013430011B3C082C083D2A4D2A37A027B0012035A
:1013530064C2A38002D2A47A027B00120364C2A4F3
:101363007A027B00120364D083D08202010BC08215
:10137300C083C2A37A027B00120364D2A47A027BE5
:1013830000120364D2A380D8C082C083C2A380C5E5
:10139300C082C083D2A380BD74F7120553E9FF7ED8
:1013A30008EFA2E75004D2A38002C2A3D2A4C3339E
:1013B300FF1214001EEE70E98002EEF97F010205B0
:1013C300BF74F71205537E00D2A353F5F753FFF70B
:1013D30053F7F753F77F7A027B001203647F08D237
:1013E300A4EEC333FEA2A35003D2E0FE1214001FE7
:1013F300EF70EC53F5F7D2A343FF0880BD7A027B6D
:1014030000120364C2A47A027B001203642274F7FD
:10141300120553E9FFEAFE121427EEF912146C12B7
:1014230002F880981202F279E01214707900121413
:1014330070EFF91214702274F61205531202F27946
:10144300E012146C790012146C790812146C1214E3
:10145300771202FE120310E9F5081203041202F8D0
:10146300EEAA08FB7F020205BF1214702212030AC0
:101473001202FE221202F81202F279E11214701221
:101483000310E9FE22C082C0837A62790012031638
:101493007AF779021203167A0779031203167A0090
:1014A30079041203167A0079051203167A30790E3D
:1014B3001203167A6A790012031602136A74F6127B
:1014C300055312031C8A088B0978081206BC000016
:1014D300140082002B1584002F158800331590000B
:1014E3005715A00063150201371504013B150801C8
:1014F3003F1510015B152001671502024315040215
:10150300471508024B1510025F1520026B150204E4
:101513004F15040427150804531510046F152004F0
:10152300731577157E30804E7E31804A7E32804639
:101533007E3380427E34803E7E35803A7E368036EE
:101543007E3780327E38802E7E39802A7E2A80261E
:101553007E2380227E41801E7E42801A7E43801637
:101563007E4480127E45800E7E46800A7E5580062C
:101573007E4E80027E0090034CE004F0C394C94089
:1015830008E4F07A6AF9120316EE60117AAA7B0A6C
:101593001202CE7A147B0012036A1202D4EEF9020D
:1015A300146774F7120553E9FE43FD40C286021621
:1015B3004774F7120553E9FE43FD40D286021647EE
:1015C30074F7120553EAFEEBFF890880128E828FAF
:1015D30083E0F91203348E828F83A3AE82AF83A894
:1015E3000874FF28F5080470E4021661C082C08302
:1015F30043FD40C2A07A1E121631793012032E7AAF
:101603000212163112162B12162B791012032E7991
:101613000612032E790112162D120346790C1203BA
:101623002ED083D08202010B793812163C227B0024
:1016330012036A793012163C2212032E7A027B00BF
:1016430012036A228E90D2A07A027B00120364C234
:10165300A07A507B00120364900321E0F5907F0190
:101663000205BF74F7120553798012032E7E107999
:10167300201203341EEE70F779C012032E7E107908
:10168300201203341EEE70F780D474F7120553E969
:10169300FF8A08EBFE74026F7008744025084480CB
:1016A300800474804508F912032EEEF91203348086
:1016B300AD74F612055389088A09ECFEEDFF740236
:1016C30065087008744025094480800474804509C6
:1016D300F912032EEEFAEFFB1203CAEAF9EEFAEF60
:1016E300FB12033A7F020205BFC082C083D285D2B8
:1016F300847A027B00120364C2848002D2857A0258
:101703007B00120364C2857A027B00120364D083D8
:10171300D08202010BC082C083C2847A027B001292
:101723000364D2857A027B00120364D28480D8C01A
:1017330082C083C28480C5C082C083D28480BD74CA
:10174300F7120553E9FF7E08EFA2E75004D2848025
:1017530002C284D285C333FF1217A21EEE70E98042
:1017630002EEF97F010205BF74F71205537E00D222
:101773008453F3EF53FDEF538FEF53F7DF7A027B7D
:10178300001203647F08D285EEC333FEA2845003A4
:10179300D2E0FE1217A21FEF70EC1217CA80C27AB2
:1017A300027B00120364C2857A027B001203642267
:1017B300C082C0831217CA53F3DFD28543FD207959
:1017C3000012027402171153F3EFD28443FD102267
:1017D30074F7120553E9FFEAFE121810EE12181DF2
:1017E30012024A7A057B0012036A02176674F71223
:1017F3000553E9FF12181012024479A112181E12A0
:101803000262E9FE12025612024A021764120244ED
:1018130079A012181EEF12181D22F912025C12028F
:10182300502274F012055374FB120517740112054C
:1018330047EAF0A3EBF0A3ECF0A3EDF07A557B04B9
:101843007401120547C082C08390055B78081204B7
:10185300CED083D08278081203D08510828511837D
:10186300501C7401F012054778081204CE78081250
:1018730004BD740112054778081204DD8002E4F008
:101883007401120547780C1204CE90055F78081294
:1018930004CE780C790812047FE50824308A828B01
:1018A30083F0A3AA82AB837401120547780C120458
:1018B300CE90055F78081204CE780C790812047F65
:1018C3007401120547780C1204DD74011205477880
:1018D300081204CEE5084509450A450B70A2851098
:1018E30082851183E0A2E0500B8A828B83742DF0F2
:1018F300A30AAB838A828B83E41219377855790460
:10190300801D8A828B83E0FC88828983E08A828BB4
:1019130083121937EC88828983F0A3A882A983C331
:10192300E89AE99B40DC7A557B04740512052D7F08
:10193300080205BFF0EA24FF1AEB34FFFB22C08242
:10194300C083906189E04460F090619074D5F09019
:1019530061FA7409F09061B27415F09061AEE4F02D
:101963001203AC79008004F0EBA3F0D083D08202A1
:10197300010BC082C08375F005E9A424D490618F64
:1019830080E8C082C083EA90617480DBC082C08338
:10199300EA90617280D174F612055375E1EE759188
:1019A300FD780080031219B5E8C39940F87F02025D
:1019B30005BF8808EA2508F582EB3400F583E0F5D6
:1019C300D90822C082C083800DE5D98A828B83F037
:1019D300A3AA82AB8319E970F002196E79000201A0
:1019E3000B75E1E9E591A2E150FA7591FD80ED7582
:1019F300E1EC75E1E302010B75E1EF75E1EC020146
:101A03000BC082C0839061A3E0C2E6F0539AFE024A
:101A1300196EC082C0839061A3E0D2E6F0439A01BD
:101A230002196EC082C083E5A8F8C2AF90034DEAE5
:101A3300F0A3EBF0E8A2E792AF02196EC082C08375
:101A4300906193E0542270F802196EC082C083E95A
:101A530014601714601C14602114602614602B1486
:101A6300603014603514603A803F900321E0D2E087
:101A73008036900321E0D2E1802E900321E0D2E270
:101A83008026900321E0D2E3801E900321E0D2E47C
:101A93008016900321E0D2E5800E900321E0D2E688
:101AA3008006900321E0D2E7F0900321E0F590D087
:101AB30083D08202010BC082C08379001202E0D07E
:101AC30083D08202010BEBC313FBEA13FAEAF8EBB0
:101AD300F9E824FFFAE934FFFBE84960120000004B
:101AE3000000000000000000000000000080DE0293
:101AF300010B74F7120553EAFEEBFFEEF8EFF9E87A
:101B030024FFFEE934FFFFE84960097AE87B03120A
:101B1300036480E77F010205BFC082C08312035EB6
:101B230053F5EFD2A443FF1053F5F7D2A343FF08B5
:101B330053F5F753FFF743F70853F5FEC2A043FFEE
:101B43000153F3BFC28643FD4075F4007590FF75E2
:101B5300FEFF900321E4F07590001203401203226C
:101B63001203BE1202E6D083D08202010BC082C0F0
:101B73008353F1FE43F30C53F2F375868075C480EF
:101B830075C2D875C50B75C402438640D2AA75C108
:101B9300009003CFE4F0A3F0900452F0A3F090037D
:101BA300D1F0900454F0D083D08202010BE5C654E7
:101BB30080F853BEFBE59DA2E550FAE59DA2E24005
:101BC300F4007401697007744948F5C68005E9702B
:101BD3000288C6E5C6F8E59E6870FB43BE040201B1
:101BE3000BC082C0838A828B838001A3E070FCE5F3
:101BF30082C39AFAE5839BFBD083D08202010BD286
:101C0300AF02010BC2AF02010B02010B02010B0277
:021C1300010BC3
:04000005000000E314
:00000001FF
