:020000040000FA
:030000000200E318
:03001300020EAE2C
:03003300020E19A1
:03003B00020F04AD
:03004B00020D5350
:03006B00020D5D26
:03007B00020DB7BC
:10008300020E7100000080FB120137B90003020069
:10009300CDE4900101785779028002F0A3D8FCD90E
:1000A300FA900257AA82AB8390013A78757901805E
:1000B30015E493A3AC82AD838A828B83F0A3AA82D7
:1000C300AB838C828D83D8E9D9E77582D675831784
:1000D30074001200F575828675830074001200F5B2
:1000E30075D0007581BF751001751101759F0002F0
:1000F300008BF5F0E59F5407C0E0E59F54F845F009
:10010300F59FE473859FF053F0F8D0E045F0F59F39
:1001130022D083D082E59F5407C0E0E493C0E0740B
:100123000193C0E07402935407F5F0E59F54F8453A
:10013300F0F59F22790122000000002A2A204D3287
:100143003230205465737420202A2A003031323330
:1001530034353637383941424344454632343230F8
:100163000032343330003234333100323532300030
:1001730032353330003235333100323531300032ED
:1001830035313100313131300031313131002D2DF4
:100193002D2D000A0000002A2A204343787878781E
:1001A30020282029202A2A00000000120114E21826
:1001B300001201140C19001201141F19001201146A
:1001C3003719001201147A1900120114CA1B001204
:1001D3000114EC19001201142E1A00120114651AED
:1001E300001201146F1A00120114751C001201147D
:1001F300E81C00120114991200120114B912001222
:100203000114DA1200120114F9120012011401137D
:1002130000120114271300120114681300120114B1
:10022300911300120114DE130012011416140012AC
:1002330001145C0F001201148C0F00120114BC0F87
:10024300001201143310001201145F100012011484
:100253007E1000120114A5100012011440110012A7
:1002630001147F1100120114D71100120114FB1A9B
:10027300001201148C1A001201149C1A00120114AA
:10028300CE1A00120114AB1C00120114B51C00128B
:1002930001142D1C00120114FD14001201146E151B
:1002A300001201149C16001201145C1700120114B1
:1002B300CA1C00120114631B00E066701008A3E05F
:1002C30066700A08A3E066700408A3E06622C3E030
:1002D3009608A3E09608A3E09608A3E096A2D26549
:1002E300D03322E4CFC0E0E4CEC0E0E4CDC0E0E40C
:1002F300CCC0E075F020C3E633F608E633F608E633
:1003030033F608E633F6181818EC33FCED33FDEE3C
:1003130033FEEF33FFC3EC9709ED9709EE9709EF2F
:1003230097191919400FFFEC97FC09ED97FD09EE9A
:1003330097FE191906D5F0BEECF709EDF709EEF7AC
:1003430009EFF7191919D0E0FCD0E0FDD0E0FED099
:10035300E0FF221203BE1818181202E61203AD19A9
:100363001919221203AD191919080808E6181818E3
:1003730020E7E01202E61203BE1818182209090941
:10038300E719191920E7DC080808E618181820E708
:10039300030202E61203BE1818181202E61203BE85
:1003A3001818181203AD19191922E4C397F709E4B1
:1003B30097F709E497F709E497F722E4C396F60859
:1003C300E496F608E496F608E496F622E0F608A327
:1003D300E0F608A3E0F608A3E0F622E6F008A3E6B9
:1003E300F008A3E6F008A3E6F022CAC0E0E6F0A313
:1003F30008DAFAD0E0FA22CAC0E0E0A3C582CCC58D
:1004030082C583CDC583F0A3C582CCC582C583CD08
:10041300C583DAE6D0E0CA22600D08C6A2E713C698
:1004230018C613C6D5E0F322600C08C6C313C6185A
:10043300C613C6D5E0F422700422600D18C6C33378
:10044300C608C633C6D5E0F41822251010AF08F548
:1004530010400215118008F51040021511D2AF2289
:10046300C0D0251010AF08F510500205118008F513
:100473001050020511D2AFD0D0222510F58210AF53
:1004830008F510400215118008F51040021511D22D
:10049300AF851183222510F582E43511F58322E41B
:1004A300732510C582C0E0E51134FFC583C0E0E5C4
:1004B30010C3958224F8F8E4C5A8858311858210BA
:1004C300C5A8E8CEF0A3E520F0A37808E608F0A3DA
:1004D300DEFAEFF0A3E58124FAF8E608F0A3E608D4
:1004E300F0A3E608F0A30808E608F0A3E608F0A3E3
:1004F30015811581D0E0FED0E0F8158115811581B5
:10050300E8C0E0EEC0E022851183851082E0A3FEFF
:10051300E0A3F5207808E0A3F608DFFAE0A3FFE004
:10052300A3C0E0E0A3C0E0E0A3C0E0E0A3C0E0E03C
:10053300A3C0E0E4C5A8858210858311C5A8D08334
:10054300D082020107C0D02510C582C0E0E5113476
:10055300FFC583C0E0E510C3958224F310AF08857F
:1005630083118582108008858311858210D2AFC8DC
:10057300F0A3E9F0A3EAF0A3EBF0A37908E709F00D
:10058300A3D8FAECF0A3EDF0A3EEF0A3EFF0A3D021
:10059300E0F0A3D0E0F0A3D0E0F0A3E520F0A3E5E2
:1005A300F0F0A322851183851082E0C0E0A3E0F977
:1005B300A3E0FAA3E0FBA37808E0F608A3DFFAE0E0
:1005C300FCA3E0FDA3E0FEA3E0FFA3E0C0E0A3E003
:1005D300C0E0A3E0F5D0A3E0F520A3E0A3F5F0E4A9
:1005E300C5A8858311858210C5A8D082D083D0E0A9
:1005F300F8D0E03274028000C0E0F40412047DD02D
:10060300E01203ED22D083D082C5F0E493A3C5F0BA
:10061300C395F0F5F0E493A3C395F04005E5F0042A
:100623008001E475F002A42582F582E5F03583F5B7
:1006330083E493A3C0E0E493C0E022D083D082CCD0
:10064300C0E0E493A360061206681470FAE493A36F
:1006530060061206871470FAD0E0FCE493A3C0E0AE
:10066300E493C0E022C0E0E493A3D39C5010E4934E
:10067300A3C39C400AD0E0D0E0D0E002065BA3A372
:10068300A3D0E022C0E0E493A36C7009D0E0D0E0F3
:10069300D0E002065BA3A3D0E022D083D082ECC0DB
:1006A300E0EDC0E0E493A3FCE493A3FDED4C600D07
:1006B3001206E9EC24FFFCED34FFFD80EFE493A385
:1006C300FCE493A3FDED4C600D120728EC24FFFC22
:1006D300ED34FFFD80EFD0E0FDD0E0FCE493A3C058
:1006E300E0E493C0E022C0E0C3E49396087401936E
:1006F3009618400FE49366700808740193661870A7
:10070300007019A3A3C3E49396087401939618A3E6
:10071300A3400DD0E0D0E0D0E00206D9A3A3A3A369
:10072300A3A3D0E022C0E0C0F088F0E49366700891
:100733000874019366187000A8F0A3A3700BD0F09F
:10074300D0E0D0E0D0E00206D9A3A3D0F0D0E022DD
:100753000000000000000000000000000000000096
:10076300000070F8F87000000000000D0D0000009C
:10077300001C3C0000003C1C0000000000000000C6
:100783000020F8F820F8F82000020F0F020F0F02E4
:100793000070F8888E8E983000060C0838380F07E2
:1007A300006060000080C06000080C0603010C0CB0
:1007B3000000B0F8C878B08000070F0809070F08D9
:1007C30000203C1C000000000000000000000000AE
:1007D3000000E0F018080000000003070C08000008
:1007E3000000000818F0E000000000080C070300F8
:1007F30080A0E0C0C0E0A08000020301010302006A
:10080300808080F0F08080800000000707000000F7
:1008130000000000000000000000101E0E00000099
:100823008080808080808000000000000000000045
:1008330000000000000000000000000C0C0000009D
:1008430000000080C06030180006030100000000B3
:1008530000F0F888C868F8F000070F0908080F07C8
:1008630000002030F8F80000000008080F0F080807
:100873000010180888C87830000C0E0B09080C0CFF
:10088300001018888888F87000040C0808080F07FF
:100893000080C06030F8F80000010101090F0F0962
:1008A30000F8F8888888880800040C0808080F07EF
:1008B30000E0F0988888800000070F0808080F07F9
:1008C3000018180888C878380000000F0F000000CF
:1008D3000070F8888888F87000070F0808080F0769
:1008E3000070F8888888F8F000000808080C0703EF
:1008F3000000003030000000000000060600000089
:1009030000000030300000000000080E0600000068
:100913000080C0603018080000000103060C0800C6
:100923000040404040404000000202020202020038
:100933000008183060C0800000080C0603010000A6
:100943000030380888C87830000000000D0D000022
:1009530000F0F808C8C8F8F000070F080B0B0B01EC
:1009630000C0E0301830E0C0000F0F0101010F0F8D
:100973000008F8F88888F87000080F0F08080F07B8
:1009830000E0F018080818300003070C08080C06EC
:100993000008F8F80818F0E000080F0F080C070328
:1009A3000008F8F888C8183800080F0F08090C0E5B
:1009B3000008F8F888C8183800080F0F080100006D
:1009C30000E0F018080818300003070C0909070FA6
:1009D30000F8F8808080F8F8000F0F0000000F0F78
:1009E300000008F8F80800000000080F0F080000D6
:1009F3000000000008F8F80800060E08080F0700BA
:100A03000008F8F880E0781800080F0F00030F0CB7
:100A13000008F8F80800000000080F0F08080C0E83
:100A230000F8F8306030F8F8000F0F0000000F0FE7
:100A330000F8F870E0C0F8F8000F0F0000010F0F86
:100A430000E0F0180818F0E00003070C080C070397
:100A53000008F8F88888F87000080F0F08000000F5
:100A630000F0F8080808F8F000030704071E1F1336
:100A73000008F8F88888F87000080F0F00010F0EBF
:100A8300003078C88888383000060E0808090F0639
:100A9300180808F8F80808180000080F0F080000E5
:100AA30000F8F8000000F8F800070F0808080F071F
:100AB30000F8F8000000F8F8000103060C06030133
:100AC30000F8F8000000F8F8000F0F0603060F0FF8
:100AD300003878C080C07838000E0F0100010F0E77
:100AE300003878C080C078380000080F0F0F080066
:100AF30000381888C8683818000E0F0908080C0E4B
:100B03000000F8F80808000000000F0F08080000B4
:100B1300003870E0C0800000000000000103070EF1
:100B230000000808F8F80000000008080F0F000094
:100B33000010180C060C1810000000000000000044
:100B430000000000000000000020202020202000E2
:100B5300000000060E080000000000000000000076
:100B63000000404040C0800000060F0909070F083D
:100B73000008F8F840C0800000080F0708080F07B6
:100B83000080C0404040C08000070F0808080C04E4
:100B9300000080C048F8F80000070F0808070F0896
:100BA3000080C0404040C08000070F0909090D05BF
:100BB3000080F0F88898300000080F0F080000004C
:100BC3000080C0404080C04000133724243F1F00F2
:100BD3000008F8F88040C08000080F0F00000F0FD6
:100BE30000000040D8D80000000000080F0F0800E4
:100BF3000000000040D8D80000183820203F1F0014
:100C03000008F8F80080C04000080F0F01030E0C25
:100C130000000008F8F80000000000080F0F0800AB
:100C23000080C0808080C080000F0F000F000F0F76
:100C33000040C0804040C08000000F0F00000F0F35
:100C43000080C0404040C08000070F0808080F071D
:100C53000040C0804040C08000203F3F2404070381
:100C63000080C0404080C04000030704243F3F2071
:100C73000040C080C040C08000080F0F0800010181
:100C83000080C0404040C08000040D090B0A0E04E0
:100C9300004040F0F8404000000000070F080C043B
:100CA30000C0C00000C0C00000070F0808070F08FD
:100CB30000C0C0000000C0C0000103060C06030111
:100CC30000C0C0000000C0C000070F0C060C0F07D7
:100CD3000040C0800080C04000080C0703070C08D8
:100CE30000C0C0000000C0C00003272424341F0F2D
:100CF30000C0C04040C0C04000080C0E0B090C0CE3
:100D0300008080F078080800000000070F08080042
:100D130000000078780000000000000F0F000000C2
:100D230000080878F08080000008080F0700000022
:100D33000010180818101808000000000000000038
:100D43000000000E0A0E000000000000000000007A
:100D5300C0E0638002E580D0E032C0E074F11205A8
:100D630048C2C5E58960487E00750801750900EE33
:100D7300780812043AAF08E5895F602CEEC333F8B4
:100D8300E433F9E82408F582E93401F583E07002DD
:100D9300A3E0600EE82408F582E93401120E0E1276
:100DA30004A2EFF45589F5890EEEC3940840BA7F87
:100DB300020205A7C0E074F1120548C2EBE58A60A0
:100DC300487E00750801750900EE780812043AAFF1
:100DD30008E58A5F602CEEC333F8E433F9E824189E
:100DE300F582E93401F583E07002A3E0600EE824A4
:100DF30018F582E93401120E0E1204A2EFF4558A9B
:100E0300F58A0EEEC3940840BA80A4F583E0F8A3F4
:100E1300E0F583888222C0E074F1120548C2E8E558
:100E23008B60487E00750801750900EE780812048E
:100E33003AAF08E58B5F602CEEC333F8E433F9E88F
:100E43002428F582E93401F583E07002A3E0600E03
:100E5300E82428F582E93401120E0E1204A2EFF4FD
:100E6300558BF58B0EEEC3940540BA020DB2C0E06C
:100E730074F2120548A2AFE492E0FEC2AFE5E9A224
:100E8300E6501E900143E07002A3E0600E90014320
:100E9300E0F8A3E0F58388821204A2759B0053E96E
:100EA300BFEEA2E092AF7F010205A7C0E0C0D0E889
:100EB300C0E0E9C0E0EAC0E0C082C083E5C1C0E0B1
:100EC3009001C6E02445F582E43401F583D0E0F0D7
:100ED3009001C5E0FA9001C6E06A7006E5959001BD
:100EE300C7F09001C6E004F0C394804002E4F0D060
:100EF30083D082D0E0FAD0E0F9D0E0F8D0D0D0E0CF
:100F030032C0E0C0D0EAC0E0C008C009C082C083DC
:100F1300900248E0FA900249E06A700A539AFB741F
:100F23000190024A8025C2E9900248E0F508740165
:100F33002508F0E50824C8F582E43401F583E0F5DB
:100F4300C1900248E0C394804002E4F0D083D08291
:100F5300D009D008D0E0FA80A374F61204A4C2909A
:100F6300C2A07A00750880750900EA780812041B8C
:100F7300E508596004D2928002C292C291D2910ACA
:100F8300EAC3940840DE02108374F61204A4D290DC
:100F9300C2A07A00750880750900EA780812041B5C
:100FA300E508596004D2928002C292C291D2910A9A
:100FB300EAC3940840DE021083C082C08379E21240
:100FC30002327A057B0012028079E21202327A053C
:100FD3007B0012102612102612028079F8120232B8
:100FE300790112023279A31202327926120232797E
:100FF30081120232792012023279C012023279A1AF
:1010030012023279A612023279AF1202327A147BBB
:1010130000120280794012023212024AD083D08237
:10102300020107120280792F1202327A027B002218
:1010330074F71204A4E9C33324AEF5087F02A908A8
:10104300120232050812109A7E8079001202381EAD
:10105300EE70F71FEF70E77F0102050A74F71204C1
:10106300A47FB0EF1210927E8079001202381EEE38
:1010730070F70FEFC394B840EA80DC7910020107E0
:10108300D2A0D292900107E0F5907F0202050AF9FF
:1010930012023212109A22791012023279041202C9
:1010A300322274F31204A4E9C33324AEF50AEA33FB
:1010B300333354F82404FAC4540F4410F50B740F5B
:1010C3005AF50CEBC394204006EBC3948040027B9B
:1010D300208B0874E02508F50874FF3400F50974C3
:1010E30004780812043AAE08AF09121124A90A12AF
:1010F3000232750800801174086508700B740125AD
:101103000AF9120232121124EE2453F582EF340746
:1011130012112F0508E508C3941040DB7F05020573
:101123000AA90B120232A90C12023222F583E493AC
:10113300F9120238EE24010EEF3400FF2274F2128A
:1011430004A4E9FF8A088C0C8D0DAA0CAB0D1202C6
:10115300B0EAF5097E0080128E0AE50C250AF582B5
:10116300E50D3400F583E0121178EEC3950940E8EC
:101173007F0602050AFBEE1212750E2274F61204A4
:10118300A4EA7001EB60337C008A828B83E06015F4
:10119300C0E08C081211C0D0E0F08A828B83A3AA2E
:1011A30082AB8380058C081211D00CECC3941040E1
:1011B300D87C337D017A0012025C02108D1211C4B7
:1011C30022E5082433F582E43401F583221211C4A5
:1011D3007420F02274F21204A4E9FEEAFF8C0A8D53
:1011E3000BEB703C750800AA0AAB0B7C007D001268
:1011F300029E8A0C8B0D8011FB12126D850C828569
:101203000D83A385820C85830D850C82850D83E078
:1012130070E6E508C39405503E7B2012126D80F200
:1012230074016B70328C088D09740C780812042BCE
:10123300E50812125D120256740F550B12125D74FB
:1012430001121261E50A12127B74022FFAEEF912EF
:10125300128E74031212610211731212822212127D
:1012630065222FFAEEF912025622E50812126505DD
:1012730008222508FAEF80EDC4540F1212822224AB
:101283006CF582E43402F583E0FB22120256740FFC
:10129300550A12128222C082C083D2A4D2A37A0238
:1012A3007B0012027AC2A31212E480031212E2D06C
:1012B30083D082020107C082C083C2A37A027B006B
:1012C30012027AD2A47A027B0012027AD2A37A02A1
:1012D3007B0012027A80D8C082C083C2A380CDD2A1
:1012E300A41212E8227A027B0012027AC2A47A02C2
:1012F3007B0012027A22C082C083D2A380AE74F72D
:101303001204A4E9FF7E08EFA2E75004D2A38002EF
:10131300C2A3D2A4C333FF12136270EB8001F97F1F
:101323000102050A74F71204A47F00D2A353F5F750
:1013330053FFF753F7F753F77F7A027B0012027AD2
:101343007E08D2A4EFC333FFA2A35003D2E0FF125F
:10135300136270EE53F5F7D2A343FF08EF80BF1279
:1013630012E81EEE2274F71204A4E9FEEAFF121338
:101373007EEFF91213C21201FC80A41201F679E088
:101383001213C679001213C6EEF91213C62274F7AC
:101393001204A41201F679E01213C279001213C2E7
:1013A30079081213C21213CD120202EEFF120214B5
:1013B300E9FE1202081201FCEEFAEFFB02132212FD
:1013C30013C62212020E120202221201FC1201F6AD
:1013D30079E11213C6120214E9FE22C082C0837A95
:1013E30062790012021A7AF7790212021A7A0779DD
:1013F3000312021A7A00790412021A7A007905128A
:10140300021A7A30790E12021A7A6A790012021AD3
:101413000212B274F61204A41202208A088B09780D
:101423000812069D000014008200811484008514B4
:10143300880089149000AD14A000B91402018D1422
:1014430004019114080195141001B1142001BD1475
:101453000202991404029D140802A1141002B51487
:101463002002C1140204A51404047D140804A91461
:101473001004C5142004C914CD147E30804E7E316F
:10148300804A7E3280467E3380427E34803E7E3583
:10149300803A7E3680367E3780327E38802E7E39A3
:1014A300802A7E2A80267E2380227E41801E7E42E1
:1014B300801A7E4380167E4480127E45800E7E46CF
:1014C300800A7E5580067E4E80027E00900132E0C7
:1014D30004F0C394C94008E4F07A6AF912021AEEE0
:1014E30060117AAA7B0A1201D87A147B0012028057
:1014F3001201DEEEF97F0202050AC082C083E912FF
:10150300063E000A015715022715115D15814B157B
:10151300843915852D15893315915115A53F15B5B9
:10152300451563157A7C7B02803A7A817B0280348D
:101533007A867B02802E7A8B7B0280287A907B02CC
:1015430080227A957B02801C7A9A7B0280167A9F8E
:101553007B0280107AA47B02800A7AA97B02800432
:101563007AAE7B02D083D08202010774F01204A406
:1015730074FB12044D7401120498EAF0A3EBF0A378
:10158300ECF0A3EDF07A4B7B027401120498C08255
:10159300C08390025778081203CFD083D082780893
:1015A3001202D150227401851082851183F0120436
:1015B3009878081203CF78081203BE7401120498B6
:1015C30078081203DE8008E4851082851183F074A5
:1015D30001120498780C1203CF9002B37808120317
:1015E300CF780C7908120380E50824308A828B8334
:1015F300F0A3AA82AB837401120498780C1203CF70
:101603009002B378081203CF780C79081203807420
:1016130001120498780C1203DE7401120498C0823C
:10162300C08390025778081203CFD083D082780802
:101633001202BC709A851082851183E0600B742DB1
:101643008A828B83F0A30AAB83E48A828B83F0EADA
:1016530024FF1AEB34FFFB784B7902801612168BAA
:10166300EA24FF1AEB34FFFBEC88828983F0A3A8FA
:1016730082A983C3E89AE99B40E37A4B7B02740512
:101683001204637F0802050A8A828B83E0FC888246
:101693008983E08A828B83F02274F61204A48A0879
:1016A3008B09EA7001EB700579000217D17F007E88
:1016B300018036EE60337902120244121743E0FCD4
:1016C300A3E0FD7A03790212025C7B3C7A00790283
:1016D300120256120250E914FA7B3E7902120256A4
:1016E3007E007A647B001202807A647B001202809F
:1016F30012022CE9FA74236A70107AC87B00120272
:1017030080121743A3A3E0F980A0744E6A70177484
:10171300012FC0E0850882850983A3A3E0F5F0D0FB
:10172300E084AFF0809074556A7088EF700E85087E
:1017330082850983A3A3E014FF0216B91F0216B919
:10174300EF75F003A4F8A9F0850882850983E028E2
:10175300FAA3E0398A82F5832274F61204A474ECA6
:1017630012044DEAFEEBFF851082851183AC82AD36
:10177300837583027582B774141203FA750804F52E
:101783000978081205F7120286120298EAFCEBFDAB
:101793007407120498AA82AB831202B6740212046D
:1017A3006312028CE92430C0E0740B120498D0E079
:1017B300F0851082851183AA82AB837901120262BC
:1017C300EEFAEFFB790212026274141204637F02D1
:1017D30002050A1201CC790812026E7A5B7B0212AF
:1017E30002AA7A2C7B011202807A2C7B011201E47B
:1017F30012022CE960FA7A007B001202A412024A58
:101803007A2C7B011201E41201C07A5B7B0279011D
:1018130012026280417B2B7A0C79021202569001EC
:10182300011218CB7A01790212026890010312188F
:10183300CB7A0779021202689001051218CB7A0D50
:10184300790212026812022CE9FE7AC87B001202A6
:1018530080742A6E60A71201C6900102E05480F9D9
:10186300E47001E9600E9001011218D39001011296
:1018730018C380027B2B7A0079021202569001046E
:10188300E05480F9E47001E9600E9001031218D36B
:101893009001031218C380027B2B7A06790212028D
:1018A30056900106E05480F9E47001E970030218D0
:1018B300189001051218D39001051218C302181AC3
:1018C300E8F0A3E9F07B2D22E0FCA3E0FD7B0022FE
:1018D300E0F8A3E0F974FFC398F874FF99F922E9DB
:1018E300FB7A08C285EBA2E75004D2848002C2844B
:1018F300C333FBE9C333F9D285A2865003D2E0F99F
:101903001AEA70DFD28402010774F71204A4E9FE15
:10191300C28774802EF912192A02050A74F7120479
:10192300A4EAFEC28780EF1201AEEEF91201AED235
:10193300877F0122C082C08353F3BF53FDBF538F00
:10194300BF53F7DF53F3EFD28443FD1053F3DFD2DA
:101953008543FD2053F37FD28743FD80D287D28412
:10196300D2857A0B79311201BA7A08792D1201BA2C
:10197300D083D08202010774F71204A479331201D1
:10198300B4E9900101F0A3E4F0900101E0FF7932A2
:101993001219E1900101E8F0A3E9F079351201B4DD
:1019A300E9900103F0A3E4F0900103E0FF7934121E
:1019B30019E1900103E8F0A3E9F079371201B4E9E2
:1019C300900105F0A3E4F0900105E0FF79361219C8
:1019D300E1900105E8F0A3E9F07F0102050A120195
:1019E300B4E92400F8E43FF92274F01204A443E4B8
:1019F3000CE5E4750C48750DE8750E01750F008A4A
:101A0300088B09750A00750B00780C79081203809E
:101A1300850D09E509F5DBE50CF5DA75E54453E4D5
:101A2300EF53E4FDC2B97F0802050A74F01204A45F
:101A330075E200750C48750DE8750E01750F008A87
:101A4300088B09750A00750B00780C79081203805E
:101A5300850D09E509F5DBE50CF5DA43E402D2B9B6
:101A630080C453E4FDC2B9D281020107C082C0839E
:101A730075E20043E402D2B912028053E4FDC2B915
:101A8300D281D083D082020107C082C08379001241
:101A930001EAD083D082020107EBC313FBEA13FAF6
:101AA300EAF8EBF974FF28FA74FF39FB74006870E5
:101AB30003740069601200000000000000000000D1
:101AC30000000000000080D802010774F71204A48C
:101AD300EAFEEBFFEEF8EFF974FF28FE74FF39FF1F
:101AE300740068700374006960097AE87B0312026A
:101AF3007A80E17F0102050AC082C083E9120608E9
:101B03000107561B171B1F1B271B2F1B371B3F1BB5
:101B1300471B4F1B900107E0D2E08036900107E09E
:101B2300D2E1802E900107E0D2E28026900107E007
:101B3300D2E3801E900107E0D2E48016900107E013
:101B4300D2E5800E900107E0D2E68006900107E01F
:101B5300D2E7F0900107E0F590D083D0820201072D
:101B630074F61204A4740A120498E0FEA3E0FFEAD8
:101B7300F8EBF98E088F0974FF25081E74FF3509E9
:101B8300FFE5087002E50960358C828D83E0A3AC24
:101B930082AD838A828B83F0A3AA82AB8370D4EE57
:101BA300FCEFFD74FF2C1E74FF3DFFEC7001ED6034
:101BB3000DE48A828B83F0A3AA82AB8380E1E8FAE7
:101BC300E9FB7F0202050AC082C08312027453F547
:101BD300EFD2A443FF1053F5F7D2A343FF0853F505
:101BE300F753FFF743F70853F5FEC2A043FF015332
:101BF300F3BFC28643FD4075F4007590FF75FEFF89
:101C030053F3FDD28143FD027AAA7B0A1201D2E487
:101C1300900107F075900012023E12022612029202
:101C23001201F0D083D082020107C082C08353F136
:101C3300FE43F30CE5F353F2F3E5F275868075C4C6
:101C43008075C2D875C50B75C402438640D2AA7588
:101C5300C100E49001C5F09001C6F0900248F090F5
:101C63000249F09001C7F090024AF0D083D082027B
:101C73000107748055C6FA53BEFBE59DA2E550FAF1
:101C8300E59DA2E240F400740169700774494AF5C6
:101C9300C68005E970028AC6E5C6FAE59EFBEA6BD3
:101CA30070F943BE04020107C082C08390624AE018
:101CB300800DC082C083906249E0C4540F8000F954
:101CC300D083D082020107C082C0838A828B838043
:101CD30001A3E070FCE582C39AFAE5839BFBD08302
:0A1CE300D082020107D2AF02010710
:04000005000000E314
:00000001FF
