:020000040000FA
:030000000200E318
:030013000208A838
:03003300020813AD
:03003B000208FEBA
:03004B0002074D5C
:03006B0002075732
:03007B000207B1C8
:1000830002086B00000080FB120137B90003020075
:10009300CDE4900101785579028002F0A3D8FCD910
:1000A300FA900255AA82AB8390013A787F79018056
:1000B30015E493A3AC82AD838A828B83F0A3AA82D7
:1000C300AB838C828D83D8E9D9E775821975831246
:1000D30074001200F575828675830074001200F5B2
:1000E30075D0007581BF751001751101759F0002F0
:1000F300008BF5F0E59F5407C0E0E59F54F845F009
:10010300F59FE473859FF053F0F8D0E045F0F59F39
:1001130022D083D082E59F5407C0E0E493C0E0740B
:100123000193C0E07402935407F5F0E59F54F8453A
:10013300F0F59F22790122000000002A2A204D3287
:100143003630205465737420202A2A0020205261FF
:100153007465203D20003031323334353637383939
:100163004142434445463234323000323433300066
:1001730032343331003235323000323533300032ED
:1001830035333100323531300032353131003131E0
:1001930031300031313131002D2D2D2D000A000079
:1001A300002A2A2043437878787820282029202A97
:1001B3002A000000001201141A1100120114651123
:1001C300001201146B11001201149A14001201148D
:1001D300BC1200120114FE12001201143513001296
:1001E30001143F1300120114451500120114B81530
:1001F30000120114DD0B00120114FD0B0012011497
:100203001E0C001201143D0C00120114450C0012C7
:1002130001146B0C00120114AC0C00120114D50C68
:1002230000120114220D001201145A0D00120114C0
:100233005609001201146909001201148F090012F2
:100243000114BB0900120114D609001201142A0A71
:1002530000120114560A001201147D0A001201143F
:10026300820A00120114A30A00120114CB0A00121D
:100273000114230B00120114CB13001201145C139D
:10028300001201146C13001201149E1300120114C6
:100293007B1500120114851500120114FD140012C0
:1002A3000114410E00120114B20E00120114E00FEA
:1002B30000120114A010001201149A150012011467
:1002C300331400E066701008A3E066700A08A3E028
:1002D30066700408A3E06622C3E09608A3E09608CC
:1002E300A3E09608A3E096A2D265D03322E4CFC060
:1002F300E0E4CEC0E0E4CDC0E0E4CCC0E075F020A3
:10030300C3E633F608E633F608E633F608E633F6D3
:10031300181818EC33FCED33FDEE33FEEF33FFC357
:10032300EC9709ED9709EE9709EF97191919400F03
:10033300FFEC97FC09ED97FD09EE97FE191906D519
:10034300F0BEECF709EDF709EEF709EFF719191904
:10035300D0E0FCD0E0FDD0E0FED0E0FF221203C8E5
:100363001818181202F01203B7191919221203B739
:10037300191919080808E618181820E7E01202F0FE
:100383001203C818181822090909E719191920E7CF
:10039300DC080808E618181820E7030202F0120325
:1003A300C81818181202F01203C81818181203B745
:1003B30019191922E4C397F709E497F709E497F7A2
:1003C30009E497F722E4C396F608E496F608E49660
:1003D300F608E496F622E0F608A3E0F608A3E0F6B2
:1003E30008A3E0F622E6F008A3E6F008A3E6F00887
:1003F300A3E6F022CAC0E0E6F0A308DAFAD0E0FAF6
:1004030022CAC0E0E0A3C582CCC582C583CDC58323
:10041300F0A3C582CCC582C583CDC583DAE6D0E01F
:10042300CA22600C08C6C313C618C613C6D5E0F4A7
:1004330022700422600D18C6C333C608C633C6D55E
:10044300E0F41822251010AF08F5104002151180B2
:1004530008F51040021511D2AF22C0D0251010AFFD
:1004630008F510500205118008F51050020511D24D
:10047300AFD0D0222510F58210AF08F51040021539
:10048300118008F51040021511D2AF851183222582
:1004930010F582E43511F58322E4732510C582C07B
:1004A300E0E51134FFC583C0E0E510C3958224F86D
:1004B300F8E4C5A8858311858210C5A8E8CEF0A30A
:1004C300E520F0A37808E608F0A3DEFAEFF0A3E551
:1004D3008124FAF8E608F0A3E608F0A3E608F0A3FF
:1004E3000808E608F0A3E608F0A315811581D0E01B
:1004F300FED0E0F8158115811581E8C0E0EEC0E07B
:1005030022851183851082E0A3FEE0A3F5207808FD
:10051300E0A3F608DFFAE0A3FFE0A3C0E0E0A3C096
:10052300E0E0A3C0E0E0A3C0E0E0A3C0E0E4C5A82E
:10053300858210858311C5A8D083D082020107C0AC
:10054300D02510C582C0E0E51134FFC583C0E0E5C6
:1005530010C3958224F310AF088583118582108020
:1005630008858311858210D2AFC8F0A3E9F0A3EA0E
:10057300F0A3EBF0A37908E709F0A3D8FAECF0A312
:10058300EDF0A3EEF0A3EFF0A3D0E0F0A3D0E0F002
:10059300A3D0E0F0A3E520F0A3E5F0F0A3228511BA
:1005A30083851082E0C0E0A3E0F9A3E0FAA3E0FBB7
:1005B300A37808E0F608A3DFFAE0FCA3E0FDA3E0DC
:1005C300FEA3E0FFA3E0C0E0A3E0C0E0A3E0F5D01A
:1005D300A3E0F520A3E0A3F5F0E4C5A88583118586
:1005E3008210C5A8D082D083D0E0F8D0E032740264
:1005F3008000C0E0F404120477D0E01203F722D0A5
:1006030083D082C5F0E493A3C5F0C395F0F5F0E47D
:1006130093A3C395F04005E5F0048001E475F0026F
:10062300A42582F582E5F03583F583E493A3C0E046
:10063300E493C0E022D083D082CCC0E0E493A360F3
:10064300061206621470FAE493A36006120681147C
:1006530070FAD0E0FCE493A3C0E0E493C0E022C0CE
:10066300E0E493A3D39C5010E493A3C39C400AD02B
:10067300E0D0E0D0E0020655A3A3A3D0E022C0E07F
:10068300E493A36C7009D0E0D0E0D0E0020655A358
:10069300A3D0E022D083D082ECC0E0EDC0E0E493AD
:1006A300A3FCE493A3FDED4C600D1206E3EC24FFE1
:1006B300FCED34FFFD80EFE493A3FCE493A3FDED95
:1006C3004C600D120722EC24FFFCED34FFFD80EF9C
:1006D300D0E0FDD0E0FCE493A3C0E0E493C0E022CB
:1006E300C0E0C3E49396087401939618400FE49313
:1006F30066700808740193661870007019A3A3C389
:10070300E49396087401939618A3A3400DD0E0D008
:10071300E0D0E00206D3A3A3A3A3A3A3D0E022C007
:10072300E0C0F088F0E493667008087401936618DB
:100733007000A8F0A3A3700BD0F0D0E0D0E0D0E01D
:100743000206D3A3A3D0F0D0E022C0E0638002E589
:1007530080D0E032C0E074F1120542C2C5E5896081
:10076300487E00750801750900EE7808120434AF5D
:1007730008E5895F602CEEC333F8E433F9E8240617
:10078300F582E93401F583E07002A3E0600EE8240A
:1007930006F582E9340112080812049CEFF4558926
:1007A300F5890EEEC3940840BA7F020205A1C0E0AA
:1007B30074F1120542C2EBE58A60487E00750801B8
:1007C300750900EE7808120434AF08E58A5F602CDF
:1007D300EEC333F8E433F9E82416F582E93401F57E
:1007E30083E07002A3E0600EE82416F582E9340189
:1007F30012080812049CEFF4558AF58A0EEEC3948E
:100803000840BA80A4F583E0F8A3E0F58388822248
:10081300C0E074F1120542C2E8E58B60487E0075C2
:100823000801750900EE7808120434AF08E58B5F00
:10083300602CEEC333F8E433F9E82426F582E93477
:1008430001F583E07002A3E0600EE82426F582E957
:10085300340112080812049CEFF4558BF58B0EEE4D
:10086300C3940540BA0207ACC0E074F2120542A279
:10087300AFE492E0FEC2AFE5E9A2E6501E9001416B
:10088300E07002A3E0600E900141E0F8A3E0F5837D
:10089300888212049C759B0053E9BFEEA2E092AFDD
:1008A3007F010205A1C0E0C0D0E8C0E0E9C0E0EAF2
:1008B300C0E0C082C083E5C1C0E09001C4E024432E
:1008C300F582E43401F583D0E0F09001C3E0FA90BF
:1008D30001C4E06A7006E5959001C5F09001C4E09B
:1008E30004F0C394804002E4F0D083D082D0E0FAD5
:1008F300D0E0F9D0E0F8D0D0D0E032C0E0C0D0EA08
:10090300C0E0C008C009C082C083900246E0FA90EC
:100913000247E06A700A539AFB74019002488025EB
:10092300C2E9900246E0F50874012508F0E50824C1
:10093300C6F582E43401F583E0F5C1900246E0C3D5
:1009430094804002E4F0D083D082D009D008D0E074
:10095300FA80A3C082C08343FD40C286120974D0CB
:1009630083D082020107C082C08343FD40D28680C8
:10097300EB8990D2A07A027B00120284C2A07A5043
:100983007B00120284900105E0F5902274F71204B3
:100993009EEAFEEBFF890880128E828F83E0F912B4
:1009A30002368E828F83A3AE82AF83AA0874FF2A96
:1009B300F508EA70E4020A5174F712049EEAFEEBAA
:1009C300FF740269700479C0800279801202307961
:1009D300108074C082C08343FD40C2A07A1E120AF5
:1009E3001479301202307A02120A14120A0E120A11
:1009F3000E791012023079061202307901120A10B0
:100A0300120254790C1202300209627938120A1F59
:100A1300227B0012028A7930120A1F221202307AD4
:100A2300027B0012028A2274F712049E7402697018
:100A33000479C0800279801202307E10792012027C
:100A4300361EEE70F78007EEFAEFFB12023C7F01D1
:100A530002050474F712049E79801202307E107925
:100A6300201202361EEE70F779C01202307E107922
:100A7300201202361EEE70F780D47910020107743B
:100A8300F712049EEBFE740269700774402A4480D7
:100A9300800374804AF9120230EEF912023680AEF6
:100AA30074F712049EECFEEDFF7402697007744044
:100AB3002A4480800374804AF9120230EEFAEFFB75
:100AC3001202BAEAF9020A4A74F612049EEA7001A3
:100AD300EB60317C008A828B83E06015C0E08C0878
:100AE300120B0CD0E0F08A828B83A3AA82AB8380A3
:100AF300058C08120B1C0CECC3941040D87A317B84
:100B0300011202427F02020504120B1022E508249F
:100B130031F582E43401F58322120B107420F022A4
:100B230074F212049EE9FEEAFF8C0A8D0BEB703C13
:100B3300750800AA0AAB0B7C007D001202A88A0C80
:100B43008B0D8011FB120BB7850C82850D83A3855A
:100B5300820C85830D850C82850D83E070E6E508A4
:100B6300C39405503E7B20120BB780F274016B7067
:100B7300328C088D09740C7808120425E508120BD1
:100B8300C2120260740F550B120BC27401120BAB2D
:100B9300E50A120BBF74022FFAEEF9120BC67403A7
:100BA300120BAB7F06020504120BAF222FFAEEF9EC
:100BB30012026022E508120BAF050822C4540F127B
:100BC3000BD122120260740F550A120BD122247426
:100BD300F582E43402F583E0FB22C082C083D2A411
:100BE300D2A37A027B00120284C2A3120C288003D0
:100BF300120C26D083D082020107C082C083C2A315
:100C03007A027B00120284D2A47A027B001202844D
:100C1300D2A37A027B0012028480D8C082C083C22E
:100C2300A380CDD2A4120C2C227A027B0012028460
:100C3300C2A47A027B0012028422C082C083D2A3A0
:100C430080AE74F712049EE9FF7E08EFA2E750041A
:100C5300D2A38002C2A3D2A4C333FF120CA670EBAB
:100C63008001F97F0102050474F712049E7F00D20C
:100C7300A353F5F753FFF753F7F753F77F7A027B45
:100C8300001202847E08D2A4EFC333FFA2A3500351
:100C9300D2E0FF120CA670EE53F5F7D2A343FF0880
:100CA300EF80BF120C2C1EEE2274F712049EE9FE95
:100CB300EAFF120CC2EFF9120D061201FA80A41218
:100CC30001F479E0120D0A7900120D0AEEF9120D02
:100CD3000A2274F712049E1201F479E0120D0679C8
:100CE30000120D067908120D06120D11120200EE04
:100CF300FF120212E9FE1202061201FAEEFAEFFBEC
:100D0300020C66120D0A2212020C120200221201B8
:100D1300FA1201F479E1120D0A120212E9FE22C05D
:100D230082C0837A6279001202187AF7790212027A
:100D3300187A0779031202187A0079041202187AD2
:100D43000079051202187A30790E1202187A6A793C
:100D530000120218020BF674F612049E12021E8A87
:100D6300088B097808120697000014008200C50D4D
:100D73008400C90D8800CD0D9000F10DA000FD0D7C
:100D83000201D10D0401D50D0801D90D1001F50D96
:100D93002001010E0202DD0D0402E10D0802E50D42
:100DA3001002F90D2002050E0204E90D0404C10D21
:100DB3000804ED0D1004090E20040D0E110E7E30F3
:100DC300804E7E31804A7E3280467E3380427E343E
:100DD300803E7E35803A7E3680367E3780327E385E
:100DE300802E7E39802A7E2A80267E2380227E41A1
:100DF300801E7E42801A7E4380167E4480127E458A
:100E0300800E7E46800A7E5580067E4E80027E00DE
:100E1300900130E004F0C394C94008E4F07A6AF921
:100E2300120218EE60117AAA7B0A1201D67A147B99
:100E33000012028A1201DCEEF97F02020504C0826D
:100E4300C083E9120638000A019B0E026B0E11A142
:100E53000E818F0E847D0E85710E89770E91950E0E
:100E6300A5830EB5890EA70E7A847B02803A7A8910
:100E73007B0280347A8E7B02802E7A937B028028D9
:100E83007A987B0280227A9D7B02801C7AA27B0265
:100E930080167AA77B0280107AAC7B02800A7AB133
:100EA3007B0280047AB67B02D083D082020107746E
:100EB300F012049E74FB1204477401120492EAF0C8
:100EC300A3EBF0A3ECF0A3EDF07A497B02740112DB
:100ED3000492C082C08390025578081203D9D0834C
:100EE300D08278081202DB502274018510828511AA
:100EF30083F012049278081203D978081203C87495
:100F03000112049278081203E88008E485108285B0
:100F13001183F07401120492780C1203D99002BB6E
:100F230078081203D9780C790812038AE50824306B
:100F33008A828B83F0A3AA82AB8374011204927812
:100F43000C1203D99002BB78081203D9780C7908E4
:100F530012038A7401120492780C1203E8740112CA
:100F63000492C082C08390025578081203D9D083BB
:100F7300D08278081202C6709A851082851183E0A8
:100F8300600B742D8A828B83F0A30AAB83E48A827D
:100F93008B83F0EA24FF1AEB34FFFB784979028054
:100FA30016120FCFEA24FF1AEB34FFFBEC88828979
:100FB30083F0A3A882A983C3E89AE99B40E37A4913
:100FC3007B02740512045D7F080205048A828B8309
:100FD300E0FC88828983E08A828B83F02274F61294
:100FE300049E8A088B09EA7001EB700579000211EF
:100FF300157F007E018036EE6033790212024E12B5
:101003001087E0FCA3E0FD7A0379021202667B3CC1
:101013007A00790212026012025AE914FA7B3E79CD
:10102300021202607E007A647B0012028A7A647B79
:101033000012028A12022AE9FA74236A70107AC82B
:101043007B0012028A121087A3A3E0F980A0744EDA
:101053006A701774012FC0E0850882850983A3A3F2
:10106300E0F5F0D0E084AFF0809074556A7088EFBB
:10107300700E850882850983A3A3E014FF020FFD88
:101083001F020FFDEF75F003A4F8A9F08508828510
:101093000983E028FAA3E0398A82F5832274F612E1
:1010A300049E74EC120447EAFEEBFF85108285115F
:1010B30083AC82AD837583027582BF7414120404FA
:1010C300750804F50978081205F11202901202A2BC
:1010D300EAFCEBFD7407120492AA82AB831202C0EE
:1010E300740212045D120296E92430C0E0740B12FC
:1010F3000492D0E0F0851082851183AA82AB8379B4
:101103000112026CEEFAEFFB790212026C741412F4
:10111300045D7F0202050474F712049E89087E08A9
:10112300C2857A027B00120284E508A2E75004D24A
:10113300848002C284C333F508EFC333FF7A027B92
:1011430000120284D2857A027B00120284A28650A6
:1011530004EFD2E0FF1EEE70C7D284EFF97F0102E5
:1011630005041211EE02010774F612049E1211EE29
:10117300C28779941211C370157509007407780832
:101183001204341211B4900101E8F0A3E9F0C2870C
:10119300799C1211C370157509007407780812043D
:1011A300341211B4900103E8F0A3E9F07F020205C1
:1011B30004EAC3132508F8E43509F9740759F92239
:1011C3001201B8D2877AFA7B00120284C28779802F
:1011D3001201B879001201B8E9F50879001201B8D3
:1011E300E9FAD28774A0550864202253F3EFD2841E
:1011F30043FD1053F3DFD28543FD2053F37FD287A2
:1012030043FD8053F3BF53FDBF538FBF53F7DFD26B
:1012130087D284D285221201CA79081202787A59B8
:101223007B021202B47A2C7B0112028A7A2C7B0194
:101233001201E212022AE960FA7A007B001202AE7E
:101243001202547A6A7B02790112026C1201BE7E89
:10125300087B6F7A0879021202601201C4900101BF
:10126300E0FCA3E0FD7B007A097901120272900190
:1012730001C3E0944DA3E09404400AEEC3940F50DD
:10128300010E1212AD900101C3E09452A3E0940346
:101293005007EE60011E1212AD7A647B0012028ABF
:1012A30012022AE9642A70B28096790212024E7BF6
:1012B3006FEEFA79021202602274F012049E43E484
:1012C3000CE5E4750C48750DE8750E01750F008A81
:1012D300088B09750A00750B00780C790812038ACC
:1012E300850D09E509F5DBE50CF5DA75E54453E40D
:1012F300EF53E4FDC2B97F0802050474F012049EA3
:1013030075E200750C48750DE8750E01750F008ABE
:10131300088B09750A00750B00780C790812038A8B
:10132300850D09E509F5DBE50CF5DA43E402D2B9ED
:1013330080C453E4FDC2B9D281020107C082C083D5
:1013430075E20043E402D2B912028A53E4FDC2B942
:10135300D281D083D082020107C082C08379001278
:1013630001E8D083D082020107EBC313FBEA13FA2F
:10137300EAF8EBF974FF28FA74FF39FB740068701C
:101383000374006960120000000000000000000008
:1013930000000000000080D802010774F712049EC9
:1013A300EAFEEBFFEEF8EFF974FF28FE74FF39FF56
:1013B300740068700374006960097AE87B031202A1
:1013C3008480E17F01020504C082C083E912060222
:1013D30001072614E713EF13F713FF1307140F1472
:1013E30017141F14900105E0D2E08036900105E048
:1013F300D2E1802E900105E0D2E28026900105E043
:10140300D2E3801E900105E0D2E48016900105E04E
:10141300D2E5800E900105E0D2E68006900105E05A
:10142300D2E7F0900105E0F590D083D08202010766
:1014330074F612049E740A120492E0FEA3E0FFEA1B
:10144300F8EBF98E088F0974FF25081E74FF350920
:10145300FFE5087002E50960358C828D83E0A3AC5B
:1014630082AD838A828B83F0A3AA82AB8370D4EE8E
:10147300FCEFFD74FF2C1E74FF3DFFEC7001ED606B
:101483000DE48A828B83F0A3AA82AB8380E1E8FA1E
:10149300E9FB7F02020504C082C08312027E53F57A
:1014A300EFD2A443FF1053F5F7D2A343FF0853F53C
:1014B300F753FFF743F70853F5FEC2A043FF015369
:1014C300F3BFC28643FD4075F4007590FF75FEFFC0
:1014D30053F3FDD28143FD027AAA7B0A1201D0E4C1
:1014E300900105F075900012024812022412029C2A
:1014F3001201EED083D082020107C082C08353F170
:10150300FE43F30CE5F353F2F3E5F275868075C4FD
:101513008075C2D875C50B75C402438640D2AA75BF
:10152300C100E49001C3F09001C4F0900246F09032
:101533000247F09001C5F0900248F0D083D08202B8
:101543000107748055C6FA53BEFBE59DA2E550FA28
:10155300E59DA2E240F400740169700774494AF5FD
:10156300C68005E970028AC6E5C6FAE59EFBEA6B0A
:1015730070F943BE04020107C082C08390624AE04F
:10158300800DC082C083906249E0C4540F8000F98B
:10159300D083D082020107C082C0838A828B83807A
:1015A30001A3E070FCE582C39AFAE5839BFBD08339
:0A15B300D082020107D2AF02010747
:04000005000000E314
:00000001FF
