:020000040000FA
:030000000200E318
:03001300020804DC
:0300330002076F52
:03003B0002085A5E
:03004B000206A901
:03006B000206B3D7
:03007B0002070D6C
:100083000207C700000080FB120137B9000302001A
:10009300CDE4900101784579028002F0A3D8FCD920
:1000A300FA900245AA82AB8390013A785C79018089
:1000B30015E493A3AC82AD838A828B83F0A3AA82D7
:1000C300AB838C828D83D8E9D9E775820F75830E54
:1000D30074001200F575828675830074001200F5B2
:1000E30075D0007581BF751001751101759F0002F0
:1000F300008BF5F0E59F5407C0E0E59F54F845F009
:10010300F59FE473859FF053F0F8D0E045F0F59F39
:1001130022D083D082E59F5407C0E0E493C0E0740B
:100123000193C0E07402935407F5F0E59F54F8453A
:10013300F0F59F227901224B6579706164204C436D
:100143004420546573740032343230003234333017
:10015300003234333100323532300032353330003F
:1001630032353331003235313000323531310031FF
:100173003131300031313131002D2D2D2D002A2A1E
:100183002043437878787820282029202A2A0000E1
:100193000000120114A81100120114DF0E00120155
:1001A30014210F00120114580F00120114620F00E2
:1001B3001201140B1200120114601200120114B286
:1001C3000800120114D20800120114F308001201EE
:1001D300141209001201141A090012011440090033
:1001E300120114810900120114AA0900120114F763
:1001F30009001201142F0A00120114160B00120138
:1002030014290B001201144F0B001201147B0B0075
:10021300120114960B00120114F60B001201141DA7
:100223000C001201143E0C00120114D9100012012B
:10023300146A10001201147A1000120114AC100099
:100243001201144112001201144B120012011496F0
:100253000C00120114DE0C00120114320D00120105
:1002630014D70D00120114F90F001201147F0F00AF
:10027300120114411100E4CFC0E0E4CEC0E0E4CDAC
:10028300C0E0E4CCC0E075F020C3E633F608E63303
:10029300F608E633F608E633F6181818EC33FCEDE7
:1002A30033FDEE33FEEF33FFC3EC9709ED9709EE11
:1002B3009709EF97191919400FFFEC97FC09ED9770
:1002C300FD09EE97FE191906D5F0BEECF709EDF717
:1002D30009EEF709EFF7191919D0E0FCD0E0FDD0CA
:1002E300E0FED0E0FF22120351181818120279120F
:1002F300034019191922120340191919080808E6AD
:1003030018181820E7E0120279120351181818225E
:10031300090909E719191920E7DC080808E618187C
:100323001820E703020279120351181818120279F0
:1003330012035118181812034019191922E4C3970C
:10034300F709E497F709E497F709E497F722E4C379
:1003530096F608E496F608E496F608E496F622CABA
:10036300C0E0E6F0A308DAFAD0E0FA22CAC0E0E07F
:10037300A3C582CCC582C583CDC583F0A3C582CC7A
:10038300C582C583CDC583DAE6D0E0CA22700422D4
:10039300600D18C6C333C608C633C6D5E0F41822A9
:1003A300251010AF08F510400215118008F5104014
:1003B300021511D2AF22C0D0251010AF08F510508E
:1003C3000205118008F51050020511D2AFD0D022DA
:1003D3002510F58210AF08F510400215118008F5BD
:1003E3001040021511D2AF851183222510F582E446
:1003F3003511F58322E4732510C582C0E0E511347D
:10040300FFC583C0E0E510C3958224F8F8E4C5A8CE
:10041300858311858210C5A8E8CEF0A3E520F0A35B
:100423007808E608F0A3DEFAEFF0A3E58124FAF8F2
:10043300E608F0A3E608F0A3E608F0A30808E60838
:10044300F0A3E608F0A315811581D0E0FED0E0F813
:10045300158115811581E8C0E0EEC0E02285118386
:10046300851082E0A3FEE0A3F5207808E0A3F60858
:10047300DFFAE0A3FFE0A3C0E0E0A3C0E0E0A3C095
:10048300E0E0A3C0E0E0A3C0E0E4C5A88582108556
:100493008311C5A8D083D082020107C0D02510C51F
:1004A30082C0E0E51134FFC583C0E0E510C3958247
:1004B30024F310AF0885831185821080088583118A
:1004C300858210D2AFC8F0A3E9F0A3EAF0A3EBF062
:1004D300A37908E709F0A3D8FAECF0A3EDF0A3EEB3
:1004E300F0A3EFF0A3D0E0F0A3D0E0F0A3D0E0F0CE
:1004F300A3E520F0A3E5F0F0A32285118385108204
:10050300E0C0E0A3E0F9A3E0FAA3E0FBA37808E0EE
:10051300F608A3DFFAE0FCA3E0FDA3E0FEA3E0FFFF
:10052300A3E0C0E0A3E0C0E0A3E0F5D0A3E0F520A2
:10053300A3E0A3F5F0E4C5A8858311858210C5A8BF
:10054300D082D083D0E0F8D0E03274028000C0E0E3
:10055300F4041203D3D0E012036222D083D082C505
:10056300F0E493A3C5F0C395F0F5F0E493A3C3952A
:10057300F04005E5F0048001E475F002A42582F55E
:1005830082E5F03583F583E493A3C0E0E493C0E010
:1005930022D083D082CCC0E0E493A360061205BED0
:1005A3001470FAE493A360061205DD1470FAD0E028
:1005B300FCE493A3C0E0E493C0E022C0E0E493A38F
:1005C300D39C5010E493A3C39C400AD0E0D0E0D066
:1005D300E00205B1A3A3A3D0E022C0E0E493A36C9F
:1005E3007009D0E0D0E0D0E00205B1A3A3D0E022AF
:1005F300D083D082ECC0E0EDC0E0E493A3FCE493AD
:10060300A3FDED4C600D12063FEC24FFFCED34FF1F
:10061300FD80EFE493A3FCE493A3FDED4C600D1286
:10062300067EEC24FFFCED34FFFD80EFD0E0FDD02F
:10063300E0FCE493A3C0E0E493C0E022C0E0C3E4A1
:100643009396087401939618400FE4936670080814
:10065300740193661870007019A3A3C3E4939608FA
:100663007401939618A3A3400DD0E0D0E0D0E0022C
:10067300062FA3A3A3A3A3A3D0E022C0E0C0F088C6
:10068300F0E4936670080874019366187000A8F08C
:10069300A3A3700BD0F0D0E0D0E0D0E002062FA3EC
:1006A300A3D0F0D0E022C0E0638002E580D0E03246
:1006B300C0E074F112049EC2C5E58960487E0075EE
:1006C3000801750900EE7808120390AF08E5895F09
:1006D300602CEEC333F8E433F9E82402F582E934FD
:1006E30001F583E07002A3E0600EE82402F582E9DD
:1006F30034011207641203F8EFF45589F5890EEEFD
:10070300C3940840BA7F020204FDC0E074F11204EE
:100713009EC2EBE58A60487E00750801750900EE0C
:100723007808120390AF08E58A5F602CEEC333F8B4
:10073300E433F9E82412F582E93401F583E0700229
:10074300A3E0600EE82412F582E934011207641273
:1007530003F8EFF4558AF58A0EEEC3940840BA8085
:10076300A4F583E0F8A3E0F583888222C0E074F166
:1007730012049EC2E8E58B60487E00750801750986
:1007830000EE7808120390AF08E58B5F602CEEC390
:1007930033F8E433F9E82422F582E93401F583E000
:1007A3007002A3E0600EE82422F582E93401120707
:1007B300641203F8EFF4558BF58B0EEEC3940540EA
:1007C300BA020708C0E074F212049EA2AFE492E0FA
:1007D300FEC2AFE5E9A2E6501E90013DE07002A320
:1007E300E0600E90013DE0F8A3E0F58388821203F8
:1007F300F8759B0053E9BFEEA2E092AF7F010204BC
:10080300FDC0E0C0D0E8C0E0E9C0E0EAC0E0C082DB
:10081300C083E5C1C0E09001C0E0243FF582E43429
:1008230001F583D0E0F09001BFE0FA9001C0E06AE7
:100833007006E5959001C1F09001C0E004F0C39407
:10084300804002E4F0D083D082D0E0FAD0E0F9D047
:10085300E0F8D0D0D0E032C0E0C0D0EAC0E0C008B9
:10086300C009C082C083900242E0FA900243E06A6A
:10087300700A539AFB74019002448025C2E99002E6
:1008830042E0F50874012508F0E50824C2F582E486
:100893003401F583E0F5C1900242E0C39480400245
:1008A300E4F0D083D082D009D008D0E0FA80A3C08E
:1008B30082C083D2A4D2A37A027B00120237C2A3DE
:1008C3001208FD80031208FBD083D082020107C007
:1008D30082C083C2A37A027B00120237D2A47A02B7
:1008E3007B00120237D2A37A027B0012023780D830
:1008F300C082C083C2A380CDD2A4120901227A028E
:100903007B00120237C2A47A027B0012023722C094
:1009130082C083D2A380AE74F71203FAE9FF7E0884
:10092300EFA2E75004D2A38002C2A3D2A4C333FF31
:1009330012097B70EB8001F97F0102046074F712E6
:1009430003FA7F00D2A353F5F753FFF753F7F75397
:10095300F77F7A027B001202377E08D2A4EFC333FB
:10096300FFA2A35003D2E0FF12097B70EE53F5F709
:10097300D2A343FF08EF80BF1209011EEE2274F7D2
:100983001203FAE9FEEAFF120997EFF91209DB12E3
:1009930001C580A41201BF79E01209DF79001209B1
:1009A300DFEEF91209DF2274F71203FA1201BF799D
:1009B300E01209DB79001209DB79081209DB12095D
:1009C300E61201CBEEFF1201DDE9FE1201D11201A5
:1009D300C5EEFAEFFB02093B1209DF221201D7121F
:1009E30001CB221201C51201BF79E11209DF120105
:1009F300DDE9FE22C082C0837A6279001201E37AC4
:100A0300F779021201E37A0779031201E37A007995
:100A1300041201E37A0079051201E37A30790E12A8
:100A230001E37A6A79001201E30208CB74F6120338
:100A3300FA1201E98A088B0978081205F3000014F9
:100A43000082009A0A84009E0A8800A20A9000C6C7
:100A53000AA000D20A0201A60A0401AA0A0801AEEA
:100A63000A1001CA0A2001D60A0202B20A0402B617
:100A73000A0802BA0A1002CE0A2002DA0A0204BEE7
:100A83000A0404960A0804C20A1004DE0A2004E2D7
:100A93000AE60A7E30804E7E31804A7E3280467E70
:100AA3003380427E34803E7E35803A7E3680367E89
:100AB3003780327E38802E7E39802A7E2A80267EB9
:100AC3002380227E41801E7E42801A7E4380167ED2
:100AD3004480127E45800E7E46800A7E5580067EC7
:100AE3004E80027E0090012CE004F0C394C94008BC
:100AF300E4F07A6AF91201E3EE60117AAA7B0A1232
:100B030001A17A147B0012023D1201A7EEF97F02C4
:100B1300020460C082C08343FD40C286120B34D0FE
:100B230083D082020107C082C08343FD40D2868006
:100B3300EB8990D2A07A027B00120237C2A07A50CE
:100B43007B00120237900101E0F5902274F7120343
:100B5300FAEAFEEBFF890880128E828F83E0F91296
:100B630002018E828F83A3AE82AF83AA0874FF2A09
:100B7300F508EA70E4020BF174F71203FAEAFEEBEC
:100B8300FF740269700479C0800279801201FB79D5
:100B9300108054C082C08343FD40C2A07A1E120B52
:100BA300D479301201FB7A02120BD4120BCE120B42
:100BB300CE79101201FB79061201FB7901120BD0D9
:100BC300120219790C1201FB020B227938120BDF86
:100BD300227B0012023D7930120BDF221201FB7AD5
:100BE300027B0012023D22EEFAEFFB1202077F01A5
:100BF30002046074F71203FA79801201FB7E107904
:100C0300201202011EEE70F779C01201FB7E1079EB
:100C1300201202011EEE70F780D474F71203FAEB70
:100C2300FE740269700774402A4480800374804A0A
:100C3300F91201FBEEF912020180B374F61203FA02
:100C4300EA7001EB60317C008A828B83E06015C01F
:100C5300E08C08120C7FD0E0F08A828B83A3AA82F7
:100C6300AB8380058C08120C8F0CECC3941040D816
:100C73007A2D7B0112020D7F02020460120C832283
:100C8300E508242DF582E43401F58322120C8374E4
:100C930020F022C082C08353F1FE43F30CE5F353EB
:100CA300F2F3E5F275868075C48075C2D875C50BFD
:100CB30075C402438640D2AA75C100E49001BFF017
:100CC3009001C0F0900242F0900243F09001C1F015
:100CD300900244F0D083D08202010774F71203FA22
:100CE30078007900802D9001BFE0243FF582E43441
:100CF30001F583E08A828B83F09001BFE004120D3B
:100D0300CCC394804005E49001BFF0E8240108E9D6
:100D13003400F99001BFE0FE9001C0E06E6007C3AC
:100D2300E89CE99D40C0E8FAE9FB7F010204607496
:100D3300F71203FA900243E0C0E0900242E0FED0D3
:100D4300E0C39EE0F8900243E0FEE8501BC39EF828
:100D5300E49400F974FF281874FF39F9E87001E985
:100D6300701B780079008029C39EF8E49400F9741D
:100D73007F28F8E439F9C3E89CE99D50E57A007BC4
:100D8300008043E004F0439A04E8240108E93400B6
:100D9300F9C3E89CE99D502A8A828B83E0C0E090E6
:100DA3000243E024C2F582E43401F583D0E0120D5E
:100DB300CCE4900244F0900243E0C3947F40C4E447
:100DC30080C3E8FAE9FB020D2DF08A828B83A3AA84
:100DD30082AB8322C082C0839001C0E0C0E0900157
:100DE300BFE0FAD0E0C39A400C9001C0E0C39AFA86
:100DF300E494008013E0F87480C398F8E49400F955
:100E03009001C0E028FAE439FB020CD774FD120309
:100E1300A3120195790812022B7A457B0212026D07
:100E23007A2C7B011201AD1201F5E960FA12021965
:100E33007E00020EBCEEFA790112021F7C017D00D6
:100E4300851082851183AA82AB8312025B0EEEC3E7
:100E53009420400C7A2C7B011201AD1202197E0002
:100E63007AC87B0012023D7A0A7B0012023D12020D
:100E730061EAF508603CC394114003750810AC089F
:100E83007D00851082851183AA82AB83120255856A
:100E93001082851183E5822508F582E5833400F508
:100EA30083E4F0851082851183AA82AB83790212D1
:100EB30002257A2C7B0112023D1201F5E9F5086047
:100EC300A6851082851183F0EEC39410AB085003FE
:100ED300020E3874F02EFA7902020E3C74F01203FB
:100EE300FA43E40CE5E4750C48750DE8750E0175DD
:100EF3000F008A088B09750A00750B00780C7908B6
:100F0300120313850D09E509F5DBE50CF5DA75E543
:100F13004453E4EF53E4FDC2B97F0802046074F064
:100F23001203FA75E200750C48750DE8750E01752C
:100F33000F008A088B09750A00750B00780C790875
:100F4300120313850D09E509F5DBE50CF5DA43E436
:100F530002D2B980C453E4FDC2B9D281020107C0F1
:100F630082C08375E20043E402D2B912023D53E426
:100F7300FDC2B9D281D083D08202010774F6120375
:100F8300FA74EC1203A3EAFEEBFF8510828511834A
:100F9300AC82AD8375830275828C741412036F75F2
:100FA3000804F509780812054D120243120267EA94
:100FB300FCEBFD74071203EEAA82AB831202737477
:100FC300021203B9120249E92430C0E0740B120380
:100FD300EED0E0F0851082851183AA82AB8379017C
:100FE300120225EEFAEFFB790212022574141203A2
:100FF300B97F02020460C082C083E9120594000A2B
:1010030001531002231011591081471084351085A4
:101013002910892F10914D10A53B10B541105F1079
:101023007A557B02803A7A5A7B0280347A5F7B025C
:10103300802E7A647B0280287A697B0280227A6E12
:101043007B02801C7A737B0280167A787B02801085
:101053007A7D7B02800A7A827B0280047A877B0214
:10106300D083D082020107C082C08379001201B30A
:10107300D083D082020107EBC313FBEA13FAEAF829
:10108300EBF974FF28FA74FF39FB7400687003747A
:101093000069601200000000000000000000000072
:1010A3000000000080D802010774F71203FAEAFE79
:1010B300EBFFEEF8EFF974FF28FE74FF39FF7400BD
:1010C30068700374006960097AE87B031202378051
:1010D300E17F01020460C082C083E912055E01075B
:1010E3003411F510FD1005110D1115111D112511E8
:1010F3002D11900101E0D2E08036900101E0D2E1B0
:10110300802E900101E0D2E28026900101E0D2E33B
:10111300801E900101E0D2E48016900101E0D2E547
:10112300800E900101E0D2E68006900101E0D2E753
:10113300F0900101E0F590D083D08202010774F6AC
:101143001203FA740A1203EEE0FEA3E0FFEAF8EBDF
:10115300F98E088F0974FF25081E74FF3509FFE512
:10116300087002E50960358C828D83E0A3AC82AD03
:10117300838A828B83F0A3AA82AB8370D4EEFCEFC5
:10118300FD74FF2C1E74FF3DFFEC7001ED600DE458
:101193008A828B83F0A3AA82AB8380E1E8FAE9FB1E
:1011A3007F02020460C082C08312023153F5EFD282
:1011B300A443FF1053F5F7D2A343FF0853F5F753A6
:1011C300FFF743F70853F5FEC2A043FF0153F3BFF4
:1011D300C28643FD4075F4007590FF75FEFF53F31F
:1011E300FDD28143FD027AAA7B0A12019BE490019E
:1011F30001F07590001202131201EF12024F120157
:10120300B9D083D082020107748055C6FA53BEFB5E
:10121300E59DA2E550FAE59DA2E240F40074016960
:10122300700774494AF5C68005E970028AC6E5C6A7
:10123300FAE59EFBEA6B70F943BE04020107C08224
:10124300C08390624AE0800DC082C083906249E00F
:10125300C4540F8000F9D083D082020107D2AF02B9
:02126300010781
:04000005000000E314
:00000001FF
