:020000040000FA
:030000000200E318
:0300130002078859
:030033000206F9C9
:03003B000207D7E2
:03006B0002063357
:03007B0002068CEE
:1000830002075000000080FB12013FB90003020089
:10009300CDE490010178D179038002F0A3D8FCD993
:1000A300FA9003D1AA82AB8390014278257901802B
:1000B30015E493A3AC82AD838A828B83F0A3AA82D7
:1000C300AB838C828D83D8E9D9E775821075830C55
:1000D30074001200F575828675830074001200F5B2
:1000E30075D0007581BF751001751101759F0002F0
:1000F300008BC0F0F5F0E59F5407C0E0E59F54F88E
:1001030045F0D0F0F59FE473859FF053F0F8D0E00D
:1001130045F0F59F22D083D082E59F5407C0E0E4E9
:1001230093C0E0740193C0E07402935407C0F0F5E8
:10013300F0E59F54F845F0D0F0F59F22790122FFB6
:1001430000000000000000000000000000000007A5
:100153000000000300000001000000FFFFFFFF0A92
:100163000000001201182908001201181D090012CD
:100173000118970900120118990A00120118F80CC6
:1001830000120118170D00120118A811001201180E
:10019300701200120118A812001201183C1200126A
:1001A30001189E1200120118A31200120118870FE2
:1001B30000120118B30F00120118CD0F001201181D
:1001C300D50F001201180D10001201184110001272
:1001D3000118A80A00120118B70A00120118C60A6A
:1001E30000120118F20A00120118180B001201186C
:1001F3008F0B00120118D70B00120118791000128F
:100203000118E410001201184511001201185511CC
:10021300001201188111001201187A0E0012011840
:10022300AE0E00120118BE0E00120118C80E001205
:100233000118D20E00120118FF0E001201181D0F33
:10024300001201182B0F00120118340F00120118AD
:100253003D0F001201184E0F001201185F0F00121C
:100263000118780F00120118FC11001201185E0D1D
:1002730000C3E09608A3E09608A3E09608A3E096DF
:10028300A2D265D03322C008C3E096F50808A3E0E4
:1002930096420808A3E096420808A3E0964208A203
:1002A300D265D033E5087001D3D00822E4CFC0E093
:1002B300E4CEC0E0E4CDC0E0E4CCC0E075F020C300
:1002C300E633F608E633F608E633F608E633F618BF
:1002D3001818EC33FCED33FDEE33FEEF33FFC3ECC4
:1002E3009709ED9709EE9709EF97191919400FFF31
:1002F300EC97FC09ED97FD09EE97FE191906D5F069
:10030300BEECF709EDF709EEF709EFF7191919D064
:10031300E0FCD0E0FDD0E0FED0E0FF22120387181E
:1003230018181202AF12037619191922120376193B
:100333001919080808E618181820E7E01202AF1286
:10034300038718181822090909E719191920E7DC86
:10035300080808E618181820E7030202AF120387FB
:100363001818181202AF12038718181812037619F7
:10037300191922E4C397F709E497F709E497F709F2
:10038300E497F722E4C396F608E496F608E496F6B3
:1003930008E496F622E026F608A3E036F608A3E082
:1003A30036F608A3E036F622E026F008A3E036F09E
:1003B30008A3E036F008A3E036F022E0F608A3E055
:1003C300F608A3E0F608A3E0F622E6F008A3E6F0B9
:1003D30008A3E6F008A3E6F022E0FAA3E0FBA3E01B
:1003E300FCA3E0FD22EAF0A3EBF0A3ECF0A3EDF015
:1003F30022CAC0E0E6F0A308DAFAD0E0FA22CAC0C3
:10040300E0E0A3C582CCC582C583CDC583F0A3C577
:1004130082CCC582C583CDC583DAE6D0E0CA22701B
:100423000422600D18C6C333C608C633C6D5E0F42C
:100433001822251010AF08F510400215118008F599
:100443001040021511D2AF22C0D0251010AF08F50D
:1004530010500205118008F51050020511D2AFD0DB
:10046300D0222510F58210AF08F510400215118037
:1004730008F51040021511D2AF851183222510F51E
:1004830082E43511F58322E4732510C582C0E0E5CB
:100493001134FFC583C0E0E510C3958224F810AF83
:1004A300088583118582108008858311858210D287
:1004B300AFCEF0A3E520F0A37808E608F0A3DEFAB8
:1004C300EFF0A3E58124FAF8E608F0A3E608F0A329
:1004D300E608F0A30808E608F0A3E608F0A31581F0
:1004E3001581D0E0FED0E0F8158115811581E8C0B3
:1004F300E0EEC0E022851183851082E0A3FEE0A335
:10050300F5207808E0A3F608DFFAE0A3FFE0A3C034
:10051300E0E0A3C0E0E0A3C0E0E0A3C0E0E0A3C04C
:10052300E010AF08858210858311800885821085CD
:100533008311D2AFD083D08202010BC0D02510C566
:1005430082C0E0E51134FFC583C0E0E510C39582A6
:1005530024F310AF088583118582108008858311E9
:10056300858210D2AFC8F0A3E9F0A3EAF0A3EBF0C1
:10057300A37908E709F0A3D8FAECF0A3EDF0A3EE12
:10058300F0A3EFF0A3D0E0F0A3D0E0F0A3D0E0F02D
:10059300A3E520F0A3E5F0F0A32285118385108263
:1005A300E0C0E0A3E0F9A3E0FAA3E0FBA37808E04E
:1005B300F608A3DFFAE0FCA3E0FDA3E0FEA3E0FF5F
:1005C300A3E0C0E0A3E0C0E0A3E0F5D0A3E0F52002
:1005D300A3E0A3F5F010AF0885831185821080088E
:1005E300858311858210D2AFD082D083D0E0F8D03A
:1005F300E03274048000C0E0F404120465D0E01219
:1006030003F42274048000CCC0E0EDC0E0E510C325
:100613009CCCAD1150011D10AF068C108D118006BE
:100623008C108D11D2AF120401D0E0FDD0E0FC227A
:10063300C0E074F112053EC2C5E58960477E0075CE
:100643000801750900EE7808120422AF08E5895FF6
:10065300602BEEC333F8E433F9748328F582740214
:100663001206E26014EEC333F8E433F9748328F519
:100673008274021206ED12048AEFF452890EEEC35D
:10068300940840BB7F0202059DC0E074F112053E51
:10069300C2EBE58A60477E00750801750900EE78B4
:1006A30008120422AF08E58A5F602BEEC333F8E437
:1006B30033F9749328F58274021206E26014EEC3D0
:1006C30033F8E433F9749328F58274021206ED12B9
:1006D300048AEFF4528A0EEEC3940840BB80A53916
:1006E300F583E0F8A3E0F9E8492239F583E0F8A3BC
:1006F300E0F583888222C0E074F112053EC2E8E58A
:100703008B60477E00750801750900EE78081204B6
:1007130022AF08E58B5F602BEEC333F8E433F97443
:10072300A328F58274021206E26014EEC333F8E4E0
:1007330033F974A328F58274021206ED12048AEFCA
:10074300F4528B0EEEC3940540BB020687C0E074DF
:10075300F212053EA2AFE433FEC2AFE5E9A2E650D2
:100763001A9002BDE0F8A3E0F9E8496008E0F583D8
:10077300888212048A759B0053E9BFEEA2E092AF10
:100783007F0102059DC0E0C0D0E8C0E0E9C0E0C041
:1007930082C083E5C1C0E0900340E0F874BF28F550
:1007A3008274023400F583D0E0F090033FE0F8A3B5
:1007B300E0687004E595A3F0900340E004F0C3946F
:1007C300804002E4F0D083D082D0E0F9D0E0F8D0CA
:1007D300D0D0E032C0E0C0D0E8C0E0C008C009C05B
:1007E30082C0839003C2E0F8A3E0687008539AFBC9
:1007F300A374018026C2E99003C2E0F508740125C1
:1008030008F074422508F58274033400F583E0F59B
:10081300C19003C2E0C394804002E4F0D083D0824D
:10082300D009D00880A6C082C0831202501201A250
:1008330079017A7D7B0112023890017DE0C2E7F0F5
:100843006405703479051208FE5004D2F08002C2A8
:10085300F0A2F0E4339003D9F0900182E0A2E740E4
:10086300030208F6900180E0F8900101E06860035C
:100873000208F6A37401807AE024F59003D6F09081
:10088300017DE0F91208FE5004D2F08002C2F0A20A
:10089300F0E4339003D9F0900185E0F8A3E0F990F8
:1008A30003D2E8F0A3E9F09003D77487F0A37401AF
:1008B300F012090C748728F8740139F98882898346
:1008C300E09003DAF088828983A3E0A2E7501C90CA
:1008D30003D1E0F8900180E068601090017EE0545D
:1008E300DF644170069003DB7401F0900180E090B7
:1008F30003D1F01201A812025680187A7E7B0112EE
:10090300023890017EE0A2E5229003D6E0F8339509
:10091300E0F922D083D08202010B74F712048CEA2F
:10092300FEEBFF12021AE9640170047901804E1292
:1009330001A8900108EEF0A3EFF09003D7E4F0A331
:10094300F090010304F09003DD1203DC9001041224
:1009530003E8120985A3A3E0F9120220120A84FA1C
:10096300A3E0FB120226120985E0FAA3E0FB1202C0
:100973002C7A667B0112025C1201A279007F0102CC
:1009830004F812098922900108E0F8A3E0F58388AE
:1009930082A3A32274F412048CEAFEEBFF8C088D6D
:1009A30009890A900103E07003120244E50AC39423
:1009B300675005850A0B8003750B671202621202EA
:1009C30050740B250B90010AF0120A9190010B60F1
:1009D30004746180027441F0A37488F0900101E013
:1009E30090010DF090010912098FE0F8A3E0F9904E
:1009F300010EE8F0A3E9F0A3EEF0A3EFF0120A84EE
:100A0300F8A3E0F9900112E8F0A3E9F07A0080215D
:100A13008A82A882E50828F582E5093400F583E097
:100A2300C0E0741428F58274013400F583D0E0F03B
:100A33000AEAC3950B40D9740A250BF97A0A7B019C
:100A430012023212025612023E120A9160129001F1
:100A530002E4F07A4A7B0212020E900102E0600483
:100A63007E0080027E01900103E0700312024AEED1
:100A7300A2E04006900101E004F0EEF97F040204D5
:100A8300F8900108E0F8A3E0F5838882E0221209D8
:100A930089A3A3A3E022C082C083900103E4F012E0
:100AA300024A02091674F712048CE9FE43FD40C2A0
:100AB30086020B7074F712048CE9FE43FD40D28664
:100AC300020B7074F712048CEAFEEBFF89088012A4
:100AD3008E828F83E0F91201D88E828F83A3AE8238
:100AE300AF83A80874FF28F5080470E4020B8A7426
:100AF300F712048C8908EAFEEBFF740265087004A0
:100B030079C0800279801201D27910EEFAEFFB12DC
:100B130001DE020B8AC082C08343FD40C2A07A1E5D
:100B2300120B5A79301201D27A02120B5A120B5459
:100B3300120B5479101201D279061201D2790112E3
:100B43000B561201F0790C1201D2D083D08202012C
:100B53000B7938120B65227B001202147930120BC9
:100B630065221201D27A027B00120214228E90D2E5
:100B7300A07A027B0012020EC2A07A507B001202FE
:100B83000E900282E0F5907F010204F874F71204DC
:100B93008C79801201D27E1079201201D81EEE705A
:100BA300F779C01201D27E1079201201D81EEE709F
:100BB300F780D4F91201E47F040204F8AA08AB0910
:100BC300AC0AAD0B120BCB2212026E8A088B09A85A
:100BD30008A9092274F412048CE9FFEAFE740C12CA
:100BE300048078081203BE120BBFEE9002ADF0A38F
:100BF300743AF088828983E09002AFF07420A3787E
:100C03000DF0A3D8FC7AAD7B02EF020BB674FC1295
:100C1300043590027E7411F0A3F0A304F0A37401D1
:100C2300F012018A79081201FC9003E11203DC85BA
:100C330010828511831203E89003E578081203BE3E
:100C430090027C7433F0A37422F07A7C7B0212014D
:100C53006C120178803C74016870309003E9780865
:100C630012028950089003ED78081203987808124D
:100C730005F57A4279021201F6740412044B8508D1
:100C83000C85090DAA0CAB0D1201847A647B00124A
:100C93000214120190E9F874026870BA8510828513
:100CA3001183C082C0839003E9780C1203BED08302
:100CB300D082780C12027440139003ED780C120367
:100CC300BE851082851183780C1203AB8510828553
:100CD30011831206067A4779011201F6740412048D
:100CE3004B851082851183780C1203BEAA0CAB0DC1
:100CF30012017E809674F712048CEAFEEBFF9001DA
:100D0300FD7433120D337A647B00120D4540EF7F7F
:100D1300010204F874F712048CEAFEEBFF9001FD64
:100D23007434120D337A2C7B01120D4540EF80DFB2
:100D3300F0EEA3F0797F7CFD7D017A337B331201E2
:100D430072221201967AC87B0012021479071202EA
:100D530002C3EF9400A2D265D0332274F012048C44
:100D630074FB1204357401120480EAF0A3EBF0A3C0
:100D7300ECF0A3EDF07AC57B037401120480C0820A
:100D8300C0839003DD78081203BED083D082780835
:100D9300120274851082851183501C7401F01204B1
:100DA3008078081203BE7808120387740112048046
:100DB30078081203CD8002E4F07401120480780CE9
:100DC3001203BE9003F178081203BE780C7908125F
:100DD3000349E50824308A828B83F0A3AA82AB837C
:100DE3007401120480780C1203BE9003F178081288
:100DF30003BE780C79081203497401120480780C3D
:100E03001203CD740112048078081203BEE508456D
:100E130009450A450B70A2851082851183E0A2E083
:100E2300500B8A828B83742DF0A30AAB838A828B47
:100E330083E4120E7078C57903801D8A828B83E068
:100E4300FC88828983E08A828B83120E70EC88820D
:100E53008983F0A3A882A983C3E89AE99B40DC7A3B
:100E6300C57B03740512044B7F080204F8F0EA24DF
:100E7300FF1AEB34FFFB22C082C083906189E044F8
:100E830060F090619074D5F09061FA7409F090610C
:100E9300B27415F09061AEE4F0120256790080044A
:100EA300F0EBA3F0D083D08202010BC082C0837524
:100EB300F005E9A424D490618F80E8C082C083EA5E
:100EC30090617480DBC082C083EA90617280D174C8
:100ED300F612048C75E1EE7591FD78008003120E15
:100EE300EEE8C39940F87F020204F88808EA25086F
:100EF300F582EB3400F583E0F5D90822C082C08384
:100F0300800DE5D98A828B83F0A3AA82AB8319E98A
:100F130070F0020EA7790002010B75E1E9E591A2D9
:100F2300E150FA7591FD80ED75E1EC75E1E30201A5
:100F33000B75E1EF75E1EC02010BC082C083906198
:100F4300A3E0C2E6F0539AFE020EA7C082C08390CC
:100F530061A3E0D2E6F0439A01020EA7C082C083E8
:100F6300E5A8F8C2AF9002BDEAF0A3EBF0E8A2E770
:100F730092AF020EA7C082C083906193E0542270A7
:100F8300F8020EA7C082C083D2A4D2A37A027B0048
:100F930012020EC2A38002D2A47A027B0012020EB6
:100FA300C2A47A027B0012020ED083D08202010B0C
:100FB300C082C083C2A37A027B0012020ED2A47A3B
:100FC300027B0012020ED2A380D8C082C083C2A3C8
:100FD30080C574F712048CE9FF7E08EFA2E7500482
:100FE300D2A38002C2A3D2A4C333FF120FFC1EEE0E
:100FF30070E980007F010204F87A027B0012020E7E
:10100300C2A47A027B0012020E2274F712048CE946
:10101300FFEAFE121023EEF91210361201B480D447
:101023001201AE79E012103A790012103AEFF91278
:10103300103A2212103A221201C01201BA22C082BF
:10104300C0837A6279001201C67AF779021201C667
:101053007A0779031201C67A0079041201C67A006D
:1010630079051201C67A30790E1201C67A6A7900BF
:101073001201C6020FACC082C083E914601714606A
:101083001C14602114602614602B14603014603526
:1010930014603A803F900282E0D2E0803690028270
:1010A300E0D2E1802E900282E0D2E280269002829A
:1010B300E0D2E3801E900282E0D2E48016900282A6
:1010C300E0D2E5800E900282E0D2E68006900282B2
:1010D300E0D2E7F0900282E0F590D083D082020163
:1010E3000BC082C083E914601714601C14602114C0
:1010F300602614602B14603014603514603A803F0E
:10110300900282E064018036900282E06402802EC5
:10111300900282E064048026900282E06408801ECC
:10112300900282E064108016900282E06420800EB8
:10113300900282E064408006900282E06480F002C4
:1011430010D7C082C083790012019CD083D0820261
:10115300010BEBC313FBEA13FAEAF8EBF9E824FFFC
:10116300FAE934FFFBE849601200000000000000C8
:1011730000000000000000000080DE02010B74F795
:1011830012048CEAFEEBFFEEF8EFF9E824FFFEE928
:1011930034FFFFE84960097AE87B0312020E80E717
:1011A3007F010204F8C082C08312020853F5EFD214
:1011B300A443FF1053F5F7D2A343FF0853F5F753A6
:1011C300FFF743F70853F5FEC2A043FF0153F3BFF4
:1011D300C28643FD4075F4007590FF75FEFF9002D3
:1011E30082E4F07590001201EA1201CC1202681237
:1011F30001A2D083D08202010BC082C08353F1FECF
:1012030043F30C53F2F375868075C48075C2D875A9
:10121300C50B75C402438640D2AA75C10090033F33
:10122300E4F0A3F09003C2F0A3F0900341F0900325
:10123300C4F0D083D08202010BE5C65480F853BEBC
:10124300FBE59DA2E550FAE59DA2E240F40074019E
:10125300697007744948F5C68005E9700288C6E5D8
:10126300C6F8E59E6870FB43BE0402010B7900A239
:10127300A340107800A2A34002780008E8C3943288
:1012830040F309A2A440117800A2A4400278000808
:10129300E8C3943240F3790202010BD2AF02010B8F
:0812A300C2AF02010B02010BB6
:04000005000000E314
:00000001FF
