:020000040000FA
:030000000200E318
:0300130002076C75
:030033000206BD05
:03003B000207BBFE
:03004B0002074C5D
:03006B000205F794
:03007B000206502A
:1000830002071400000080FB12013FB900030200C5
:10009300CDE4900101785479028002F0A3D8FCD911
:1000A300FA900254AA82AB8390014278607901806E
:1000B30015E493A3AC82AD838A828B83F0A3AA82D7
:1000C300AB838C828D83D8E9D9E775820D7583085C
:1000D30074001200F575828675830074001200F5B2
:1000E30075D0007581BF751001751101759F0002F0
:1000F300008BC0F0F5F0E59F5407C0E0E59F54F88E
:1001030045F0D0F0F59FE473859FF053F0F8D0E00D
:1001130045F0F59F22D083D082E59F5407C0E0E4E9
:1001230093C0E0740193C0E07402935407C0F0F5E8
:10013300F0E59F54F845F0D0F0F59F2279012200B5
:10014300000000507265737320316F7232204D6F5F
:10015300646500507265737333207365742064653E
:100163006C6179004D6F6465002C50726F6772612A
:100173006D00496E7075743A00496E707574204451
:10018300656C61793A2020200030303030206D7367
:10019300202020202020202020000A00000012011F
:1001A300183611001201181C12001201181F120038
:1001B300120118221200120118CA11001201182A82
:1001C3001200120118100C001201183C0C0012014D
:1001D30018560C001201185E0C00120118660C0070
:1001E3001201188F0C00120118DC0C001201180503
:1001F3000D00120118530D001201188B0D0012018E
:1002030018700E001201187F0E001201188E0E00D6
:10021300120118BA0E00120118310F0012011858FA
:100223000F001201187F0F0012011825120012018E
:1002330018D31000120118E310001201180F110057
:100243001201188A1100120118820800120118B253
:100253000800120118EE0A00120118530B001201D4
:1002630018B70F00120118FE1100C3E09608A3E0AF
:100273009608A3E09608A3E096A2D265D03322E4C1
:10028300CFC0E0E4CEC0E0E4CDC0E0E4CCC0E07594
:10029300F020C3E633F608E633F608E633F608E65D
:1002A30033F6181818EC33FCED33FDEE33FEEF3361
:1002B300FFC3EC9709ED9709EE9709EF9719191901
:1002C300400FFFEC97FC09ED97FD09EE97FE191916
:1002D30006D5F0BEECF709EDF709EEF709EFF719CC
:1002E3001919D0E0FCD0E0FDD0E0FED0E0FF2212EF
:1002F300035A1818181202821203491919192212E3
:100303000349191919080808E618181820E7E01214
:10031300028212035A18181822090909E719191930
:1003230020E7DC080808E618181820E70302028211
:1003330012035A18181812028212035A18181812A4
:10034300034919191922E4C397F709E497F709E454
:1003530097F709E497F722E4C396F608E496F608BC
:10036300E496F608E496F622E0F608A3E0F608A37E
:10037300E0F608A3E0F622E6F008A3E6F008A3E619
:10038300F008A3E6F022700422600D18C6C333C63A
:1003930008C633C6D5E0F41822251010AF08F510AF
:1003A300400215118008F51040021511D2AF22C08A
:1003B300D0251010AF08F510500205118008F51074
:1003C30050020511D2AFD0D0222510F582E43511A9
:1003D300F58322E4732510C582C0E0E51134FFC51F
:1003E30083C0E0E510C3958224F810AF088583111C
:1003F3008582108008858311858210D2AFCEF0A349
:10040300E520F0A37808E608F0A3DEFAEFF0A3E511
:100413008124FAF8E608F0A3E608F0A3E608F0A3BF
:100423000808E608F0A3E608F0A315811581D0E0DB
:10043300FED0E0F8158115811581E8C0E0EEC0E03B
:1004430022851183851082E0A3FEE0A3F5207808BE
:10045300E0A3F608DFFAE0A3FFE0A3C0E0E0A3C057
:10046300E0E0A3C0E0E0A3C0E0E0A3C0E010AF0879
:100473008582108583118008858210858311D2AF10
:10048300D083D08202010BC0D02510C582C0E0E525
:100493001134FFC583C0E0E510C3958224F310AF88
:1004A300088583118582108008858311858210D287
:1004B300AFC8F0A3E9F0A3EAF0A3EBF0A37908E750
:1004C30009F0A3D8FAECF0A3EDF0A3EEF0A3EFF05C
:1004D300A3D0E0F0A3D0E0F0A3D0E0F0A3E520F0B8
:1004E300A3E5F0F0A322851183851082E0C0E0A389
:1004F300E0F9A3E0FAA3E0FBA37808E0F608A3DFA2
:10050300FAE0FCA3E0FDA3E0FEA3E0FFA3E0C0E06C
:10051300A3E0C0E0A3E0F5D0A3E0F520A3E0A3F5BA
:10052300F010AF08858311858210800885831185BB
:100533008210D2AFD082D083D0E0F8D0E032D08323
:10054300D082ECC0E0EDC0E0E493A3FCE493A3FD10
:10055300ED4C600D12058DEC24FFFCED34FFFD80A6
:10056300EFE493A3FCE493A3FDED4C600D1205CCE3
:10057300EC24FFFCED34FFFD80EFD0E0FDD0E0FC88
:10058300E493A3C0E0E493C0E022C0E0C3E4939605
:10059300087401939618400FE49366700808740179
:1005A30093661870007019A3A3C3E49396087401AB
:1005B300939618A3A3400DD0E0D0E0D0E002057DD0
:1005C300A3A3A3A3A3A3D0E022C0E0C0F088F0E4D8
:1005D300936670080874019366187000A8F0A3A3CB
:1005E300700BD0F0D0E0D0E0D0E002057DA3A3D023
:1005F300F0D0E022C0E074F112048AC2C5E589603C
:10060300477E00750801750900EE7808120389AF6B
:1006130008E5895F602BEEC333F8E433F9740228ED
:10062300F58274011206A66014EEC333F8E433F9BD
:10063300740228F58274011206B11203D6EFF45244
:10064300890EEEC3940840BB7F020204E9C0E07444
:10065300F112048AC2EBE58A60477E0075080175D2
:100663000900EE7808120389AF08E58A5F602BEE74
:10067300C333F8E433F9741228F58274011206A621
:100683006014EEC333F8E433F9741228F58274016D
:100693001206B11203D6EFF4528A0EEEC394084049
:1006A300BB80A539F583E0F8A3E0F9E8492239F5E1
:1006B30083E0F8A3E0F583888222C0E074F112049A
:1006C3008AC2E8E58B60477E00750801750900EE74
:1006D3007808120389AF08E58B5F602BEEC333F80C
:1006E300E433F9742228F58274011206A66014EE2D
:1006F300C333F8E433F9742228F58274011206B186
:100703001203D6EFF4528B0EEEC3940540BB0206E0
:100713004BC0E074F212048AA2AFE433FEC2AFE529
:10072300E9A2E6501A90012DE0F8A3E0F9E8496048
:1007330008E0F58388821203D6759B0053E9BFEE68
:10074300A2E092AF7F010204E9C0E074F212048ACE
:1007530090012FE0F8A3E0F9E8496008E0F5838809
:10076300821203D67F010204E9C0E0C0D0E8C0E0F2
:10077300E9C0E0C082C083E5C1C0E09001B2E0F807
:10078300743128F58274013400F583D0E0F09001D0
:10079300B1E0F8A3E0687004E595A3F09001B2E03E
:1007A30004F0C394804002E4F0D083D082D0E0F917
:1007B300D0E0F8D0D0D0E032C0E0C0D0E8C0E0C094
:1007C30008C009C082C083900234E0F8A3E06870D7
:1007D30008539AFBA374018026C2E9900234E0F522
:1007E3000874012508F074B42508F58274013400F7
:1007F300F583E0F5C1900234E0C394804002E4F055
:10080300D083D082D009D00880A61201A17A2C7B94
:10081300011201B3900246742CF0A37401F07C58CA
:100823007D027A00F91202257C687D027A00790242
:10083300120225120ACD603E6431700F7AFA7B00F2
:100843001201B3120249790112024F900244E0648B
:1008530032700F7AFA7B001201B312024979021245
:10086300024F900244E06433700C7AFA7B00120169
:10087300B3790312024F7A2C7B0112023D80B4C07C
:1008830082C0831202197C797D027A0079011202F7
:1008930025900244E0FB7A04790112021F7C7E7DDD
:1008A300027A057901120225D083D08202010B74EA
:1008B300F51203D874FC12039CE914600C14604015
:1008C3001470030209AE020A7E7E007F00EE04F973
:1008D30012025B75080075090074372508F58274E8
:1008E300023509120AA3120A939408120AB240E9C4
:1008F300120AD6120A889404EF120AB450CB80CDA0
:10090300900245E4F07C877D02FA79021202258089
:1009130022E064347006120ABC7404F0900244E0CE
:10092300FB900245E02406FA790212021F90024569
:10093300E004F07A2C7B0112023D900245E0C3945F
:10094300045028120ACD60EB64317007120ABC749C
:100953000180C8E064327007120ABC740280BCE0F4
:10096300643370AD120ABC740380B0750800750956
:100973000074402508F58274023509F583E0F91205
:10098300025B7E007F0074372EF58274023F120AE9
:10099300A3120A889408EF120AB440EA120AD61284
:1009A3000A939404120AB250C280C6900245E4F03E
:1009B3007C8E7D02FA79011202257C9E7D027A00EB
:1009C3007902120225804F7A2C7B0112023D12021A
:1009D30055120255E9C3940A503C120255E9FA90A4
:1009E3000245E0F8851082851183E58228F582E5CA
:1009F300833400F583E9F0E4FBFCFD1202618A080D
:100A03008B09AC08AD09900245E0FA790212022580
:100A1300900245E004F0900245E0C3940440A885A9
:100A23001082851183E0F875F0E8A4C8AAF075F088
:100A330003A42AF974011203CCE075F064A4FAABA1
:100A4300F0E82AF8E93BF974021203CCE075F00AE6
:100A5300A4FAABF0E82AF8E93BF974031203CCE0FB
:100A6300FAE82AF8E93400F9900246E8F0A3E9F03D
:100A73007C587D027A00790112022574041203B2B4
:100A83007F03020444EE24010EEF3400FFC3EE2281
:100A9300E5082401F508E5093400F509C3E5082252
:100AA300F583E0F912022B7AFA7B0012023D22E56C
:100AB300099400A2D265D03322900245E0F8744035
:100AC30028F58274023400F583221201FBE99002B7
:100AD30044F0227AC87B001201B3790012022B90F2
:100AE3000246E0FAA3E0FB12023D22C082C0831259
:100AF3000ACD6431700479018053E0643270047963
:100B030002804AE06433700479038041E064347006
:100B13000479048038E0643570047905802FE0643B
:100B230036700479068026E0643770047907801DE7
:100B3300E06438700479088014E06439700479093A
:100B4300800BE06430700479008002790B0208ABFB
:100B530074F71203D8E914600C1460291460491463
:100B6300606A020BF290023F7431120BF77481F04A
:100B7300A37442F0A37424F0A37418F0A3743CF09C
:100B8300A3747E806290023F7432120C0804F0A3B7
:100B93007404F0A37408F0A37410F0A37420F0A3FA
:100BA3007440F0A37480804690023F7433120C08A3
:100BB3007403F0A37407F0A3740FF0A3741FF0A3DE
:100BC300743FF0A3747FF0A374FF802290023F74FC
:100BD30034120BF77411F0A3E4F0A37433F0A3E41D
:100BE300F0A37477F0A3E4F0A374FFF0A3E4F07F21
:100BF30001020444120BFB22F0FB7A0D790112026D
:100C03001F90023722120BFB7401F0A322C082C093
:100C130083D2A4D2A37A027B00120237C2A380023A
:100C2300D2A47A027B00120237C2A47A027B00129A
:100C33000237D083D08202010BC082C083C2A37A61
:100C4300027B00120237D2A47A027B00120237D24F
:100C5300A380D8C082C083C2A380C5C082C083D210
:100C6300A380BD74F71203D8E9FF7E08EFA2E75013
:100C730004D2A38002C2A3D2A4C333FF120CCB1E9F
:100C8300EE70E98002EEF97F0102044474F7120367
:100C9300D87E00D2A353F5F753FFF753F7F753F773
:100CA3007F7A027B001202377F08D2A4EEC333FEA1
:100CB300A2A35003D2E0FE120CCB1FEF70EC53F54E
:100CC300F7D2A343FF0880BD7A027B00120237C22A
:100CD300A47A027B001202372274F71203D8E9FFC9
:100CE300EAFE120CF2EEF9120D371201CB809812C4
:100CF30001C579E0120D3B7900120D3BEFF9120D9E
:100D03003B2274F61203D81201C579E0120D37792C
:100D130000120D377908120D37120D421201D1124C
:100D230001E3E9F5081201D71201CBEEAA08FB7F14
:100D330002020444120D3B221201DD1201D12212E0
:100D430001CB1201C579E1120D3B1201E3E9FE2249
:100D5300C082C0837A6279001201E97AF7790212BC
:100D630001E97A0779031201E97A0079041201E9AA
:100D73007A0079051201E97A30790E1201E97A6A6B
:100D830079001201E9020C3574F61203D81201EF4F
:100D93008A088B097808120541000014008200F6C6
:100DA3000D8400FA0D8800FE0D9000220EA0002E87
:100DB3000E0201020E0401060E08010A0E1001269E
:100DC3000E2001320E02020E0E0402120E0802164B
:100DD3000E10022A0E2002360E02041A0E0404F22A
:100DE3000D08041E0E10043A0E20043E0E420E7E21
:100DF30030804E7E31804A7E3280467E3380427E12
:100E030034803E7E35803A7E3680367E3780327E31
:100E130038802E7E39802A7E2A80267E2380227E79
:100E230041801E7E42801A7E4380167E4480127E5D
:100E330045800E7E46800A7E5580067E4E80027E69
:100E43000090012CE004F0C394C94008E4F07A6AEE
:100E5300F91201E9EE60117AAA7B0A1201A77A144A
:100E63007B0012023D1201ADEEF9020D3274F7124E
:100E730003D8E9FE43FD40C286020F1274F7120342
:100E8300D8E9FE43FD40D286020F1274F71203D84D
:100E9300EAFEEBFF890880128E828F83E0F912024B
:100EA300078E828F83A3AE82AF83A80874FF28F5D1
:100EB300080470E4020F2CC082C08343FD40C2A02B
:100EC3007A1E120EFC79301202017A02120EFC1203
:100ED3000EF6120EF679101202017906120201794A
:100EE30001120EF8120219790C120201D083D0827A
:100EF30002010B7938120F07227B0012023D793071
:100F0300120F07221202017A027B0012023D228E87
:100F130090D2A07A027B00120237C2A07A507B00E3
:100F2300120237900101E0F5907F0102044474F747
:100F33001203D879801202017E1079201202071E53
:100F4300EE70F779C01202017E1079201202071E9B
:100F5300EE70F780D474F71203D8E9FF8A08EBFE2A
:100F630074026F70087440250844808004748045BF
:100F730008F9120201EEF912020780AD74F61203AA
:100F8300D889088A09ECFEEDFF74026508700874BD
:100F93004025094480800474804509F9120201EE5A
:100FA300FAEFFB120267EAF9EEFAEFFB12020D7F8A
:100FB3000202044474F01203D874FB12039C7401FC
:100FC3001203CCEAF0A3EBF0A3ECF0A3EDF07A4824
:100FD3007B0274011203CCC082C083900254780850
:100FE30012036BD083D082780812026D851082853C
:100FF3001183501C7401F01203CC780812036B7830
:101003000812035A74011203CC780812037A80027F
:10101300E4F074011203CC780C12036B9002AF78E6
:101023000812036B780C790812031CE50824308A34
:10103300828B83F0A3AA82AB8374011203CC780C56
:1010430012036B9002AF780812036B780C790812C5
:10105300031C74011203CC780C12037A740112037B
:10106300CC780812036BE5084509450A450B70A2C5
:10107300851082851183E0A2E0500B8A828B8374F2
:101083002DF0A30AAB838A828B83E41210C97848BC
:101093007902801D8A828B83E0FC88828983E08ABF
:1010A300828B831210C9EC88828983F0A3A882A95A
:1010B30083C3E89AE99B40DC7A487B0274051203F8
:1010C300B27F08020444F0EA24FF1AEB34FFFB2248
:1010D300C082C08379001201B9D083D08202010B90
:1010E300EBC313FBEA13FAEAF8EBF9E824FFFAE996
:1010F30034FFFBE84960120000000000000000001C
:101103000000000000000080DE02010B74F71203F0
:10111300D8EAFEEBFFEEF8EFF9E824FFFEE934FF2F
:10112300FFE84960097AE87B0312023780E77F0111
:10113300020444C082C08312023153F5EFD2A443A8
:10114300FF1053F5F7D2A343FF0853F5F753FFF707
:1011530043F70853F5FEC2A043FF0153F3BFC28612
:1011630043FD4075F4007590FF75FEFF900101E4A7
:10117300F07590001202131201F51202431201BF1F
:10118300D083D08202010BC082C08353F1FE43F3AC
:101193000C53F2F375868075C48075C2D875C50B80
:1011A30075C402438640D2AA75C1009001B1E4F030
:1011B300A3F0900234F0A3F09001B3F0900236F064
:1011C300D083D08202010BE5C65480F853BEFBE501
:1011D3009DA2E550FAE59DA2E240F4007401697016
:1011E30007744948F5C68005E9700288C6E5C6F864
:1011F300E59E6870FB43BE0402010BC082C0838A74
:10120300828B838001A3E070FCE582C39AFAE583B5
:101213009BFBD083D08202010B02010B02010B0264
:0C122300010B899002010BD2AF02010BFD
:04000005000000E314
:00000001FF
