:020000040000FA
:030000000200E318
:030013000205B033
:03003300020521A2
:03003B000205FFBC
:03006B0002045B31
:03007B000204B4C8
:1000830002057800000080FB12013FB90003020063
:10009300CDE4900101784479028002F0A3D8FCD921
:1000A300FA900244AA82AB839001427826790180B8
:1000B30015E493A3AC82AD838A828B83F0A3AA82D7
:1000C300AB838C828D83D8E9D9E77582517583061A
:1000D30074001200F575828675830074001200F5B2
:1000E30075D0007581BF751001751101759F0002F0
:1000F300008BC0F0F5F0E59F5407C0E0E59F54F88E
:1001030045F0D0F0F59FE473859FF053F0F8D0E00D
:1001130045F0F59F22D083D082E59F5407C0E0E4E9
:1001230093C0E0740193C0E07402935407C0F0F5E8
:10013300F0E59F54F845F0D0F0F59F227901225065
:100143007265737320316F7232204D6F6465004D99
:100153006F6465002C50726F6772616D00496E7039
:1001630075743A00120118ED0C00120118D30D003A
:10017300120118D60D00120118D90D0012011881B1
:100183000D00120118E10D00120118E3080012011D
:10019300180F09001201182909001201183109006A
:1001A300120118390900120118620900120118AF6F
:1001B3000900120118D80900120118260A001201B9
:1001C300185E0A00120118430B00120118520B00AB
:1001D300120118610B001201188D0B001201180493
:1001E3000C001201182B0C00120118520C00120102
:1001F30018DC0D001201188A0C001201189A0C0069
:10020300120118C60C00120118410D001201189EAC
:100213000600120118CE060012011826080012016A
:1002230018B50D00700422600D18C6C333C608C686
:1002330033C6D5E0F41822E4732510C582C0E0E587
:100243001134FFC583C0E0E510C3958224F810AFD5
:10025300088583118582108008858311858210D2D9
:10026300AFCEF0A3E520F0A37808E608F0A3DEFA0A
:10027300EFF0A3E58124FAF8E608F0A3E608F0A37B
:10028300E608F0A30808E608F0A3E608F0A3158142
:100293001581D0E0FED0E0F8158115811581E8C005
:1002A300E0EEC0E022851183851082E0A3FEE0A387
:1002B300F5207808E0A3F608DFFAE0A3FFE0A3C087
:1002C300E0E0A3C0E0E0A3C0E0E0A3C0E0E0A3C09F
:1002D300E010AF0885821085831180088582108520
:1002E3008311D2AFD083D08202010BC0D02510C5B9
:1002F30082C0E0E51134FFC583C0E0E510C39582F9
:1003030024F310AF0885831185821080088583113B
:10031300858210D2AFC8F0A3E9F0A3EAF0A3EBF013
:10032300A37908E709F0A3D8FAECF0A3EDF0A3EE64
:10033300F0A3EFF0A3D0E0F0A3D0E0F0A3D0E0F07F
:10034300A3E520F0A3E5F0F0A322851183851082B5
:10035300E0C0E0A3E0F9A3E0FAA3E0FBA37808E0A0
:10036300F608A3DFFAE0FCA3E0FDA3E0FEA3E0FFB1
:10037300A3E0C0E0A3E0C0E0A3E0F5D0A3E0F52054
:10038300A3E0A3F5F010AF088583118582108008E0
:10039300858311858210D2AFD082D083D0E0F8D08C
:1003A300E032D083D082ECC0E0EDC0E0E493A3FC64
:1003B300E493A3FDED4C600D1203F1EC24FFFCED7F
:1003C30034FFFD80EFE493A3FCE493A3FDED4C60C5
:1003D3000D120430EC24FFFCED34FFFD80EFD0E080
:1003E300FDD0E0FCE493A3C0E0E493C0E022C0E0CE
:1003F300C3E49396087401939618400FE4936670D0
:100403000808740193661870007019A3A3C3E493DA
:1004130096087401939618A3A3400DD0E0D0E0D0C2
:10042300E00203E1A3A3A3A3A3A3D0E022C0E0C0FF
:10043300F088F0E4936670080874019366187000FE
:10044300A8F0A3A3700BD0F0D0E0D0E0D0E002037B
:10045300E1A3A3D0F0D0E022C0E074F11202EEC217
:10046300C5E58960477E00750801750900EE7808C7
:10047300120227AF08E5895F602BEEC333F8E4333C
:10048300F9740228F582740112050A6014EEC3336D
:10049300F8E433F9740228F5827401120515120287
:1004A3003AEFF452890EEEC3940840BB7F02020375
:1004B3004DC0E074F11202EEC2EBE58A60477E00A4
:1004C300750801750900EE7808120227AF08E58A5E
:1004D3005F602BEEC333F8E433F9741228F58274AA
:1004E3000112050A6014EEC333F8E433F9741228D9
:1004F300F582740112051512023AEFF4528A0EEED8
:10050300C3940840BB80A539F583E0F8A3E0F9E87C
:10051300492239F583E0F8A3E0F583888222C0E01D
:1005230074F11202EEC2E8E58B60477E00750801A4
:10053300750900EE7808120227AF08E58B5F602B80
:10054300EEC333F8E433F9742228F58274011205FB
:100553000A6014EEC333F8E433F9742228F5827485
:100563000112051512023AEFF4528B0EEEC39405F5
:1005730040BB0204AFC0E074F21202EEA2AFE43358
:10058300FEC2AFE5E9A2E6501A90012DE0F8A3E020
:10059300F9E8496008E0F583888212023A759B0006
:1005A30053E9BFEEA2E092AF7F0102034DC0E0C06A
:1005B300D0E8C0E0E9C0E0C082C083E5C1C0E090FC
:1005C30001B0E0F8742F28F58274013400F583D06C
:1005D300E0F09001AFE0F8A3E0687004E595A3F0C4
:1005E3009001B0E004F0C394804002E4F0D083D0E3
:1005F30082D0E0F9D0E0F8D0D0D0E032C0E0C0D073
:10060300E8C0E0C008C009C082C083900232E0F8AD
:10061300A3E0687008539AFBA374018026C2E99093
:100623000232E0F50874012508F074B22508F5825A
:1006330074013400F583E0F5C1900232E0C3948085
:100643004002E4F0D083D082D009D00880A6120102
:10065300677A2C7B011201797C447D027A0079014F
:100663001201EB1207CE602A6431700F7AFA7B0015
:1006730012017912020F7901120215900242E0640D
:1006830032700F7AFA7B0012017912020F7902128B
:1006930002157A2C7B0112020380C8C082C0831228
:1006A30001DF7C547D027A0079011201EB90024252
:1006B300E0FB7A0479011201E57C597D027A057920
:1006C300011201EBD083D08202010B74F512023CBC
:1006D300E914600614603A0207BF7E007F00EE044F
:1006E300F912021B75080075090074352508F58297
:1006F300740235091207D712080294081207C4407E
:10070300E91207E31207F49404EF1207C650CB80F3
:10071300CD900243E4F07C627D02FA79021201EB90
:100723008022E0643470061208157404F0900242CB
:10073300E0FB900243E02406FA79021201E59002FD
:1007430043E004F07A2C7B01120203900243E0C3DE
:10075300940450281207CE60EB6431700712081519
:10076300740180C8E064327007120815740280BCFB
:10077300E0643370AD120815740380B0750800751A
:100783000900743E2508F58274023509F583E0F902
:1007930012021B7E007F0074352EF58274023F1215
:1007A30007D71207F49408EF1207C640EA1207E3CB
:1007B30012080294041207C450C280C67F030202C7
:1007C300A8E5099400A2D265D033221201C1E990B1
:1007D3000242F022F583E0F91201F17AFA7B00225A
:1007E3007AC87B0012017979001201F17A2C7B011E
:1007F30022120203EE24010EEF3400FFC3EE221295
:100803000203E5082401F508E5093400F509C3E509
:100813000822900243E0F8743E28F5827402340003
:10082300F5832274F712023CE914600C1460291456
:10083300604914606A0208C590023D74311208CA07
:100843007481F0A37442F0A37424F0A37418F0A38A
:10085300743CF0A3747E806290023D74321208DB14
:1008630004F0A37404F0A37408F0A37410F0A37449
:1008730020F0A37440F0A37480804690023D74334B
:100883001208DB7403F0A37407F0A3740FF0A374CE
:100893001FF0A3743FF0A3747FF0A374FF80229032
:1008A300023D74341208CA7411F0A3E4F0A3743344
:1008B300F0A3E4F0A37477F0A3E4F0A374FFF0A330
:1008C300E4F07F010202A81208CE22F0FB7A0D7930
:1008D300011201E5900235221208CE7401F0A32221
:1008E300C082C083D2A4D2A37A027B001201FDC2CC
:1008F300A38002D2A47A027B001201FDC2A47A0271
:100903007B001201FDD083D08202010BC082C08321
:10091300C2A37A027B001201FDD2A47A027B0012E9
:1009230001FDD2A380D8C082C083C2A380C5C08288
:10093300C083D2A380BD74F712023CE9FF7E08EFA7
:10094300A2E75004D2A38002C2A3D2A4C333FF12EE
:10095300099E1EEE70E98002EEF97F010202A8747F
:10096300F712023C7E00D2A353F5F753FFF753F778
:10097300F753F77F7A027B001201FD7F08D2A4EEC2
:10098300C333FEA2A35003D2E0FE12099E1FEF70F1
:10099300EC53F5F7D2A343FF0880BD7A027B001224
:1009A30001FDC2A47A027B001201FD2274F7120238
:1009B3003CE9FFEAFE1209C5EEF9120A0A12019197
:1009C300809812018B79E0120A0E7900120A0EEF59
:1009D300F9120A0E2274F612023C12018B79E0120C
:1009E3000A0A7900120A0A7908120A0A120A151267
:1009F30001971201A9E9F50812019D120191EEAACE
:100A030008FB7F020202A8120A0E221201A312019E
:100A1300972212019112018B79E1120A0E1201A998
:100A2300E9FE22C082C0837A6279001201AF7AF7AD
:100A330079021201AF7A0779031201AF7A007904C0
:100A43001201AF7A0079051201AF7A30790E1201E3
:100A5300AF7A6A79001201AF02090874F612023CF8
:100A63001201B58A088B0978081203A50000140047
:100A73008200C90A8400CD0A8800D10A9000F50AD1
:100A8300A000010B0201D50A0401D90A0801DD0AFD
:100A93001001F90A2001050B0202E10A0402E50A2A
:100AA3000802E90A1002FD0A2002090B0204ED0AFA
:100AB3000404C50A0804F10A10040D0B2004110BE9
:100AC300150B7E30804E7E31804A7E3280467E33E7
:100AD30080427E34803E7E35803A7E3680367E3755
:100AE30080327E38802E7E39802A7E2A80267E239D
:100AF30080227E41801E7E42801A7E4380167E4481
:100B030080127E45800E7E46800A7E5580067E4E8C
:100B130080027E0090012CE004F0C394C94008E4F5
:100B2300F07A6AF91201AFEE60117AAA7B0A120118
:100B33006D7A147B00120203120173EEF9020A05A7
:100B430074F712023CE9FE43FD40C286020BE574D2
:100B5300F712023CE9FE43FD40D286020BE574F72F
:100B630012023CEAFEEBFF890880128E828F83E03B
:100B7300F91201CD8E828F83A3AE82AF83A808744E
:100B8300FF28F5080470E4020BFFC082C08343FD15
:100B930040C2A07A1E120BCF79301201C77A02121B
:100BA3000BCF120BC9120BC979101201C7790612A8
:100BB30001C77901120BCB1201DF790C1201C7D0E7
:100BC30083D08202010B7938120BDA227B001202E6
:100BD300037930120BDA221201C77A027B00120268
:100BE30003228E90D2A07A027B001201FDC2A07A6A
:100BF300507B001201FD900101E0F5907F0102029C
:100C0300A874F712023C79801201C77E1079201272
:100C130001CD1EEE70F779C01201C77E1079201244
:100C230001CD1EEE70F780D474F712023CE9FF8AFF
:100C330008EBFE74026F700874402508448080043A
:100C430074804508F91201C7EEF91201CD80AD7425
:100C5300F612023C89088A09ECFEEDFF740265086E
:100C63007008744025094480800474804509F91292
:100C730001C7EEFAEFFB120221EAF9EEFAEFFB12DB
:100C830001D37F020202A8C082C083790012017FD0
:100C9300D083D08202010BEBC313FBEA13FAEAF809
:100CA300EBF9E824FFFAE934FFFBE849601200009E
:100CB300000000000000000000000000000080DED3
:100CC30002010B74F712023CEAFEEBFFEEF8EFF9B8
:100CD300E824FFFEE934FFFFE84960097AE87B0373
:100CE3001201FD80E77F010202A8C082C0831201C6
:100CF300F753F5EFD2A443FF1053F5F7D2A343FF05
:100D03000853F5F753FFF743F70853F5FEC2A04323
:100D1300FF0153F3BFC28643FD4075F4007590FF96
:100D230075FEFF900101E4F07590001201D91201E4
:100D3300BB120209120185D083D08202010BC0824B
:100D4300C08353F1FE43F30C53F2F375868075C4ED
:100D53008075C2D875C50B75C402438640D2AA7587
:100D6300C1009001AFE4F0A3F0900232F0A3F09041
:100D730001B1F0900234F0D083D08202010BE5C6BA
:100D83005480F853BEFBE59DA2E550FAE59DA2E22F
:100D930040F4007401697007744948F5C68005E999
:100DA300700288C6E5C6F8E59E6870FB43BE040280
:100DB300010BC082C0838A828B838001A3E070FC15
:100DC300E582C39AFAE5839BFBD083D08202010BB1
:100DD30002010B02010B02010B899002010BD2AF3E
:030DE30002010BFF
:04000005000000E314
:00000001FF
