:020000040000FA
:030000000200E318
:0300130002066280
:03003B000206B109
:03004B0002062684
:1000830002062A00000080FB12013FB900030200B0
:10009300CDE490010178A779038002F0A3D8FCD9BD
:1000A300FA9003A7AA82AB83900142782579018055
:1000B30015E493A3AC82AD838A828B83F0A3AA82D7
:1000C300AB838C828D83D8E9D9E7758282758309E6
:1000D30074001200F575828675830074001200F5B2
:1000E30075D0007581BF751001751101759F0002F0
:1000F300008BC0F0F5F0E59F5407C0E0E59F54F88E
:1001030045F0D0F0F59FE473859FF053F0F8D0E00D
:1001130045F0F59F22D083D082E59F5407C0E0E4E9
:1001230093C0E0740193C0E07402935407C0F0F5E8
:10013300F0E59F54F845F0D0F0F59F22790122FFB6
:1001430000000000000000000000000000000001AB
:100153000000000500000009000000FFFFFFFF0A88
:10016300000000120118030700120118F70700121C
:100173000118710800120118730900120118680FA1
:1001830000120118BD1100120118ED100012011820
:100193002C1100120118891100120118EB11001221
:1001A3000118F01100120118760E00120118A20EA8
:1001B30000120118BC0E00120118C40E001201181F
:1001C300FC0E00120118300F00120118EC0A001285
:1001D3000118FB0A001201180A0B00120118360B52
:1001E300001201185C0B00120118D30B0012011846
:1001F3000E0C001201180A1000120118461000120A
:1002030001188A10001201189A1000120118C61062
:1002130000120118690D001201189D0D001201183A
:10022300AD0D00120118B70D00120118C10D001217
:100233000118EE0D001201180C0E001201181A0E0F
:1002430000120118230E001201182C0E00120118BF
:100253003D0E001201184E0E00120118670E001217
:100263000118491100120118680A00120118960AB0
:10027300001201184D0C00C3E09608A3E09608A3F2
:10028300E09608A3E096A2D265D03322C008C3E06B
:1002930096F50808A3E096420808A3E096420808EA
:1002A300A3E0964208A2D265D033E5087001D3D00B
:1002B3000822E4CFC0E0E4CEC0E0E4CDC0E0E4CC6B
:1002C300C0E075F020C3E633F608E633F608E633FC
:1002D300F608E633F6181818EC33FCED33FDEE336D
:1002E300FEEF33FFC3EC9709ED9709EE9709EF97FC
:1002F300191919400FFFEC97FC09ED97FD09EE97CB
:10030300FE191906D5F0BEECF709EDF709EEF7096A
:10031300EFF7191919D0E0FCD0E0FDD0E0FED0E0F2
:10032300FF2212038D1818181202B512037C191933
:10033300192212037C191919080808E6181818203D
:10034300E7E01202B512038D18181822090909E70C
:1003530019191920E7DC080808E618181820E7031C
:100363000202B512038D1818181202B512038D1864
:10037300181812037C19191922E4C397F709E49793
:10038300F709E497F709E497F722E4C396F608E43C
:1003930096F608E496F608E496F622E026F608A315
:1003A300E036F608A3E036F608A3E036F622E026A8
:1003B300F008A3E036F008A3E036F008A3E036F037
:1003C30022E0F608A3E0F608A3E0F608A3E0F6228D
:1003D300E6F008A3E6F008A3E6F008A3E6F022E0BF
:1003E300FAA3E0FBA3E0FCA3E0FD22EAF0A3EBF019
:1003F300A3ECF0A3EDF022CAC0E0E6F0A308DAFA1A
:10040300D0E0FA22CAC0E0E0A3C582CCC582C5838E
:10041300CDC583F0A3C582CCC582C583CDC583DAA0
:10042300E6D0E0CA22251010AF08F51040021511DE
:100433008008F51040021511D2AF22C0D02510104C
:10044300AF08F510500205118008F5105002051190
:10045300D2AFD0D0222510F58210AF08F51040029C
:1004630015118008F51040021511D2AF85118322B2
:100473002510F582E43511F58322E4732510C58236
:10048300C0E0E51134FFC583C0E0E510C3958224C5
:10049300F810AF0885831185821080088583118544
:1004A3008210D2AFCEF0A3E520F0A37808E608F0DF
:1004B300A3DEFAEFF0A3E58124FAF8E608F0A3E659
:1004C30008F0A3E608F0A30808E608F0A3E608F09E
:1004D300A315811581D0E0FED0E0F81581158115B3
:1004E30081E8C0E0EEC0E022851183851082E0A39D
:1004F300FEE0A3F5207808E0A3F608DFFAE0A3FF07
:10050300E0A3C0E0E0A3C0E0E0A3C0E0E0A3C0E05C
:10051300E0A3C0E010AF08858210858311800885B1
:100523008210858311D2AFD083D08202010BC0D059
:100533002510C582C0E0E51134FFC583C0E0E51096
:10054300C3958224F310AF08858311858210800838
:10055300858311858210D2AFC8F0A3E9F0A3EAF036
:10056300A3EBF0A37908E709F0A3D8FAECF0A3ED25
:10057300F0A3EEF0A3EFF0A3D0E0F0A3D0E0F0A35C
:10058300D0E0F0A3E520F0A3E5F0F0A322851183EA
:10059300851082E0C0E0A3E0F9A3E0FAA3E0FBA3A7
:1005A3007808E0F608A3DFFAE0FCA3E0FDA3E0FE91
:1005B300A3E0FFA3E0C0E0A3E0C0E0A3E0F5D0A385
:1005C300E0F520A3E0A3F5F010AF08858311858241
:1005D300108008858311858210D2AFD082D083D05A
:1005E300E0F8D0E03274048000C0E0F40412045850
:1005F300D0E01203FA2274048000CCC0E0EDC0E026
:10060300E510C39CCCAD1150011D10AF068C108DAD
:100613001180068C108D11D2AF120407D0E0FDD0EB
:10062300E0FC2263800232C0E074F2120531A2AF13
:10063300E433FEC2AFE5E9A2E6501A90020EE0F8F9
:10064300A3E0F9E8496008E0F583888212047D7528
:100653009B0053E9BFEEA2E092AF7F01020590C079
:10066300E0C0D0E8C0E0E9C0E0C082C083E5C1C01B
:10067300E0900291E0F8741028F58274023400F5DA
:1006830083D0E0F0900290E0F8A3E0687004E59571
:10069300A3F0900291E004F0C394804002E4F0D010
:1006A30083D082D0E0F9D0E0F8D0D0D0E032C0E0FF
:1006B300C0D0E8C0E0C008C009C082C08390031363
:1006C300E0F8A3E0687008539AFBA374018026C284
:1006D300E9900313E0F50874012508F074932508E5
:1006E300F58274023400F583E0F5C1900313E0C38F
:1006F30094804002E4F0D083D082D009D00880A651
:10070300C082C08312024A12019C79017A7D7B0167
:1007130012023290017DE0C2E7F06405703479057E
:100723001207D85004D2F08002C2F0A2F0E4339052
:1007330003AFF0900182E0A2E740030207D09001EB
:1007430080E0F8900101E06860030207D0A3740120
:10075300807AE024F59003ACF090017DE0F9120774
:10076300D85004D2F08002C2F0A2F0E4339003AF79
:10077300F0900185E0F8A3E0F99003A8E8F0A3E97D
:10078300F09003AD7487F0A37401F01207E6748749
:1007930028F8740139F988828983E09003B0F088DE
:1007A300828983A3E0A2E7501C9003A7E0F890019D
:1007B30080E068601090017EE054DF644170069031
:1007C30003B17401F0900180E09003A7F01201A23D
:1007D30012025080187A7E7B0112023290017EE071
:1007E300A2E5229003ACE0F83395E0F922D083D060
:1007F3008202010B74F712047FEAFEEBFF1202146C
:10080300E9640170047901804E1201A2900108EE9F
:10081300F0A3EFF09003ADE4F0A3F090010304F034
:100823009003B31203E29001041203EE12085FA3D4
:10083300A3E0F912021A12095EFAA3E0FB120220E6
:1008430012085FE0FAA3E0FB1202267A667B01122C
:10085300025612019C79007F010204EB1208632205
:10086300900108E0F8A3E0F5838882A3A32274F43F
:1008730012047FEAFEEBFF8C088D09890A900103BD
:10088300E0700312023EE50AC394675005850A0B24
:100893008003750B6712025C12024A740B250B90DE
:1008A300010AF012096B90010B60047461800274F9
:1008B30041F0A37488F0900101E090010DF09001E4
:1008C30009120869E0F8A3E0F990010EE8F0A3E942
:1008D300F0A3EEF0A3EFF012095EF8A3E0F99001A4
:1008E30012E8F0A3E9F07A0080218A82A882E50861
:1008F30028F582E5093400F583E0C0E0741428F597
:100903008274013400F583D0E0F00AEAC3950B400A
:10091300D9740A250BF97A0A7B0112022C120250B0
:1009230012023812096B6012900102E4F07A4A7BDA
:1009330002120208900102E060047E0080027E0140
:10094300900103E07003120244EEA2E0400690011E
:1009530001E004F0EEF97F040204EB900108E0F8F3
:10096300A3E0F5838882E022120863A3A3A3E02215
:10097300C082C083900103E4F01202440207F074C2
:10098300FC1204289003977411F0A3F0A304F0A3BE
:100993007401F012017E79081201F69003BB120371
:1009A300E28510828511831203EE9003BF7808124B
:1009B30003C49003957422F0A3F07A957B0312018C
:1009C3006C120178803C74016870309003B778082A
:1009D30012028F50089003C3780812039E780812FE
:1009E30005E87A4D79021201F0740412043E850879
:1009F3000C85090DAA0CAB0D12026E7A647B0012F2
:100A0300020E120184E9F874026870BA85108285B7
:100A13001183C082C0839003B7780C1203C4D083C0
:100A2300D082780C12027A40139003C3780C12031D
:100A3300C4851082851183780C1203B185108285D9
:100A430011831205F97A5779011201F07404120423
:100A53003E851082851183780C1203C4AA0CAB0D5A
:100A6300120268809674F712047FEAFEEBFF90038C
:100A7300167431120AC179011201FC79021201FCC8
:100A830079031201FC7A647B00120AD340E07F01F0
:100A93000204EB74F712047FEAFEEBFF9003167473
:100AA30032120AC179041201FC79051201FC79069C
:100AB3001201FC7A2C7B01120AD340E080D0F0EEC5
:100AC300A3F0797F7C167D037A337B331201722284
:100AD3001201907AC87B0012020E79071201FCC33F
:100AE300EF9400A2D265D0332274F712047FE9FE9B
:100AF30043FD40C286020BB474F712047FE9FE4340
:100B0300FD40D286020BB474F712047FEAFEEBFFBA
:100B1300890880128E828F83E0F91201D28E828F30
:100B230083A3AE82AF83A80874FF28F5080470E49A
:100B3300020BCE74F712047F8908EAFEEBFF7402FE
:100B43006508700479C0800279801201CC7910EEB7
:100B5300FAEFFB1201D8020BCEC082C08343FD40E3
:100B6300C2A07A1E120B9E79301201CC7A02120BAC
:100B73009E120B98120B9879101201CC7906120170
:100B8300CC7901120B9A1201EA790C1201CCD083B1
:100B9300D08202010B7938120BA9227B0012020EBC
:100BA3007930120BA9221201CC7A027B0012020EB9
:100BB300228E90D2A07A027B00120208C2A07A5041
:100BC3007B001202089001FDE0F5907F010204EB27
:100BD30074F712047F79801201CC7E107920120100
:100BE300D21EEE70F779C01201CC7E10792012016B
:100BF300D21EEE70F780D4AA08AB09AC0AAD0B1273
:100C030002748A088B09A808A9092274F412047FC4
:100C1300E9FFEAFE740C12047378081203C4120B82
:100C2300FAEE9001FEF0A3743AF088828983E09093
:100C33000200F07420A3780DF0A3D8FC7AFE7B01A8
:100C4300EFF91201DE7F040204EB74F012047F74E7
:100C5300FB1204287401120473EAF0A3EBF0A3EC73
:100C6300F0A3EDF07A9B7B037401120473C082C07E
:100C7300839003B378081203C4D083D08278081218
:100C8300027A851082851183501C7401F01204735B
:100C930078081203C4780812038D74011204737860
:100CA300081203D38002E4F07401120473780C1267
:100CB30003C49003C778081203C4780C790812039D
:100CC3004FE50824308A828B83F0A3AA82AB837416
:100CD30001120473780C1203C49003C7780812033B
:100CE300C4780C790812034F7401120473780C1240
:100CF30003D3740112047378081203C4E508450989
:100D0300450A450B70A2851082851183E0A2E0504D
:100D13000B8A828B83742DF0A30AAB838A828B8325
:100D2300E4120D5F789B7903801D8A828B83E0FC3C
:100D330088828983E08A828B83120D5FEC888289A3
:100D430083F0A3A882A983C3E89AE99B40DC7A9B3A
:100D53007B03740512043E7F080204EBF0EA24FFD0
:100D63001AEB34FFFB22C082C083906189E04460A8
:100D7300F090619074D5F09061FA7409F09061B2CB
:100D83007415F09061AEE4F012025079008004F023
:100D9300EBA3F0D083D08202010BC082C08375F035
:100DA30005E9A424D490618F80E8C082C083EA90CF
:100DB300617480DBC082C083EA90617280D174F673
:100DC30012047F75E1EE7591FD78008003120DDD4D
:100DD300E8C39940F87F020204EB8808EA2508F586
:100DE30082EB3400F583E0F5D90822C082C083800A
:100DF3000DE5D98A828B83F0A3AA82AB8319E970AC
:100E0300F0020D96790002010B75E1E9E591A2E18B
:100E130050FA7591FD80ED75E1EC75E1E302010B8C
:100E230075E1EF75E1EC02010BC082C0839061A311
:100E3300E0C2E6F0539AFE020D96C082C083906131
:100E4300A3E0D2E6F0439A01020D96C082C083E587
:100E5300A8F8C2AF90020EEAF0A3EBF0E8A2E79283
:100E6300AF020D96C082C083906193E0542270F864
:100E7300020D96C082C083D2A4D2A37A027B001251
:100E83000208C2A38002D2A47A027B00120208C223
:100E9300A47A027B00120208D083D08202010BC025
:100EA30082C083C2A37A027B00120208D2A47A0210
:100EB3007B00120208D2A380D8C082C083C2A38061
:100EC300C574F712047FE9FF7E08EFA2E75004D24E
:100ED300A38002C2A3D2A4C333FF120EEB1EEE7093
:100EE300E980007F010204EB7A027B00120208C250
:100EF300A47A027B001202082274F712047FE9FF2E
:100F0300EAFE120F12EEF9120F251201AE80D4126F
:100F130001A879E0120F297900120F29EFF9120FB6
:100F23002922120F29221201BA1201B422C082C04F
:100F3300837A6279001201C07AF779021201C07ACA
:100F43000779031201C07A0079041201C07A00798B
:100F5300051201C07A30790E1201C07A6A79001243
:100F630001C0020E9BC082C08312020253F4FEC270
:100F73009043FE0153F4FDC29143FE0253F4FBC2BE
:100F83009243FE0453F4F7C29343FE0853F4EFC2B3
:100F93009443FE1053F4DFC29543FE2053F4BFC2C3
:100FA3009643FE4053F47FC29743FE8053F5F753B5
:100FB300FFF753F7F753F77F53F5EF53FFEF53F76C
:100FC300EF53F77F53F5FEC2A043FF0153F3BFC2B4
:100FD3008643FD4075F4007590FF75FEFF53F3FDE6
:100FE300D28143FD027AAA7B0A12018A9001FDE4B1
:100FF300F07590001201E41201C612026212019C04
:10100300D083D08202010BE91460171460181460B6
:101013001914601A14601B14601C14601D14601EE4
:10102300801ED290801AD2918016D2928012D293CF
:10103300800ED294800AD2958006D2968002D297EF
:1010430002010BE914601714601914601B14601D6E
:1010530014601F146021146023146025802663909C
:10106300018021639002801C6390048017639008C1
:101073008012639010800D639020800863904080FD
:101083000363908002010BC082C083790012019632
:10109300D083D08202010BEBC313FBEA13FAEAF805
:1010A300EBF9E824FFFAE934FFFBE849601200009A
:1010B300000000000000000000000000000080DECF
:1010C30002010B74F712047FEAFEEBFFEEF8EFF96F
:1010D300E824FFFEE934FFFFE84960097AE87B036F
:1010E30012020880E77F010204EB74F012047F43CD
:1010F300E40C750C48750DE8750E01750F008A0830
:101103008B09E4F50AF50B780C790812034F850D6A
:1011130009E509F5DBE50CF5DA75E54453E4EF532E
:10112300E4FDC2B97F080204EBC082C08375E2000C
:1011330043E402D2B912020E53E4FDC2B9D281D004
:1011430083D08202010BC082C08353F1FE43F30CB0
:1011530053F2F375868075C48075C2D875C50B7557
:10116300C402438640D2AA75C100900290E4F0A362
:10117300F0900313F0A3F0900292F0900315F0D0D7
:1011830083D08202010BE5C65480F853BEFBE59D74
:10119300A2E550FAE59DA2E240F4007401697007EC
:1011A300744948F5C68005E9700288C6E5C6F8E5C6
:1011B3009E6870FB43BE0402010B7900A2A340109A
:1011C3007800A2A34002780008E8C3943240F309F0
:1011D300A2A440117800A2A44002780008E8C394B6
:1011E3003240F3790202010BD2AF02010BC2AF020C
:0211F300010BEE
:04000005000000E314
:00000001FF
