:020000040000FA
:030000000200E318
:03001300020E38A2
:03003300020DA318
:03003B00020E8E24
:03004B00020CDDC7
:03006B00020CE79D
:03007B00020D4132
:10008300020DFB00000080FB120137B900030200E0
:10009300CDE4900101784579028002F0A3D8FCD920
:1000A300FA900245AA82AB8390013A786E79018077
:1000B30015E493A3AC82AD838A828B83F0A3AA82D7
:1000C300AB838C828D83D8E9D9E77582AA758315B2
:1000D30074001200F575828675830074001200F5B2
:1000E30075D0007581BF751001751101759F0002F0
:1000F300008BF5F0E59F5407C0E0E59F54F845F009
:10010300F59FE473859FF053F0F8D0E045F0F59F39
:1001130022D083D082E59F5407C0E0E493C0E0740B
:100123000193C0E07402935407F5F0E59F54F8453A
:10013300F0F59F227901222A2A204D3237302054AC
:1001430065737420202A2A0044493D5B315D5B318D
:100153005D20444F3D5B305D003234323000323439
:1001630033300032343331003235323000323533FC
:1001730030003235333100323531300032353131F0
:1001830000313131300031313131002D2D2D2D0031
:100193002A2A2043437878787820282029202A2A7D
:1001A30000000000120114A41800120114C9180061
:1001B300120114D51800120114F917001201140AC0
:1001C30015001201144C15001201148315001201BD
:1001D300148D1500120114E718001201145A1900A6
:1001E3001201146C11001201148C1100120114ADD0
:1001F3001100120114CC1100120114D411001201C8
:1002030014FA11001201143B1200120114641200BB
:10021300120114B11200120114E91200120114E6C2
:100223000E00120114160F00120114460F001201E2
:1002330014BD0F00120114E90F001201140810007D
:100243001201142F1000120114CA10001201140914
:1002530011001201142A1700120114BB1600120117
:1002630014CB1600120114FD16001201141D1900FF
:100273001201142719001201145C18001201144A08
:100283001600120114D0130012011490140012016D
:10029300143C1900120114921700E4CFC0E0E4CE1D
:1002A300C0E0E4CDC0E0E4CCC0E075F020C3E633A9
:1002B300F608E633F608E633F608E633F6181818B8
:1002C300EC33FCED33FDEE33FEEF33FFC3EC970964
:1002D300ED9709EE9709EF97191919400FFFEC975E
:1002E300FC09ED97FD09EE97FE191906D5F0BEEC52
:1002F300F709EDF709EEF709EFF7191919D0E0FC43
:10030300D0E0FDD0E0FED0E0FF22120375181818EC
:1003130012029D120364191919221203641919197F
:10032300080808E618181820E7E012029D12037562
:1003330018181822090909E719191920E7DC080810
:1003430008E618181820E70302029D12037518180F
:100353001812029D1203751818181203641919193B
:1003630022E4C397F709E497F709E497F709E497B9
:10037300F722E4C396F608E496F608E496F608E452
:1003830096F622CAC0E0E6F0A308DAFAD0E0FA2231
:10039300CAC0E0E0A3C582CCC582C583CDC583F0C6
:1003A300A3C582CCC582C583CDC583DAE6D0E0CAB6
:1003B30022600D08C6A2E713C618C613C6D5E0F31C
:1003C30022700422600D18C6C333C608C633C6D5CF
:1003D300E0F41822251010AF08F510400215118023
:1003E30008F51040021511D2AF22C0D0251010AF6E
:1003F30008F510500205118008F51050020511D2BE
:10040300AFD0D0222510F58210AF08F510400215A9
:10041300118008F51040021511D2AF8511832225F2
:1004230010F582E43511F58322E4732510C582C0EB
:10043300E0E51134FFC583C0E0E510C3958224F8DD
:10044300F8E4C5A8858311858210C5A8E8CEF0A37A
:10045300E520F0A37808E608F0A3DEFAEFF0A3E5C1
:100463008124FAF8E608F0A3E608F0A3E608F0A36F
:100473000808E608F0A3E608F0A315811581D0E08B
:10048300FED0E0F8158115811581E8C0E0EEC0E0EB
:1004930022851183851082E0A3FEE0A3F52078086E
:1004A300E0A3F608DFFAE0A3FFE0A3C0E0E0A3C007
:1004B300E0E0A3C0E0E0A3C0E0E0A3C0E0E4C5A89F
:1004C300858210858311C5A8D083D082020107C01D
:1004D300D02510C582C0E0E51134FFC583C0E0E537
:1004E30010C3958224F310AF088583118582108091
:1004F30008858311858210D2AFC8F0A3E9F0A3EA7F
:10050300F0A3EBF0A37908E709F0A3D8FAECF0A382
:10051300EDF0A3EEF0A3EFF0A3D0E0F0A3D0E0F072
:10052300A3D0E0F0A3E520F0A3E5F0F0A32285112A
:1005330083851082E0C0E0A3E0F9A3E0FAA3E0FB27
:10054300A37808E0F608A3DFFAE0FCA3E0FDA3E04C
:10055300FEA3E0FFA3E0C0E0A3E0C0E0A3E0F5D08A
:10056300A3E0F520A3E0A3F5F0E4C5A885831185F6
:100573008210C5A8D082D083D0E0F8D0E0327402D4
:100583008000C0E0F404120407D0E012038622D0F6
:1005930083D082C5F0E493A3C5F0C395F0F5F0E4EE
:1005A30093A3C395F04005E5F0048001E475F002E0
:1005B300A42582F582E5F03583F583E493A3C0E0B7
:1005C300E493C0E022D083D082CCC0E0E493A36064
:1005D300061205F21470FAE493A3600612061114CE
:1005E30070FAD0E0FCE493A3C0E0E493C0E022C03F
:1005F300E0E493A3D39C5010E493A3C39C400AD09C
:10060300E0D0E0D0E00205E5A3A3A3D0E022C0E060
:10061300E493A36C7009D0E0D0E0D0E00205E5A339
:10062300A3D0E022D083D082ECC0E0EDC0E0E4931D
:10063300A3FCE493A3FDED4C600D120673EC24FFC1
:10064300FCED34FFFD80EFE493A3FCE493A3FDED05
:100653004C600D1206B2EC24FFFCED34FFFD80EF7D
:10066300D0E0FDD0E0FCE493A3C0E0E493C0E0223B
:10067300C0E0C3E49396087401939618400FE49383
:1006830066700808740193661870007019A3A3C3F9
:10069300E49396087401939618A3A3400DD0E0D079
:1006A300E0D0E0020663A3A3A3A3A3A3D0E022C0E8
:1006B300E0C0F088F0E4936670080874019366184C
:1006C3007000A8F0A3A3700BD0F0D0E0D0E0D0E08E
:1006D300020663A3A3D0F0D0E022000000000000D4
:1006E30000000000000000000000000070F8F87037
:1006F30000000000000D0D000000001C3C00000085
:100703003C1C00000000000000000020F8F820F866
:10071300F82000020F0F020F0F020070F8888E8E70
:10072300983000060C0838380F070060600000801E
:10073300C06000080C0603010C0C0000B0F8C87878
:10074300B08000070F0809070F0800203C1C0000B9
:10075300000000000000000000000000E0F01808A6
:100763000000000003070C0800000000000818F058
:10077300E000000000080C07030080A0E0C0C0E018
:10078300A0800002030101030200808080F0F0805A
:100793008080000000070700000000000000000048
:1007A30000000000101E0E0000008080808080800A
:1007B30080000000000000000000000000000000B6
:1007C30000000000000C0C00000000000080C0606E
:1007D3003018000603010000000000F0F888C86824
:1007E300F8F000070F0908080F0700002030F8F899
:1007F3000000000008080F0F08080010180888C838
:100803007830000C0E0B09080C0C0010188888882F
:10081300F87000040C0808080F070080C06030F867
:10082300F80000010101090F0F0900F8F888888812
:10083300880800040C0808080F0700E0F09888886F
:10084300800000070F0808080F070018180888C859
:1008530078380000000F0F0000000070F8888888C7
:10086300F87000070F0808080F070070F8888888D9
:10087300F8F000000808080C0703000000303000FF
:1008830000000000000606000000000000303000F9
:1008930000000000080E060000000080C060301851
:1008A300080000000103060C0800004040404040DF
:1008B300400000020202020202000008183060C079
:1008C300800000080C06030100000030380888C8C7
:1008D3007830000000000D0D000000F0F808C8C8D3
:1008E300F8F000070F080B0B0B0100C0E0301830C5
:1008F300E0C0000F0F0101010F0F0008F8F888880E
:10090300F87000080F0F08080F0700E0F018080838
:1009130018300003070C08080C060008F8F808183C
:10092300F0E000080F0F080C07030008F8F888C868
:10093300183800080F0F08090C0E0008F8F888C8CB
:10094300183800080F0F0801000000E0F01808082D
:1009530018300003070C0909070F00F8F88080809E
:10096300F8F8000F0F0000000F0F000008F8F80858
:1009730000000000080F0F0800000000000008F846
:10098300F80800060E08080F07000008F8F880E0D2
:10099300781800080F0F00030F0C0008F8F8080080
:1009A300000000080F0F08080C0E00F8F830603044
:1009B300F8F8000F0F0000000F0F00F8F870E0C008
:1009C300F8F8000F0F0000010F0F00E0F0180818EF
:1009D300F0E00003070C080C07030008F8F8888808
:1009E300F87000080F0F0800000000F0F80808086E
:1009F300F8F000030704071E1F130008F8F888889F
:100A0300F87000080F0F00010F0E003078C88888B7
:100A1300383000060E0808090F06180808F8F80809
:100A230008180000080F0F08000000F8F800000085
:100A3300F8F800070F0808080F0700F8F80000008F
:100A4300F8F8000103060C06030100F8F8000000A3
:100A5300F8F8000F0F0603060F0F003878C080C0A8
:100A63007838000E0F0100010F0E003878C080C0E7
:100A730078380000080F0F0F080000381888C8687E
:100A83003818000E0F0908080C0E0000F8F80808C3
:100A9300000000000F0F08080000003870E0C0805D
:100AA3000000000000000103070E00000808F8F82A
:100AB3000000000008080F0F00000010180C060CBF
:100AC30018100000000000000000000000000000FB
:100AD30000000020202020202000000000060E0837
:100AE300000000000000000000000000404040C083
:100AF300800000060F0909070F080008F8F840C036
:100B0300800000080F0708080F070080C04040401E
:100B1300C08000070F0808080C04000080C048F8D4
:100B2300F80000070F0808070F080080C040404086
:100B3300C08000070F0909090D050080F0F88898A7
:100B4300300000080F0F080000000080C040408004
:100B5300C04000133724243F1F000008F8F88040EA
:100B6300C08000080F0F00000F0F00000040D8D80E
:100B73000000000000080F0F08000000000040D82C
:100B8300D80000183820203F1F000008F8F8008024
:100B9300C04000080F0F01030E0C00000008F8F816
:100BA3000000000000080F0F08000080C080808054
:100BB300C080000F0F000F000F0F0040C0804040A7
:100BC300C08000000F0F00000F0F0080C0404040A6
:100BD300C08000070F0808080F070040C08040408E
:100BE300C08000203F3F240407030080C0404080B2
:100BF300C04000030704243F3F200040C080C040A2
:100C0300C08000080F0F080001010080C040404071
:100C1300C08000040D090B0A0E04004040F0F840A8
:100C23004000000000070F080C0400C0C00000C013
:100C3300C00000070F0808070F0800C0C00000002D
:100C4300C0C0000103060C06030100C0C000000081
:100C5300C0C000070F0C060C0F070040C0800080C7
:100C6300C04000080C0703070C0800C0C0000000C8
:100C7300C0C00003272424341F0F00C0C04040C05D
:100C8300C04000080C0E0B090C0C008080F07808A3
:100C93000800000000070F08080000000078780033
:100CA30000000000000F0F00000000080878F0802B
:100CB30080000008080F0700000000101808181033
:100CC300180800000000000000000000000E0A0EDB
:100CD30000000000000000000000C0E0638002E5A7
:100CE30080D0E032C0E074F11204D2C2C5E589605D
:100CF300487E00750801750900EE78081203C4AF39
:100D030008E5895F602CEEC333F8E433F9E8240285
:100D1300F582E93401F583E07002A3E0600EE82474
:100D230002F582E93401120D9812042CEFF455896F
:100D3300F5890EEEC3940840BA7F02020531C0E084
:100D430074F11204D2C2EBE58A60487E0075080193
:100D5300750900EE78081203C4AF08E58A5F602CBA
:100D6300EEC333F8E433F9E82412F582E93401F5EC
:100D730083E07002A3E0600EE82412F582E93401F7
:100D8300120D9812042CEFF4558AF58A0EEEC394D3
:100D93000840BA80A4F583E0F8A3E0F583888222B3
:100DA300C0E074F11204D2C2E8E58B60487E00759E
:100DB3000801750900EE78081203C4AF08E58B5FDC
:100DC300602CEEC333F8E433F9E82422F582E934E6
:100DD30001F583E07002A3E0600EE82422F582E9C6
:100DE3003401120D9812042CEFF4558BF58B0EEE93
:100DF300C3940540BA020D3CC0E074F21204D2A2BF
:100E0300AFE492E0FEC2AFE5E9A2E6501E90013DD9
:100E1300E07002A3E0600E90013DE0F8A3E0F583EB
:100E2300888212042C759B0053E9BFEEA2E092AFB7
:100E33007F01020531C0E0C0D0E8C0E0E9C0E0EACC
:100E4300C0E0C082C083E5C1C0E09001C0E0243FA0
:100E5300F582E43401F583D0E0F09001BFE0FA902D
:100E630001C0E06A7006E5959001C1F09001C0E011
:100E730004F0C394804002E4F0D083D082D0E0FA3F
:100E8300D0E0F9D0E0F8D0D0D0E032C0E0C0D0EA72
:100E9300C0E0C008C009C082C083900242E0FA905B
:100EA3000243E06A700A539AFB740190024480255E
:100EB300C2E9900242E0F50874012508F0E5082430
:100EC300C2F582E43401F583E0F5C1900242E0C348
:100ED30094804002E4F0D083D082D009D008D0E0DF
:100EE300FA80A374F612042EC290C2A07A00750889
:100EF30080750900EA78081203B4E508596004D242
:100F0300928002C292C291D2910AEAC3940840DE4F
:100F130002100D74F612042ED290C2A07A00750846
:100F230080750900EA78081203B4E508596004D211
:100F3300928002C292C291D2910AEAC3940840DE1F
:100F430002100DC082C08379E212021F7A057B0072
:100F530012026779E212021F7A057B00120FB012A8
:100F63000FB012026779F812021F790112021F797A
:100F7300A312021F792612021F798112021F792000
:100F830012021F79C012021F79A112021F79A61241
:100F9300021F79AF12021F7A147B00120267794095
:100FA30012021F120237D083D08202010712026796
:100FB300792F12021F7A027B002274F712042EE9A2
:100FC300C33324AEF5087F02A90812021F050812D5
:100FD30010247E8079001202251EEE70F71FEF7039
:100FE300E77F0102049474F712042E7FB0EF12100E
:100FF3001C7E8079001202251EEE70F70FEFC3945A
:10100300B840EA80DC7910020107D2A0D2929001A5
:1010130001E0F5907F02020494F912021F121024DA
:1010230022791012021F790412021F2274F3120490
:101033002EE9C33324AEF50AEA33333354F82404D8
:10104300FAC4540F4410F50B740F5AF50CEBC39408
:10105300204006EBC3948040027B208B0874E0257C
:1010630008F50874FF3400F509740478081203C402
:10107300AE08AF091210AEA90A12021F750800804C
:101083001174086508700B7401250AF912021F1206
:1010930010AEEE24DDF582EF34061210B90508E533
:1010A30008C3941040DB7F05020494A90B12021FAE
:1010B300A90C12021F22F583E493F9120225EE24F0
:1010C300010EEF3400FF2274F212042EE9FF8A08A6
:1010D3008C0C8D0DAA0CAB0D120291EAF5097E0062
:1010E30080128E0AE50C250AF582E50D3400F5839E
:1010F300E0121102EEC3950940E87F06020494FB57
:10110300EE1211660E2274F612042EEA7001EB60E1
:10111300337C008A828B83E06015C0E08C08121157
:101123004AD0E0F08A828B83A3AA82AB8380058CAA
:101133000812115A0CECC3941040D87C2D7D017A0F
:101143000012024902101712114E22E508242DF550
:1011530082E43401F5832212114E7420F022F91235
:101163000243222508FAEF80F5C082C083D2A4D2BD
:10117300A37A027B00120261C2A31211B780031289
:1011830011B5D083D082020107C082C083C2A37A83
:10119300027B00120261D2A47A027B00120261D2A6
:1011A300A37A027B0012026180D8C082C083C2A3EB
:1011B30080CDD2A41211BB227A027B00120261C23B
:1011C300A47A027B0012026122C082C083D2A38070
:1011D300AE74F712042EE9FF7E08EFA2E75004D2A3
:1011E300A38002C2A3D2A4C333FF12123570EB80D3
:1011F30001F97F0102049474F712042E7F00D2A335
:1012030053F5F753FFF753F7F753F77F7A027B0052
:101213001202617E08D2A4EFC333FFA2A35003D20C
:10122300E0FF12123570EE53F5F7D2A343FF08EF38
:1012330080BF1211BB1EEE2274F712042EE9FEEAE0
:10124300FF121251EFF91212951201E980A4120153
:10125300E379E01212997900121299EEF9121299B8
:101263002274F712042E1201E379E0121295790029
:1012730012129579081212951212A01201EFEEFFC5
:10128300120201E9FE1201F51201E9EEFAEFFB0287
:1012930011F5121299221201FB1201EF221201E938
:1012A3001201E379E1121299120201E9FE22C082CE
:1012B300C0837A6279001202077AF7790212020771
:1012C3007A0779031202077A0079041202077A0077
:1012D30079051202077A30790E1202077A6A7900C9
:1012E30012020702118574F612042E12020D8A08E7
:1012F3008B09780812062700001400820054138417
:1013030000581388005C1390008013A0008C130214
:10131300016013040164130801681310018413208E
:1013230001901302026C1304027013080274131069
:101333000288132002941302047813040450130840
:10134300047C131004981320049C13A0137E308094
:101353004E7E31804A7E3280467E3380427E3480A8
:101363003E7E35803A7E3680367E3780327E3880C8
:101373002E7E39802A7E2A80267E2380227E41800B
:101383001E7E42801A7E4380167E4480127E4580F4
:101393000E7E46800A7E5580067E4E80027E009039
:1013A300012CE004F0C394C94008E4F07A6AF9120E
:1013B3000207EE60117AAA7B0A1201C57A147B0038
:1013C3001202671201CBEEF97F0202049474F61243
:1013D300042E8A088B09EA7001EB70057900021567
:1013E300057F007E018036EE6033790212023112EE
:1013F3001477E0FCA3E0FD7A0379021202497B3CF7
:101403007A00790212024312023DE914FA7B3E7913
:10141300021202437E007A647B001202677A647BC5
:1014230000120267120219E9FA74236A70107AC86B
:101433007B00120267121477A3A3E0F980A0744E15
:101443006A701774012FC0E0850882850983A3A3FE
:10145300E0F5F0D0E084AFF0809074556A7088EFC7
:10146300700E850882850983A3A3E014FF0213EDA0
:101473001F0213EDEF75F003A4F8A9F08508828528
:101483000983E028FAA3E0398A82F5832274F612ED
:10149300042E74EC1203D7EAFEEBFF85108285114C
:1014A30083AC82AD8375830275829E741412039399
:1014B300750804F509780812058112026D12027F7E
:1014C300EAFCEBFD7407120422AA82AB8312029793
:1014D30074021203ED120273E92430C0E0740B129C
:1014E3000422D0E0F0851082851183AA82AB837930
:1014F3000112024FEEFAEFFB790212024F7414123B
:1015030003ED7F0202049474F012042E43E40CE50D
:10151300E4750C48750DE8750E01750F008A088B8C
:1015230009750A00750B00780C7908120337850DCD
:1015330009E509F5DBE50CF5DA75E54453E4EF530A
:10154300E4FDC2B97F0802049474F012042E75E21C
:1015530000750C48750DE8750E01750F008A088B30
:1015630009750A00750B00780C7908120337850D8D
:1015730009E509F5DBE50CF5DA43E402D2B980C4E9
:1015830053E4FDC2B9D281020107C082C08375E270
:101593000043E402D2B912026753E4FDC2B9D28117
:1015A300D083D0820201077E001201B979081202AA
:1015B300557A457B0212028B7A2C7B011202677AE1
:1015C3002C7B011201D1120219E960FA7A007B0027
:1015D3001202851202371201A77A457B02790112A2
:1015E300024F7A567B02790212024F1201B3E9FFCE
:1015F300A2E0E492E02430FB7A047902120243EF82
:10160300A2E1E492E02430FB7A07790212024374E8
:10161300302EFB7A0E7902120243EFA2E040077EDE
:101623000179011201ADEFA2E140077E00790012BA
:1016330001AD120219E9FF7A647B00120267742A72
:101643006F70A8D287808CC082C083E91205C8005E
:101653000A01A41602741611AA1681981684861616
:10166300857A16898016919E16A58C16B59216B0AA
:10167300167A677B02803A7A6C7B0280347A717BBC
:1016830002802E7A767B0280287A7B7B0280227A04
:10169300807B02801C7A857B0280167A8A7B02809B
:1016A300107A8F7B02800A7A947B0280047A997B7A
:1016B30002D083D082020107C082C0837900120165
:1016C300D7D083D082020107EBC313FBEA13FAEAF4
:1016D300F8EBF974FF28FA74FF39FB7400687003A0
:1016E30074006960120000000000000000000000A8
:1016F300000000000080D802010774F712042EEAEC
:10170300FEEBFFEEF8EFF974FF28FE74FF39FF7468
:101713000068700374006960097AE87B0312026150
:1017230080E17F01020494C082C083E91205920123
:1017330007851746174E1756175E1766176E1776E7
:10174300177E17900101E0D2E08036900101E0D2CC
:10175300E1802E900101E0D2E28026900101E0D2E7
:10176300E3801E900101E0D2E48016900101E0D2F3
:10177300E5800E900101E0D2E68006900101E0D2FF
:10178300E7F0900101E0F590D083D0820201077465
:10179300F612042E740A120422E0FEA3E0FFEAF814
:1017A300EBF98E088F0974FF25081E74FF3509FFB6
:1017B300E5087002E50960358C828D83E0A3AC8275
:1017C300AD838A828B83F0A3AA82AB8370D4EEFCB1
:1017D300EFFD74FF2C1E74FF3DFFEC7001ED600DF7
:1017E300E48A828B83F0A3AA82AB8380E1E8FAE9DF
:1017F300FB7F02020494C082C08312025B53F5EFA5
:10180300D2A443FF1053F5F7D2A343FF0853F5F7D0
:1018130053FFF743F70853F5FEC2A043FF0153F309
:10182300BFC28643FD4075F4007590FF75FEFF53FC
:10183300F3FDD28143FD027AAA7B0A1201BFE49031
:101843000101F075900012022B1202131202791299
:1018530001DDD083D082020107C082C08353F1FE31
:1018630043F30CE5F353F2F3E5F275868075C48018
:1018730075C2D875C50B75C402438640D2AA75C11B
:1018830000E49001BFF09001C0F0900242F090029A
:1018930043F09001C1F0900244F0D083D082020162
:1018A3000753F3EF53FDEF538FEF53F7DF53F3DF9B
:1018B30053FDDF538FDF53F7DF53F37FD28743FDAE
:1018C30080D287020107E97004D2878002C28702AF
:1018D30001077903A284400119A2854004E9C2E10A
:1018E300F9020107748055C6FA53BEFBE59DA2E5D4
:1018F30050FAE59DA2E240F400740169700774494F
:101903004AF5C68005E970028AC6E5C6FAE59EFB7C
:10191300EA6B70F943BE04020107C082C083906280
:101923004AE0800DC082C083906249E0C4540F80B6
:1019330000F9D083D082020107C082C0838A828BE0
:10194300838001A3E070FCE582C39AFAE5839BFBE5
:0C195300D083D082020107D2AF0201074E
:04000005000000E314
:00000001FF
