:020000040000FA
:030000000200E318
:03001300020EE1F9
:03003300020E4C6E
:03003B00020F377A
:03004B00020D861D
:03006B00020D90F3
:03007B00020DEA89
:10008300020EA400000080FB120137B90003020036
:10009300CDE4900101785379028002F0A3D8FCD912
:1000A300FA900253AA82AB8390013A788479018053
:1000B30015E493A3AC82AD838A828B83F0A3AA82D7
:1000C300AB838C828D83D8E9D9E77582AC75831BAA
:1000D30074001200F575828675830074001200F5B2
:1000E30075D0007581BF751001751101759F0002F0
:1000F300008BF5F0E59F5407C0E0E59F54F845F009
:10010300F59FE473859FF053F0F8D0E045F0F59F39
:1001130022D083D082E59F5407C0E0E493C0E0740B
:100123000193C0E07402935407F5F0E59F54F8453A
:10013300F0F59F2279012200000100000000000079
:100143002A2A204D313130205465737420202A2A05
:10015300002020436F756E74203D003031323334FC
:10016300353637383941424344454632343230001C
:1001730032343330003234333100323532300032EE
:1001830035333000323533310032353130003235DA
:10019300313100313131300031313131002D2D2DEC
:1001A3002D000A0000002A2A20434378787878201B
:1001B300282029202A2A00000000120114351B00E0
:1001C300120114661B00120114741B001201148D1A
:1001D3001B001201149A1B001201145C1D00120172
:1001E30014951A00120114D71A001201140E1B00E1
:1001F300120114181B00120114071E00120114CC63
:100203001200120114B2130012011420140012017F
:10021300146C1400120114B31400120114F9140025
:100223001201147A1E0012011458150012011478D9
:100233001500120114991500120114B815001201CA
:1002430014C01500120114E615001201142716003C
:100253001201145016001201149D1600120114D538
:1002630016001201148F0F00120114BF0F001201A8
:1002730014EF0F0012011466100012011492100003
:10028300120114B11000120114D8100012011473DA
:100293001100120114B211001201140A120012010A
:1002A300148D1C001201141E1C001201142E1C00BC
:1002B300120114601C001201143D1E0012011447A8
:1002C3001E00120114BF1D00120114BC17001201FD
:1002D300142D18001201145B19001201141B1A00CB
:1002E3001201145C1E00120114F51C00E06670106C
:1002F30008A3E066700A08A3E066700408A3E0663A
:1003030022C3E09608A3E09608A3E09608A3E0962C
:10031300A2D265D03322E4CFC0E0E4CEC0E0E4CD86
:10032300C0E0E4CCC0E075F020C3E633F608E63362
:10033300F608E633F608E633F6181818EC33FCED46
:1003430033FDEE33FEEF33FFC3EC9709ED9709EE70
:100353009709EF97191919400FFFEC97FC09ED97CF
:10036300FD09EE97FE191906D5F0BEECF709EDF776
:1003730009EEF709EFF7191919D0E0FCD0E0FDD029
:10038300E0FED0E0FF221203F1181818120319122D
:1003930003E0191919221203E0191919080808E6CC
:1003A30018181820E7E01203191203F1181818227D
:1003B300090909E719191920E7DC080808E61818DC
:1003C3001820E7030203191203F11818181203196E
:1003D3001203F11818181203E019191922E4C3972C
:1003E300F709E497F709E497F709E497F722E4C3D9
:1003F30096F608E496F608E496F608E496F622E004
:10040300F608A3E0F608A3E0F608A3E0F622E6F078
:1004130008A3E6F008A3E6F008A3E6F022CAC0E0CA
:10042300E6F0A308DAFAD0E0FA22CAC0E0E0A3C5F6
:1004330082CCC582C583CDC583F0A3C582CCC582DA
:10044300C583CDC583DAE6D0E0CA22600D08C6A213
:10045300E713C618C613C6D5E0F322600C08C6C35B
:1004630013C618C613C6D5E0F422700422600D1813
:10047300C6C333C608C633C6D5E0F4182225101008
:10048300AF08F510400215118008F5104002151150
:10049300D2AF22C0D0251010AF08F51050020511BD
:1004A3008008F51050020511D2AFD0D0222510F5E7
:1004B3008210AF08F510400215118008F5104002B4
:1004C3001511D2AF851183222510F582E43511F57C
:1004D3008322E4732510C582C0E0E51134FFC58390
:1004E300C0E0E510C3958224F8F8E4C5A88583111C
:1004F300858210C5A8E8CEF0A3E520F0A37808E62E
:1005030008F0A3DEFAEFF0A3E58124FAF8E608F099
:10051300A3E608F0A3E608F0A30808E608F0A3E6BC
:1005230008F0A315811581D0E0FED0E0F815811500
:10053300811581E8C0E0EEC0E02285118385108239
:10054300E0A3FEE0A3F5207808E0A3F608DFFAE0D5
:10055300A3FFE0A3C0E0E0A3C0E0E0A3C0E0E0A30A
:10056300C0E0E0A3C0E0E4C5A8858210858311C57F
:10057300A8D083D082020107C0D02510C582C0E075
:10058300E51134FFC583C0E0E510C3958224F31061
:10059300AF088583118582108008858311858210B9
:1005A300D2AFC8F0A3E9F0A3EAF0A3EBF0A3790874
:1005B300E709F0A3D8FAECF0A3EDF0A3EEF0A3EF74
:1005C300F0A3D0E0F0A3D0E0F0A3D0E0F0A3E520C7
:1005D300F0A3E5F0F0A322851183851082E0C0E04B
:1005E300A3E0F9A3E0FAA3E0FBA37808E0F608A3ED
:1005F300DFFAE0FCA3E0FDA3E0FEA3E0FFA3E0C07D
:10060300E0A3E0C0E0A3E0F5D0A3E0F520A3E0A3DE
:10061300F5F0E4C5A8858311858210C5A8D082D0E2
:1006230083D0E0F8D0E03274028000C0E0F404121A
:1006330004B0D0E012042022D083D082C5F0E4932A
:10064300A3C5F0C395F0F5F0E493A3C395F040057B
:10065300E5F0048001E475F002A42582F582E5F05B
:100663003583F583E493A3C0E0E493C0E022D08311
:10067300D082CCC0E0E493A3600612069B1470FA08
:10068300E493A360061206BA1470FAD0E0FCE49374
:10069300A3C0E0E493C0E022C0E0E493A3D39C5062
:1006A30010E493A3C39C400AD0E0D0E0D0E002065C
:1006B3008EA3A3A3D0E022C0E0E493A36C7009D07F
:1006C300E0D0E0D0E002068EA3A3D0E022D083D016
:1006D30082ECC0E0EDC0E0E493A3FCE493A3FDED62
:1006E3004C600D12071CEC24FFFCED34FFFD80EF82
:1006F300E493A3FCE493A3FDED4C600D12075BECC4
:1007030024FFFCED34FFFD80EFD0E0FDD0E0FCE4FE
:1007130093A3C0E0E493C0E022C0E0C3E49396084F
:100723007401939618400FE493667008087401935C
:10073300661870007019A3A3C3E493960874019319
:100743009618A3A3400DD0E0D0E0D0E002070CA39D
:10075300A3A3A3A3A3D0E022C0E0C0F088F0E49356
:100763006670080874019366187000A8F0A3A3705C
:100773000BD0F0D0E0D0E0D0E002070CA3A3D0F080
:10078300D0E0220000000000000000000000000094
:10079300000000000070F8F87000000000000D0D6C
:1007A300000000001C3C0000003C1C000000000096
:1007B3000000000020F8F820F8F82000020F0F02D4
:1007C3000F0F020070F8888E8E983000060C0838E0
:1007D300380F07006060000080C06000080C06034B
:1007E300010C0C0000B0F8C878B08000070F0809AE
:1007F300070F0800203C1C00000000000000000060
:100803000000000000E0F018080000000003070CDF
:100813000800000000000818F0E000000000080CC9
:1008230007030080A0E0C0C0E0A080000203010134
:10083300030200808080F0F08080800000000707C2
:1008430000000000000000000000000000101E0E69
:100853000000008080808080808000000000000015
:1008630000000000000000000000000000000C0C6D
:1008730000000000000080C0603018000603010083
:1008830000000000F0F888C868F8F000070F0908B6
:10089300080F0700002030F8F80000000008080FD8
:1008A3000F08080010180888C87830000C0E0B09D0
:1008B300080C0C001018888888F87000040C0808CD
:1008C300080F070080C06030F8F80000010101093B
:1008D3000F0F0900F8F8888888880800040C0808B6
:1008E300080F0700E0F0988888800000070F0808C9
:1008F300080F070018180888C878380000000F0F81
:100903000000000070F8888888F87000070F080856
:10091300080F070070F8888888F8F00000080808B6
:100923000C07030000003030000000000000060642
:1009330000000000000030300000000000080E0638
:100943000000000080C060301808000000010306AA
:100953000C080000404040404040000002020202F8
:100963000202000008183060C0800000080C060373
:100973000100000030380888C87830000000000DFE
:100983000D000000F0F808C8C8F8F000070F080BC6
:100993000B0B0100C0E0301830E0C0000F0F010165
:1009A300010F0F0008F8F88888F87000080F0F0887
:1009B300080F0700E0F018080818300003070C08B8
:1009C300080C060008F8F80818F0E000080F0F08F4
:1009D3000C07030008F8F888C8183800080F0F0838
:1009E300090C0E0008F8F888C8183800080F0F081B
:1009F30001000000E0F018080818300003070C0994
:100A030009070F00F8F8808080F8F8000F0F000046
:100A1300000F0F000008F8F80800000000080F0F8F
:100A23000800000000000008F8F80800060E080897
:100A33000F07000008F8F880E0781800080F0F008F
:100A4300030F0C0008F8F80800000000080F0F0857
:100A5300080C0E00F8F8306030F8F8000F0F0000B3
:100A6300000F0F00F8F870E0C0F8F8000F0F000057
:100A7300010F0F00E0F0180818F0E00003070C085E
:100A83000C07030008F8F88888F87000080F0F08AF
:100A930000000000F0F8080808F8F0000307040756
:100AA3001E1F130008F8F88888F87000080F0F005D
:100AB300010F0E003078C88888383000060E080809
:100AC300090F06180808F8F80808180000080F0F9F
:100AD30008000000F8F8000000F8F800070F080805
:100AE300080F0700F8F8000000F8F8000103060CEF
:100AF30006030100F8F8000000F8F8000F0F0603E2
:100B0300060F0F003878C080C07838000E0F010040
:100B1300010F0E003878C080C078380000080F0F2E
:100B23000F080000381888C8683818000E0F090825
:100B3300080C0E0000F8F80808000000000F0F086A
:100B4300080000003870E0C08000000000000001D1
:100B530003070E00000808F8F80000000008080F5B
:100B63000F00000010180C060C1810000000000005
:100B730000000000000000000000000020202020F2
:100B8300202000000000060E080000000000000006
:100B93000000000000404040C0800000060F09092B
:100BA300070F080008F8F840C0800000080F070886
:100BB300080F070080C0404040C08000070F0808AE
:100BC300080C04000080C048F8F80000070F08086C
:100BD300070F080080C0404040C08000070F09098C
:100BE300090D050080F0F88898300000080F0F0801
:100BF3000000000080C0404080C040001337242420
:100C03003F1F000008F8F88040C08000080F0F0065
:100C1300000F0F00000040D8D80000000000080FAC
:100C23000F08000000000040D8D80000183820202A
:100C33003F1F000008F8F80080C04000080F0F01B4
:100C4300030E0C00000008F8F80000000000080F75
:100C53000F08000080C0808080C080000F0F000F4D
:100C6300000F0F0040C0804040C08000000F0F0005
:100C7300000F0F0080C0404040C08000070F0808ED
:100C8300080F070040C0804040C08000203F3F2441
:100C93000407030080C0404080C0400003070424D1
:100CA3003F3F200040C080C040C08000080F0F08B5
:100CB3000001010080C0404040C08000040D090BCA
:100CC3000A0E04004040F0F8404000000000070F07
:100CD300080C0400C0C00000C0C00000070F0808D3
:100CE300070F0800C0C0000000C0C0000103060CCD
:100CF30006030100C0C0000000C0C000070F0C06BF
:100D03000C0F070040C0800080C04000080C0703A0
:100D1300070C0800C0C0000000C0C0000327242443
:100D2300341F0F00C0C04040C0C04000080C0E0B71
:100D3300090C0C008080F078080800000000070F01
:100D430008080000000078780000000000000F0F82
:100D530000000000080878F08080000008080F07F2
:100D63000000000010180818101808000000000008
:100D73000000000000000E0A0E000000000000004A
:100D8300000000C0E0638002E580D0E032C0E07480
:100D9300F112057BC2C5E58960487E0075080175BF
:100DA3000900EE780812046DAF08E5895F602CEE48
:100DB300C333F8E433F9E82404F582E93401F58315
:100DC300E07002A3E0600EE82404F582E934011226
:100DD3000E411204D5EFF45589F5890EEEC394083C
:100DE30040BA7F020205DAC0E074F112057BC2EB60
:100DF300E58A60487E00750801750900EE780812DF
:100E0300046DAF08E58A5F602CEEC333F8E433F971
:100E1300E82414F582E93401F583E07002A3E0606D
:100E23000EE82414F582E93401120E411204D5EFC1
:100E3300F4558AF58A0EEEC3940840BA80A4F5836C
:100E4300E0F8A3E0F583888222C0E074F112057B09
:100E5300C2E8E58B60487E00750801750900EE78ED
:100E63000812046DAF08E58B5F602CEEC333F8E422
:100E730033F9E82424F582E93401F583E07002A311
:100E8300E0600EE82424F582E93401120E411204D5
:100E9300D5EFF4558BF58B0EEEC3940540BA020DD6
:100EA300E5C0E074F212057BA2AFE492E0FEC2AFAC
:100EB300E5E9A2E6501E90013FE07002A3E0600E58
:100EC30090013FE0F8A3E0F58388821204D5759B77
:100ED3000053E9BFEEA2E092AF7F010205DAC0E062
:100EE300C0D0E8C0E0E9C0E0EAC0E0C082C083E56A
:100EF300C1C0E09001C2E02441F582E43401F583EE
:100F0300D0E0F09001C1E0FA9001C2E06A7006E51A
:100F1300959001C3F09001C2E004F0C394804002B5
:100F2300E4F0D083D082D0E0FAD0E0F9D0E0F8D07A
:100F3300D0D0E032C0E0C0D0EAC0E0C008C009C0F1
:100F430082C083900244E0FA900245E06A700A533B
:100F53009AFB74019002468025C2E9900244E0F5B1
:100F63000874012508F0E50824C4F582E43401F58A
:100F730083E0F5C1900244E0C394804002E4F0D0E2
:100F830083D082D009D008D0E0FA80A374F612048B
:100F9300D7C290C2A07A00750880750900EA780864
:100FA30012044EE508596004D2928002C292C291A3
:100FB300D2910AEAC3940840DE0210B674F6120412
:100FC300D7D290C2A07A00750880750900EA780824
:100FD30012044EE508596004D2928002C292C29173
:100FE300D2910AEAC3940840DE0210B6C082C083DD
:100FF30079E21202657A057B001202B379E21202EA
:10100300657A057B001210591210591202B379F850
:10101300120265790112026579A31202657926121B
:1010230002657981120265792012026579C0120284
:101033006579A112026579A612026579AF1202657C
:101043007A147B001202B3794012026512027DD03A
:1010530083D0820201071202B3792F1202657A024A
:101063007B002274F71204D7E9C33324AEF5087F5B
:1010730002A90812026505081210CD7E80790012BC
:10108300026B1EEE70F71FEF70E77F0102053D74E0
:10109300F71204D77FB0EF1210C57E8079001202D9
:1010A3006B1EEE70F70FEFC394B840EA80DC791043
:1010B300020107D2A0D292900103E0F5907F0202D1
:1010C300053DF91202651210CD22791012026579DD
:1010D300041202652274F31204D7E9C33324AEF574
:1010E3000AEA33333354F82404FAC4540F4410F592
:1010F3000B740F5AF50CEBC394204006EBC394809A
:1011030040027B208B0874E02508F50874FF340047
:10111300F5097404780812046DAE08AF091211576B
:10112300A90A120265750800801174086508700B1E
:101133007401250AF9120265121157EE2486F5820D
:10114300EF34071211620508E508C3941040DB7FF2
:101153000502053DA90B120265A90C12026522F5D1
:1011630083E493F912026BEE24010EEF3400FF22A5
:1011730074F21204D7E9FF8A088C0C8D0DAA0CAB0C
:101183000D1202E3EAF5097E0080128E0AE50C25B2
:101193000AF582E50D3400F583E01211ABEEC39539
:1011A3000940E87F0602053DFBEE1212A80E2274E9
:1011B300F61204D7EA7001EB60337C008A828B83DA
:1011C300E06015C0E08C081211F3D0E0F08A828B46
:1011D30083A3AA82AB8380058C081212030CECC391
:1011E300941040D87C2F7D017A0012028F0210C028
:1011F3001211F722E508242FF582E43401F5832246
:101203001211F77420F02274F21204D7E9FEEAFFF8
:101213008C0A8D0BEB703C750800AA0AAB0B7C00A3
:101223007D001202D18A0C8B0D8011FB1212A08556
:101233000C82850D83A385820C85830D850C8285A5
:101243000D83E070E6E508C39405503E7B2012123F
:10125300A080F274016B70328C088D09740C7808CD
:1012630012045EE508121290120289740F550B12D4
:1012730012907401121294E50A1212AE74022FFA3C
:10128300EEF91212C174031212940211A61212B5CE
:1012930022121298222FFAEEF912028922E508127D
:1012A30012980508222508FAEF80EDC4540F121294
:1012B300B5222477F582E43402F583E0FB2212029F
:1012C30089740F550A1212B52274F61204D78A8252
:1012D3008B83A3A3E0FC60167508017509008A825D
:1012E3008B83A3E0780812046DE5086C600579FF31
:1012F3000213AD8A828B83E012063B0002F11208CF
:10130300133F137613ECF455F3F5F38A828B83A31F
:10131300A3A3E06401701F8A828B83A3A3A3A3E02A
:1013230064017005EC45808004ECF45580F580EC95
:1013330045FDF5FD8072ECF455FD80F6ECF455F4B3
:10134300F5F48A828B83A3A3A3E06401701F8A82CE
:101353008B83A3A3A3A3E064017005EC45908004F1
:10136300ECF45590F590EC45FEF5FE803BECF4551E
:10137300FE80F6ECF455F5F5F58A828B83A3A3A3DF
:10138300E06401701D8A828B83A3A3A3A3E064019D
:101393007005EC45A08004ECF455A0F5A0EC45FFE6
:1013A3008004ECF455FFF5FF79007F0202053D74DC
:1013B300F71204D7A2AFE492E0FEC2AF8A828B8316
:1013C300E012063B00020914D113F113FD131214AA
:1013D300122404F582E93401F583ECF0A3EDF01255
:1013E3000217EEA2E092AF79007F0102053D1214CD
:1013F300122414F582E9340180DE1214122424F538
:1014030082E9340180D2EEA2E092AF79FF80DA8ADA
:10141300828B83A3E0C333F8E433F9E822C082C0AC
:10142300838A828B83E012063B00026814361448D9
:10143300145814D2BD8A828B83A3A3E045ABF5ABCA
:101443007900021551439A108A828B83A3A3E04546
:101453008DF58D80EB439A028A828B83A3A3E045AB
:10146300ACF5AC80DB79FF80D9C082C0838A828BE4
:1014730083E012063B0002AF1482149314A1148A72
:10148300828B83A3A3E0F455ABF5AB79000215512E
:101493008A828B83A3A3E0F4558DF58D80ED8A8238
:1014A3008B83A3A3E0F455ACF5AC80DF79FF80DD3B
:1014B300C082C0838A828B83E012063B0002F5144C
:1014C300C914D914E7148A828B83A3A3E0F4558942
:1014D300F589790080788A828B83A3A3E0F4558A07
:1014E300F58A80EE8A828B83A3A3E0F4558BF58B78
:1014F30080E079FF80DEC082C083E912063B0001F1
:101503002C15091530158A828B83E012063B0002E5
:101513002C151B1520152715438C01802F438C0692
:10152300E58C8028438C08802379FF80218A828B75
:1015330083E012063B00022C15421547154C155348
:101543008CFE8008538CF980D7538CF77900D083B5
:10155300D082020107C082C083D2A4D2A37A027BC5
:10156300001202ADC2A31215A380031215A1D083EA
:10157300D082020107C082C083C2A37A027B001219
:1015830002ADD2A47A027B001202ADD2A37A027B0F
:10159300001202AD80D8C082C083C2A380CDD2A482
:1015A3001215A7227A027B001202ADC2A47A027B33
:1015B300001202AD22C082C083D2A380AE74F712A0
:1015C30004D7E9FF7E08EFA2E75004D2A38002C24A
:1015D300A3D2A4C333FF12162170EB8001F97F015C
:1015E30002053D74F71204D77F00D2A353F5F753D6
:1015F300FFF753F7F753F77F7A027B001202AD7EB2
:1016030008D2A4EFC333FFA2A35003D2E0FF121604
:101613002170EE53F5F7D2A343FF08EF80BF1215F5
:10162300A71EEE2274F71204D7E9FEEAFF12163D55
:10163300EFF912168112022F80A412022979E01207
:1016430016857900121685EEF91216852274F712A3
:1016530004D712022979E0121681790012168179D2
:101663000812168112168C120235EEFF120247E998
:10167300FE12023B12022FEEFAEFFB0215E11216E5
:1016830085221202411202352212022F12022979F7
:10169300E1121685120247E9FE22C082C0837A62F4
:1016A300790012024D7AF7790212024D7A07790313
:1016B30012024D7A00790412024D7A007905120262
:1016C3004D7A30790E12024D7A6A790012024D0278
:1016D300157174F61204D71202538A088B0978081D
:1016E3001206D000001400820040178400441788BB
:1016F30000481790006C17A000781702014C1704DC
:10170300015017080154171001701720017C1702AC
:1017130002581704025C170802601710027417209E
:101723000280170204641704043C170804681710A6
:10173300048417200488178C177E30804E7E3180F6
:101743004A7E3280467E3380427E34803E7E3580C0
:101753003A7E3680367E3780327E38802E7E3980E0
:101763002A7E2A80267E2380227E41801E7E42801E
:101773001A7E4380167E4480127E45800E7E46800C
:101783000A7E5580067E4E80027E0090012EE00484
:10179300F0C394C94008E4F07A6AF912024DEE608E
:1017A300117AAA7B0A1201E77A147B001202B312A0
:1017B30001EDEEF97F0202053DC082C083E9120606
:1017C30071000A01161802E617111C18810A188401
:1017D300F81785EC1789F217911018A5FE17B504B1
:1017E3001822187A877B02803A7A8C7B0280347ABB
:1017F300917B02802E7A967B0280287A9B7B0280E3
:10180300227AA07B02801C7AA57B0280167AAA7BAF
:101813000280107AAF7B02800A7AB47B0280047A5A
:10182300B97B02D083D08202010774F01204D7740B
:10183300FB12048074011204CBEAF0A3EBF0A3ECD7
:10184300F0A3EDF07A477B0274011204CBC082C08F
:10185300839002587808120402D083D08278081249
:10186300030450227401851082851183F01204CB86
:10187300780812040278081203F174011204CB7879
:10188300081204118008E4851082851183F0740125
:101893001204CB780C1204029002BE7808120402E0
:1018A300780C79081203B3E50824308A828B83F01D
:1018B300A3AA82AB8374011204CB780C12040290A6
:1018C30002BE7808120402780C79081203B374017B
:1018D3001204CB780C12041174011204CBC082C021
:1018E300839002587808120402D083D082780812B9
:1018F30002EF709A851082851183E0600B742D8A44
:10190300828B83F0A30AAB83E48A828B83F0EA247D
:10191300FF1AEB34FFFB78477902801612194AEA63
:1019230024FF1AEB34FFFBEC88828983F0A3A8829F
:10193300A983C3E89AE99B40E37A477B02740512C3
:1019430004967F0802053D8A828B83E0FC888289A6
:1019530083E08A828B83F02274F61204D78A088B81
:1019630009EA7001EB70057900021A907F007E018D
:101973008036EE60337902120277121A02E0FCA37A
:10198300E0FD7A03790212028F7B3C7A007902121E
:101993000289120283E914FA7B3E79021202897EDC
:1019A300007A647B001202B37A647B001202B312E2
:1019B300025FE9FA74236A70107AC87B001202B3DB
:1019C300121A02A3A3E0F980A0744E6A701774017F
:1019D3002FC0E0850882850983A3A3E0F5F0D0E05A
:1019E30084AFF0809074556A7088EF700E8508821A
:1019F300850983A3A3E014FF0219781F021978EF66
:101A030075F003A4F8A9F0850882850983E028FA14
:101A1300A3E0398A82F5832274F61204D774EC1298
:101A23000480EAFEEBFF851082851183AC82AD83CF
:101A33007583027582C2741412042D750804F509A6
:101A4300780812062A1202B91202CBEAFCEBFD74E3
:101A5300071204CBAA82AB831202E9740212049622
:101A63001202BFE92430C0E0740B1204CBD0E0F0C3
:101A7300851082851183AA82AB837901120295EEC8
:101A8300FAEFFB790212029574141204967F020294
:101A9300053D74F01204D743E40CE5E4750C487576
:101AA3000DE8750E01750F008A088B09750A00751C
:101AB3000B00780C79081203B3850D09E509F5DBF2
:101AC300E50CF5DA75E54453E4EF53E4FDC2B97F61
:101AD3000802053D74F01204D775E200750C4875D1
:101AE3000DE8750E01750F008A088B09750A0075DC
:101AF3000B00780C79081203B3850D09E509F5DBB2
:101B0300E50CF5DA43E402D2B980C453E4FDC2B96B
:101B1300D281020107C082C08375E20043E402D28E
:101B2300B91202B353E4FDC2B9D281D083D0820289
:101B33000107C082C083900101E4F0A3F07A537BD4
:101B4300021201FF53F3FE53FDFE438F0179017A25
:101B5300537B0212021D7CD57D017A537B02120254
:101B6300058020C082C083900101E0FAA3E0FB80DE
:101B730012C082C083900101E4F0A3F07A537B0288
:101B830012020BD083D082020107C082C0837A5332
:101B93007B0212021180ECC082C083900101E02419
:101BA30001F0A3E03400F080DA1201DB79081202BD
:101BB300A17A5C7B021202DD7A2C7B011202B37ADA
:101BC3002C7B011201F312025FE960FA7A007B00B9
:101BD3001202D712027D7A2C7B011201F31201BD8E
:101BE3001201C97A5C7B0279011202957A6D7B023C
:101BF30079021202951201C3EAFCEBFD7B007A0A1B
:101C0300790212029B12025FE9FE7A647B001202E0
:101C1300B3742A6E70DF1201CF80B8C082C083799B
:101C2300001201F9D083D082020107EBC313FBEA50
:101C330013FAEAF8EBF974FF28FA74FF39FB74001E
:101C43006870037400696012000000000000000067
:101C5300000000000000000080D802010774F712A2
:101C630004D7EAFEEBFFEEF8EFF974FF28FE74FFEA
:101C730039FF740068700374006960097AE87B03B4
:101C83001202AD80E17F0102053DC082C083E912EB
:101C9300063B0107E81CA91CB11CB91CC11CC91CCB
:101CA300D11CD91CE11C900103E0D2E080369001E5
:101CB30003E0D2E1802E900103E0D2E2802690017E
:101CC30003E0D2E3801E900103E0D2E4801690018A
:101CD30003E0D2E5800E900103E0D2E68006900196
:101CE30003E0D2E7F0900103E0F590D083D08202C5
:101CF300010774F61204D7740A1204CBE0FEA3E0C2
:101D0300FFEAF8EBF98E088F0974FF25081E74FFAC
:101D13003509FFE5087002E50960358C828D83E0A3
:101D2300A3AC82AD838A828B83F0A3AA82AB837038
:101D3300D4EEFCEFFD74FF2C1E74FF3DFFEC70012D
:101D4300ED600DE48A828B83F0A3AA82AB8380E1EA
:101D5300E8FAE9FB7F0202053DC082C0831202A7B5
:101D630053F5EFD2A443FF1053F5F7D2A343FF0873
:101D730053F5F753FFF743F70853F5FEC2A043FFAC
:101D83000153F3BFC28643FD4075F4007590FF75A0
:101D9300FEFF53F3FDD28143FD027AAA7B0A1201AF
:101DA300E1E4900103F075900012027112025912DE
:101DB30002C5120223D083D082020107C082C083EE
:101DC30053F1FE43F30CE5F353F2F3E5F27586802A
:101DD30075C48075C2D875C50B75C402438640D2DD
:101DE300AA75C100E49001C1F09001C2F0900244D1
:101DF300F0900245F09001C3F0900246F0D083D0FA
:101E030082020107748055C6FA53BEFBE59DA2E525
:101E130050FAE59DA2E240F4007401697007744929
:101E23004AF5C68005E970028AC6E5C6FAE59EFB57
:101E3300EA6B70F943BE04020107C082C08390625B
:101E43004AE0800DC082C083906249E0C4540F8091
:101E530000F9D083D082020107C082C0838A828BBB
:101E6300838001A3E070FCE582C39AFAE5839BFBC0
:0C1E7300D083D082020107D2AF02010729
:04000005000000E314
:00000001FF
