:020000040000FA
:030000000200D328
:03001300020CE3F9
:030033000207C5FC
:03003B00020D3D76
:03006B0002070B7E
:03007B0002076415
:10008300020B3C00000080FB1200E2B900030200F7
:10009300CDE4900101784679028002F0A3D8FCD91F
:1000A300FA900246AA82AB839000E5786E790180CC
:1000B30015E493A3AC82AD838A828B83F0A3AA82D7
:1000C300AB838C828D83D8E9D9E71204F1120086C1
:1000D30075D0007581BF75100175110102008B7910
:1000E30001224D3134303C2D3E4E45542F52533274
:1000F3003332002054656D702E203D2020202020B7
:100103002020430032343230003234333000323472
:10011300333100323532300032353330003235334B
:100123003100323531300032353131003131313047
:100133000031313131002D2D2D2D002A2A2043434A
:100143007878787820282029202A2A00000000CAFD
:10015300C0E0E6F0A308DAFAD0E0FA22CAC0E0E091
:10016300A3C582CCC582C583CDC583F0A3C582CC8C
:10017300C582C583CDC583DAE6D0E0CA22B90010B3
:10018300BB0008E88AF084F8AAF022E4FBC8FA224C
:10019300EB70227B10C833C8C933C9335007C39AE5
:1001A300C3DBF280069A50012ADBEAC833F4C8C9DC
:1001B30033F4C9FA2275F008E4C833C8C933C93324
:1001C300C99AC99B5004C92AC93BD5F0ECFBC83373
:1001D300F4C8E4C9FA22600C08C6C313C618C613D0
:1001E300C6D5E0F422700422600D18C6C333C608D6
:1001F300C633C6D5E0F41822251010AF08F5104019
:100203000215118008F51040021511D2AF22C0D09B
:10021300251010AF08F510500205118008F5105095
:10022300020511D2AFD0D0222510F58210AF08F508
:1002330010400215118008F51040021511D2AF8548
:100243001183222510F582E43511F58322E4732509
:1002530010C582C0E0E51134FFC583C0E0E510C3DB
:10026300958224F9F8E4C5A8858311858210C5A871
:10027300E8CEF0A3E520F0A37808E608F0A3DEFAC1
:10028300EFF0A3E58124FBF8E608F0A3E608F0A36A
:100293000808E608F0A3E608F0A315811581D0E06D
:1002A300FED0E0F815811581E8C0E0EEC0E02285BC
:1002B3001183851082E0A3FEE0A3F5207808E0A374
:1002C300F608DFFAE0A3FFE0A3C0E0E0A3C0E0E0AC
:1002D300A3C0E0E0A3C0E0E4C5A885821085831134
:1002E300C5A8D083D08222C0D02510C582C0E0E546
:1002F3001134FFC583C0E0E510C3958224F310AF2A
:10030300088583118582108008858311858210D228
:10031300AFC8F0A3E9F0A3EAF0A3EBF0A37908E7F1
:1003230009F0A3D8FAECF0A3EDF0A3EEF0A3EFF0FD
:10033300A3D0E0F0A3D0E0F0A3D0E0F0A3E520F059
:10034300A3E5F0F0A322851183851082E0C0E0A32A
:10035300E0F9A3E0FAA3E0FBA37808E0F608A3DF43
:10036300FAE0FCA3E0FDA3E0FEA3E0FFA3E0C0E00E
:10037300A3E0C0E0A3E0F5D0A3E0F520A3E0A3F55C
:10038300F0E4C5A8858311858210C5A8D082D083E7
:10039300D0E0F8D0E03274028000C0E0F40412022E
:1003A3002BD0E012015222D083D082C5F0E493A374
:1003B300C5F0C395F0F5F0E493A3C395F04005E5CC
:1003C300F0048001E475F002A42582F582E5F0359E
:1003D30083F583E493A3C0E0E493C0E022D083D009
:1003E30082CCC0E0E493A3600612040A1470FAE41A
:1003F30093A360061204291470FAD0E0FCE493A3DB
:10040300C0E0E493C0E022C0E0E493A3D39C501087
:10041300E493A3C39C400AD0E0D0E0D0E00203FD04
:10042300A3A3A3D0E022C0E0E493A36C7009D0E0BF
:10043300D0E0D0E00203FDA3A3D0E022E9FB7A08D9
:10044300C285EBA2E75004D2848002C284C333FB8B
:10045300E9C333F9D285A2865003D2E0F91AEA70D0
:10046300DFD28422C287790012043F790012043F4D
:10047300D2872274F8120252C287792012043FE90C
:10048300900101F0A3E4F0900101E0FF7900120470
:100493003FE92400F8E43FF9E8F0A3E9F0D2877FCD
:1004A300010202B253F3BF53FDBF538FBF53F7DFB4
:1004B30053F3EFD28443FD1053F3DFD28543FD2082
:1004C30053F37FD28743FD801204CF221204677A4D
:1004D300027B00120AF212047622C082C083120445
:1004E300CF900101E0FAA3E0FBD083D0822274EC29
:1004F3001201FB1206847908120A567A467B02120D
:100503000E087A2C7B011206D61204A774308510CC
:1005130082851183F074011202467430F074021262
:1005230002467430F074031202467430F0740412FD
:1005330002467430F0020646EC75F00AA4FCAAF0F9
:1005430075F00AEDA42AFD8C088D0974057808124C
:1005530001D9AC08AD097420851082851183F0ECB4
:10056300F8EDF97A647B00120180E82430FE74010F
:10057300120246EE12067A1201807A0A7B001201F9
:1005830080EA2430FF7402120246EFF07403120271
:1005930046742E12067A120180EA2430F508740498
:1005A300120246E508F07405120246740DF0740653
:1005B300120246740AF07C077D0085108285118340
:1005C300AA82AB83120C0C7A577B0279021209FEC2
:1005D3007BDF7A0E79021209DDEEFB7A09790212CA
:1005E30009DDEFFB7A0A79021209DD7B2E7A0B799A
:1005F300021209DDAB087A0C79021209DD7A2C7B31
:1006030001120AF2120CABEAF5086030C3941140F0
:1006130003750810AC087D00AA82AB83120BBFE5FB
:10062300822508F582E5833400F583E4F0851082A2
:10063300851183AA82AB8379021209FE7A2C7B018E
:10064300120AF21204DD8A088B09AC08AD09742082
:100653005DF9E47001E9700302053BE42C74C03DCD
:10066300F509EA75F00AA4F508AAF075F00AE50998
:10067300A42AF50902054EF0ECF8EDF97A0A7B009D
:1006830022C082C083120ABC53F5EFD2A443FF10E9
:1006930053F5F7D2A343FF0853F5F753FFF743F797
:1006A3000853F5FEC2A043FF0153F3BFC28643FDC7
:1006B3004075F4007590FF75FEFFE4900103F0753B
:1006C30090001209681208C0120B7912081CD0831B
:1006D300D0822222748055C6FA53BEFBE59DA2E563
:1006E30050FAE59DA2E240F4007401697007744971
:1006F3004AF5C68005E970028AC6E5C6FAE59EFB9F
:10070300EA6B70F943BE0422C0E074F11202EAC23C
:10071300C5E589603E7E00750801750900EE78081D
:100723001201E8AF08E5895F6022EEC333F8E433D2
:10073300F912075BF583E07002A3E0600912075B1F
:100743001207BA120250EFF45589F5890EEEC394DD
:100753000840C47F02020349E82404F582E9340116
:1007630022C0E074F11202EAC2EBE58A603E7E0029
:10077300750801750900EE78081201E8AF08E58AEB
:100783005F6022EEC333F8E433F91207B1F583E077
:100793007002A3E060091207B11207BA120250EF08
:1007A300F4558AF58A0EEEC3940840C480A5E82464
:1007B30014F582E9340122F583E0F8A3E0F5838898
:1007C3008222C0E074F11202EAC2E8E58B603E7E49
:1007D30000750801750900EE78081201E8AF08E515
:1007E3008B5F6022EEC333F8E433F9120813F58309
:1007F300E07002A3E060091208131207BA12025054
:10080300EFF4558BF58B0EEEC3940540C4020756E7
:10081300E82424F582E9340122D2AF22D2A4D2A360
:100823007A027B00120AC2C2A312085422C2A37A1C
:10083300027B00120AC2D2A47A027B00120AC2D23D
:10084300A37A027B00120AC222C2A312085222D246
:10085300A4120858227A027B00120AC2C2A480E1C1
:1008630074F8120252E9FF7E08EFA2E75004D2A304
:100873008002C2A3D2A4C333FF12088370EB801A91
:100883001208581EEE2274F8120252E9FEEAFF1211
:1008930008A2EFF91208B51208307F010202B21262
:1008A300081F79E01208B979001208B9EEF91208A5
:1008B300B9221208B92212086312084C227A62790B
:1008C300001208897AF779021208897A07790312E4
:1008D30008897A0079041208897A0079051208894F
:1008E3007A30790E1208897A6A790012088922C04F
:1008F30082C08343FD40C2861209178007AA82ABD8
:1009030083120932D083D08222C082C08343FD4048
:10091300D28680E48990D2A07A027B00120AC2C2F6
:10092300A07A507B00120AC2900103E0F590227472
:10093300F81202528A828B83E9FE8006E0F91209DB
:100943000CA3EE1E70F67F010202B2C082C0838A3E
:10095300828B83740269700479C0800279801208E3
:10096300F27910809843FD40C2A07A1E1209A07943
:10097300301208F27A021209A012099A12099A791E
:10098300101208F279061208F2790112099C120971
:10099300B6790C1208F22279381209AB227B0012C5
:1009A3000AF279301209AB221208F27A027B0012A2
:1009B3000AF222EEC0E079801208F27E107920124A
:1009C300090C1EEE70F779C01208F27E107920121E
:1009D300090C1EEE70F7D0E0FE22EEC0E0EBFE74D1
:1009E3000269700774402A4480800374804AF912B4
:1009F30008F2EEF912090CD0E0FE2274F71202524B
:100A0300EA7001EB60317C008A828B83E06015C061
:100A1300E08C08120A3FD0E0F08A828B83A3AA827B
:100A2300AB8380058C08120A4F0CECC3941040D89A
:100A33007A2E7B0112094E7F020202B2120A43226E
:100A4300E508242EF582E43401F58322120A437467
:100A530020F022C082C083E91203AA0107B10A72FF
:100A63000A7A0A820A8A0A920A9A0AA20AAA0A90A5
:100A73000103E0D2E08036900103E0D2E1802E90C2
:100A83000103E0D2E28026900103E0D2E3801E90CE
:100A93000103E0D2E48016900103E0D2E5800E90DA
:100AA3000103E0D2E68006900103E0D2E7F0900173
:100AB30003E0F590D083D0822279001206D722EB8F
:100AC300C313FBEA13FAEAF8EBF974FF28FA74FF8D
:100AD30039FB740068700374006960120000000041
:100AE30000000000000000000000000080D8227415
:100AF300F8120252EAFEEBFFEEF8EFF974FF28FE5C
:100B030074FF39FF740068700374006960097AE840
:100B13007B03120AC280E17F010202B2C082C0835A
:100B230090624AE0800DC082C083906249E0C45461
:100B33000F8000F9D083D08222C0E074F21202EA5F
:100B4300A2AFE492E0FEC2AFE5E9A2E6501E900137
:100B53003EE07002A3E0600E90013EE0F8A3E0F5F2
:100B6300838882120250759B0053E9BFEEA2E09284
:100B7300AF7F01020349C082C08353F1FE43F30CEC
:100B8300E5F353F2F3E5F275868075C48075C2D838
:100B930075C50B75C402438640D2AA75C100E490A3
:100BA30001C0F09001C1F0900243F0900244F09034
:100BB30001C2F0900245F0D083D0822274F8120271
:100BC300527800790080269001C0120D32E08A82AB
:100BD3008B83F09001C0E004120CA0C39480400505
:100BE300E49001C0F0E8240108E93400F99001C061
:100BF300E0FE9001C1E06E6007C3E89CE99D40C739
:100C0300E8FAE9FB7F010202B274F8120252900281
:100C130044E0C0E0900243E0FED0E0C39EE0F890E1
:100C23000244E0FEE8501BC39EF8E49400F974FF0D
:100C3300281874FF39F9E87001E9701B780079000E
:100C43008029C39EF8E49400F9747F28F8E439F905
:100C5300C3E89CE99D50E57A007B00803DE004F009
:100C6300439A04E8240108E93400F9C3E89CE99DA8
:100C730050248A828B83E0C0E0900244E0120D8FFF
:100C8300D0E0120CA0E4900245F0900244E0C3943B
:100C93007F40CAE480C9E8FAE9FB020C07F08A82C4
:100CA3008B83A3AA82AB8322C082C0839001C1E05D
:100CB300C0E09001C0E0FAD0E0C39A400C9001C1BB
:100CC300E0C39AFAE494008013E0F87480C398F8C0
:100CD300E49400F99001C1E028FAE439FB020BBA6D
:100CE300C0E0C0D0E8C0E0E9C0E0EAC0E0C082C034
:100CF30083E5C1C0E09001C1120D32D0E0F0900154
:100D0300C0E0FA9001C1E06A7006E5959001C2F077
:100D13009001C1E004F0C394804002E4F0D083D09A
:100D230082D0E0FAD0E0F9D0E0F8D0D0D0E032E0E1
:100D33002440F582E43401F58322C0E0C0D0EAC048
:100D4300E0C008C009C082C083900243E0FA900269
:100D530044E06A700A539AFB7401900245801FC2F3
:100D6300E9900243E0F50874012508F0E508120D47
:100D73008FE0F5C1900243E0C394804002E4F0D0D9
:100D830083D082D009D008D0E0FA809E24C3F582B4
:100D9300E43401F58322C082C083E91203E0000A30
:100DA30001F30D02C30D11F90D81E70D84D50D85F6
:100DB300C90D89CF0D91ED0DA5DB0DB5E10DFF0D2E
:100DC3007A687B02803A7A6D7B0280347A727B0286
:100DD300802E7A777B0280287A7C7B0280227A813C
:100DE3007B02801C7A867B0280167A8B7B028010C2
:100DF3007A907B02800A7A957B0280047A9A7B023E
:100E0300D083D0822274F712025274EC1201FBEAEF
:100E1300FEEBFF851082851183AC82AD837583025F
:100E230075829F741412015F750804F5097808121E
:100E33000399120B1F120D99EAFCEBFD74071202C2
:100E430046AA82AB83120E827402120211120B297C
:100E5300E92430C0E0740B120246D0E0F085108222
:100E6300851183AA82AB8379011209FEEEFAEFFBA7
:100E730079021209FE74141202117F020202B27483
:100E8300F71202527409120246E0FEA3E0FFEAF8E9
:100E9300EBF98E088F0974FF25081E74FF3509FFCF
:100EA300E5087002E50960358C828D83E0A3AC828E
:100EB300AD838A828B83F0A3AA82AB8370D4EEFCCA
:100EC300EFFD74FF2C1E74FF3DFFEC7001ED600D10
:100ED300E48A828B83F0A3AA82AB8380E1E8FAE9F8
:060EE300FB7F020202B2D7
:04000005000000D324
:00000001FF
