:020000040000FA
:030000000200BA41
:0300130002049E46
:03003B000204F4C8
:03004B0002045755
:1000830002046100000080FB12010EB900030200AC
:10009300A4E4900101781079028002F0A3D8FCD97E
:1000A300FA7582AC75830774001200CC758286756D
:1000B300830074001200CC75D0007581BF751001E8
:1000C300751101759F0002008BF5F0E59F5407C081
:1000D300E0E59F54F845F0F59FE473859FF053F0F6
:1000E300F8D0E045F0F59F22D083D082E59F5407F6
:1000F300C0E0E493C0E0740193C0E074029354073A
:10010300F5F0E59F54F845F0F59F2279012212009E
:10011300EBC70A001200EB680A001200EBAA0A0000
:100123001200EB050B001200EB3B0B001200EBF986
:1001330009001200EB090A001200EB3B0A0012004F
:10014300EB4C05001200EB8A05001200EBB605002C
:100153001200EB0006001200EB1406001200EB265F
:1001630006001200EBB206001200EB220700120099
:10017300EB0709001200EB540900E4CFC0E0E4CE22
:10018300C0E0E4CDC0E0E4CCC0E075F020C3E633CA
:10019300F608E633F608E633F608E633F6181818D9
:1001A300EC33FCED33FDEE33FEEF33FFC3EC970985
:1001B300ED9709EE9709EF97191919400FFFEC977F
:1001C300FC09ED97FD09EE97FE191906D5F0BEEC73
:1001D300F709EDF709EEF709EFF7191919D0E0FC64
:1001E300D0E0FDD0E0FED0E0FF221202551818182F
:1001F30012017D1202441919192212024419191904
:10020300080808E618181820E7E012017D120255C5
:1002130018181822090909E719191920E7DC080831
:1002230008E618181820E70302017D120255181872
:100233001812017D120255181818120244191919BF
:1002430022E4C397F709E497F709E497F709E497DA
:10025300F722E4C396F608E496F608E496F608E473
:1002630096F622B90010BB0008E88AF084F8AAF0D9
:1002730022E4FBC8FA22EB70227B10C833C8C933CF
:10028300C9335007C39AC3DBF280069A50012ADBB5
:10029300EAC833F4C8C933F4C9FA2275F008E4C8CC
:1002A30033C8C933C933C99AC99B5004C92AC93B46
:1002B300D5F0ECFBC833F4C8E4C9FA22600D08C6D4
:1002C300A2E713C618C613C6D5E0F3227004226052
:1002D3000D18C6C333C608C633C6D5E0F4182225A5
:1002E3001010AF08F510400215118008F5104002F8
:1002F3001511D2AF222510F582E43511F58322E4DE
:10030300732510C582C0E0E51134FFC583C0E0E565
:1003130010C3958224F8F8E4C5A88583118582105B
:10032300C5A8E8CEF0A3E520F0A37808E608F0A37B
:10033300DEFAEFF0A3E58124FAF8E608F0A3E60875
:10034300F0A3E608F0A30808E608F0A3E608F0A384
:1003530015811581D0E0FED0E0F815811581158156
:10036300E8C0E0EEC0E022851183851082E0A3FEA1
:10037300E0A3F5207808E0A3F608DFFAE0A3FFE0A6
:10038300A3C0E0E0A3C0E0E0A3C0E0E0A3C0E0E0DE
:10039300A3C0E0E4C5A8858210858311C5A8D083D6
:1003A300D0820200DEC0D02510C582C0E0E5113442
:1003B300FFC583C0E0E510C3958224F310AF088521
:1003C30083118582108008858311858210D2AFC87E
:1003D300F0A3E9F0A3EAF0A3EBF0A37908E709F0AF
:1003E300A3D8FAECF0A3EDF0A3EEF0A3EFF0A3D0C3
:1003F300E0F0A3D0E0F0A3D0E0F0A3E520F0A3E584
:10040300F0F0A322851183851082E0C0E0A3E0F918
:10041300A3E0FAA3E0FBA37808E0F608A3DFFAE081
:10042300FCA3E0FDA3E0FEA3E0FFA3E0C0E0A3E0A4
:10043300C0E0A3E0F5D0A3E0F520A3E0A3F5F0E44A
:10044300C5A8858311858210C5A8D082D083D0E04A
:10045300F8D0E032C0E0638002E580D0E032C0E053
:1004630074F21203A8A2AFE492E0FEC2AFE5E9A2E0
:10047300E6501E900101E07002A3E0600E900101BE
:10048300E0F8A3E0F5838882120302759B0053E929
:10049300BFEEA2E092AF7F01020407C0E0C0D0E844
:1004A300C0E0E9C0E0EAC0E0C082C083E5C1C0E0CB
:1004B30090018BE0240AF582E43401F583D0E0F067
:1004C30090018AE0FA90018BE06A7006E59590014D
:1004D3008CF090018BE004F0C394804002E4F0D0F0
:1004E30083D082D0E0FAD0E0F9D0E0F8D0D0D0E0E9
:1004F30032C0E0C0D0EAC0E0C008C009C082C083F7
:1005030090020DE0FA90020EE06A700A539AFB74AF
:100513000190020F8025C2E990020DE0F5087401F5
:100523002508F0E508248DF582E43401F583E0F530
:10053300C190020DE0C394804002E4F0D083D082E6
:10054300D009D008D0E0FA80A374F412030453F462
:10055300FB53FEFB53F6FB53F7BF7508007E0012F7
:1005630005E6A2925010750A01750B00EE780A1287
:1005730002CFE50A42080EEEC3940840E212068B4E
:10058300A9087F0402036A74F6120304E9FF7E00DC
:10059300750880750900EE78081202BFE5085F60F0
:1005A30004D2928002C2921205DD40E4D2927F020D
:1005B30002036A74F6120304E9FF7E0075080175ED
:1005C3000900EE78081202CFE5085F6004D292803A
:1005D30002C2921205DD40E480D21205E60EEEC39C
:1005E3009408227A147B00120135C2937A147B009B
:1005F300120135D2937A147B0012013522E975F08A
:100603000A84AAF075F00AE984C454F02AF90200B6
:10061300DE740F59C0E075F00AE9C4540FA4FAD090
:10062300E080E974F71203047E0012068B53F4F79B
:10063300D29343FE0853F4EFC29443FE10C294D204
:1006430093D292D294796112069F50041206940EAB
:10065300C294D294796312069F50051206947E01C8
:10066300C29474016E701CD29479601201477902AE
:1006730012014DC294D29479621201477908120192
:100683004DC2947F0102036A53F4FBD29243FE04EA
:10069300227960120147790112014D22120147129A
:1006A3000141E9FF7AC87B00120135EFA2E722740A
:1006B300F7120304D294900103C3E094D0A3E0940F
:1006C30007400D900103C3E09434A3E09408400A6B
:1006D30090010374D0F0A37407F0900103E0243079
:1006E300FE7964120147EE12071A900105120715ED
:1006F300900106120715790012071B9001071207D4
:1007030015900108120715900109120715C29402EA
:100713000686E012071A22F912015312014D2274C0
:10072300F6120304D29479651201471207A4F5085F
:100733001207A49001051207A3900106F0120141CC
:10074300120159120141E9543FF9120159E990018B
:10075300071207A3900108F0120141E9547FF9122F
:100763000159E9900109F0C29474D02508F874077F
:100773003400F9900103E8F0A3E9F0900103E09459
:10078300D0A3E09407400C900103E09434A3E094D9
:1007930008400A90010374D0F0A37407F00205B176
:1007A300F0120141120159E92274F41202E212011A
:1007B300117A2C7B0112011D12015F12016B900152
:1007C30003C3E094D9A3E09407502690010374DA9D
:1007D300F0A37407F07401900105F0900106F07422
:1007E3000C900107F0E4900108F0900109F0120168
:1007F3006512016B1208F01202667A0A7B0012027C
:1008030066EA2430851082851183F01208F0120203
:1008130066EA2430C0E074011202F8D0E0F075F00B
:100823000A900105E0842430C0E074021202F8D07B
:10083300E0F09001051208FDC0E074031202F8D045
:10084300E0F075F00A900106E0842430C0E07404FF
:100853001202F8D0E0F09001061208FDC0E0740522
:100863001202F8D0E0F075F00A900107E08424301A
:10087300C0E074061202F8D0E0F09001071208FD00
:10088300C0E074071202F8D0E0F075F00A90010896
:10089300E0842430C0E074081202F8D0E0F0900144
:1008A300081208FDC0E074091202F8D0E0F075F0F8
:1008B3000A900109E0842430C0E0740A1202F8D0DF
:1008C300E0F09001091208FDC0E0740B1202F8D0A9
:1008D300E0F07C0C7D00851082851183AA82AB83B6
:1008E3001201777A2C7B0112013B0207F49001037A
:1008F300E0F8A3E0F97A0A7B0022E075F00A84E5C8
:10090300F0243022C082C08353F1FE43F30CE5F39D
:1009130053F2F3E5F275868075C48075C2D875C548
:100923000B75C402438640D2AA75C100E490018AC4
:10093300F090018BF090020DF090020EF090018C7C
:10094300F090020FF0D083D0820200DE7F01020319
:100953006A74F712030490020EE0C0E090020DE007
:10096300FED0E0C39EE0F890020EE0FEE8501BC309
:100973009EF8E49400F974FF281874FF39F9E870BD
:1009830001E9701B780079008029C39EF8E4940084
:10099300F9747F28F8E439F9C3E89CE99D50E57AB6
:1009A300007B008043E004F0439A04E8240108E953
:1009B3003400F9C3E89CE99D502A8A828B83E0C006
:1009C300E090020EE0248DF582E43401F583D0E05B
:1009D3001209EEE490020FF090020EE0C3947F4000
:1009E300C4E480C3E8FAE9FB02094FF08A828B83EF
:1009F300A3AA82AB8322C082C0837900120123D0D1
:100A030083D0820200DEEBC313FBEA13FAEAF8EBAE
:100A1300F974FF28FA74FF39FB74006870037400DB
:100A230069601200000000000000000000000000E8
:100A330000000080D80200DE74F7120304EAFEEB24
:100A4300FFEEF8EFF974FF28FE74FF39FF740068B6
:100A5300700374006960097AE87B0312013580E151
:100A63007F0102036A74F012030443E40CE5E475A6
:100A73000C48750DE8750E01750F008A088B097512
:100A83000A00750B00780C7908120217850D09E529
:100A930009F5DBE50CF5DA75E54453E4EF53E4FDC2
:100AA300C2B97F0802036AC082C08375E20043E4CF
:100AB30002D2B912013B53E4FDC2B9D281D083D033
:100AC300820200DEC082C08312012F53F4FED29053
:100AD30043FE0153F4FDD29143FE0253F4BFC29689
:100AE30043FE4053F3FDD28143FD027AAA7B0A12EF
:100AF300011712015F120171120129D083D0820202
:100B030000DE748055C6FA53BEFBE59DA2E550FA9C
:100B1300E59DA2E240F400740169700774494AF547
:100B2300C68005E970028AC6E5C6FAE59EFBEA6B54
:0D0B330070F943BE040200DED2AF0200DE06
:04000005000000BA3D
:00000001FF
