:020000040000FA
:030000000200E318
:03001300020E32A8
:03003300020D9D1E
:03003B00020E882A
:03004B00020CD7CD
:03006B00020CE1A3
:03007B00020D3B38
:10008300020DF500000080FB120137B900030200E6
:10009300CDE4900101784579028002F0A3D8FCD920
:1000A300FA900245AA82AB8390013A786E79018077
:1000B30015E493A3AC82AD838A828B83F0A3AA82D7
:1000C300AB838C828D83D8E9D9E77582A4758315B8
:1000D30074001200F575828675830074001200F5B2
:1000E30075D0007581BF751001751101759F0002F0
:1000F300008BF5F0E59F5407C0E0E59F54F845F009
:10010300F59FE473859FF053F0F8D0E045F0F59F39
:1001130022D083D082E59F5407C0E0E493C0E0740B
:100123000193C0E07402935407F5F0E59F54F8453A
:10013300F0F59F227901222A2A204D3331302054B1
:1001430065737420202A2A0053454E534F52203D95
:10015300205B5F5D5B5F5D20003234323000323400
:1001630033300032343331003235323000323533FC
:1001730030003235333100323531300032353131F0
:1001830000313131300031313131002D2D2D2D0031
:100193002A2A2043437878787820282029202A2A7D
:1001A300000000001201142F18001201144518005A
:1001B300120114CC17001201140415001201144685
:1001C30015001201147D1500120114871500120188
:1001D30014CA18001201143D19001201146611000B
:1001E300120114861100120114A71100120114C682
:1001F3001100120114CE1100120114F411001201A6
:10020300143512001201145E1200120114AB120015
:10021300120114E31200120114E00E001201141073
:100223000F00120114400F00120114B70F00120146
:1002330014E30F001201140210001201142910001C
:10024300120114C41000120114031100120114FD51
:1002530016001201148E16001201149E16001201CC
:1002630014D016001201140019001201140A190007
:100273001201148218001201141D1600120114CA6F
:1002830013001201148A14001201141F1900120121
:1002930014651700E4CFC0E0E4CEC0E0E4CDC0E0D5
:1002A300E4CCC0E075F020C3E633F608E633F60885
:1002B300E633F608E633F6181818EC33FCED33FD95
:1002C300EE33FEEF33FFC3EC9709ED9709EE970981
:1002D300EF97191919400FFFEC97FC09ED97FD09EA
:1002E300EE97FE191906D5F0BEECF709EDF709EE06
:1002F300F709EFF7191919D0E0FCD0E0FDD0E0FEC3
:10030300D0E0FF2212036F18181812029712035E2F
:100313001919192212035E191919080808E6181881
:100323001820E7E012029712036F18181822090920
:1003330009E719191920E7DC080808E61818182036
:10034300E70302029712036F181818120297120399
:100353006F18181812035E19191922E4C397F709C5
:10036300E497F709E497F709E497F722E4C396F6CD
:1003730008E496F608E496F608E496F622CAC0E086
:10038300E6F0A308DAFAD0E0FA22CAC0E0E0A3C597
:1003930082CCC582C583CDC583F0A3C582CCC5827B
:1003A300C583CDC583DAE6D0E0CA22600D08C6A2B4
:1003B300E713C618C613C6D5E0F322700422600DF6
:1003C30018C6C333C608C633C6D5E0F418222510B1
:1003D30010AF08F510400215118008F51040021502
:1003E30011D2AF22C0D0251010AF08F5105002056E
:1003F300118008F51050020511D2AFD0D02225107C
:10040300F58210AF08F510400215118008F5104071
:10041300021511D2AF851183222510F582E435111F
:10042300F58322E4732510C582C0E0E51134FFC5CE
:1004330083C0E0E510C3958224F8F8E4C5A885835A
:1004430011858210C5A8E8CEF0A3E520F0A37808B3
:10045300E608F0A3DEFAEFF0A3E58124FAF8E60854
:10046300F0A3E608F0A3E608F0A30808E608F0A363
:10047300E608F0A315811581D0E0FED0E0F81581E0
:1004830015811581E8C0E0EEC0E022851183851057
:1004930082E0A3FEE0A3F5207808E0A3F608DFFAE4
:1004A300E0A3FFE0A3C0E0E0A3C0E0E0A3C0E0E07E
:1004B300A3C0E0E0A3C0E0E4C5A885821085831152
:1004C300C5A8D083D082020107C0D02510C582C041
:1004D300E0E51134FFC583C0E0E510C3958224F342
:1004E30010AF08858311858210800885831185826A
:1004F30010D2AFC8F0A3E9F0A3EAF0A3EBF0A3791D
:1005030008E709F0A3D8FAECF0A3EDF0A3EEF0A30B
:10051300EFF0A3D0E0F0A3D0E0F0A3D0E0F0A3E5A8
:1005230020F0A3E5F0F0A322851183851082E0C0BB
:10053300E0A3E0F9A3E0FAA3E0FBA37808E0F60860
:10054300A3DFFAE0FCA3E0FDA3E0FEA3E0FFA3E04A
:10055300C0E0A3E0C0E0A3E0F5D0A3E0F520A3E072
:10056300A3F5F0E4C5A8858311858210C5A8D082C0
:10057300D083D0E0F8D0E03274028000C0E0F4040D
:10058300120401D0E012038022D083D082C5F0E4AC
:1005930093A3C5F0C395F0F5F0E493A3C395F0409E
:1005A30005E5F0048001E475F002A42582F582E5F7
:1005B300F03583F583E493A3C0E0E493C0E022D055
:1005C30083D082CCC0E0E493A360061205EC1470E0
:1005D300FAE493A3600612060B1470FAD0E0FCE46D
:1005E30093A3C0E0E493C0E022C0E0E493A3D39CD0
:1005F3005010E493A3C39C400AD0E0D0E0D0E002C3
:1006030005DFA3A3A3D0E022C0E0E493A36C7009A9
:10061300D0E0D0E0D0E00205DFA3A3D0E022D08376
:10062300D082ECC0E0EDC0E0E493A3FCE493A3FD2F
:10063300ED4C600D12066DEC24FFFCED34FFFD80E4
:10064300EFE493A3FCE493A3FDED4C600D1206AC21
:10065300EC24FFFCED34FFFD80EFD0E0FDD0E0FCA7
:10066300E493A3C0E0E493C0E022C0E0C3E4939624
:10067300087401939618400FE49366700808740198
:1006830093661870007019A3A3C3E49396087401CA
:10069300939618A3A3400DD0E0D0E0D0E002065D0E
:1006A300A3A3A3A3A3A3D0E022C0E0C0F088F0E4F7
:1006B300936670080874019366187000A8F0A3A3EA
:1006C300700BD0F0D0E0D0E0D0E002065DA3A3D061
:1006D300F0D0E02200000000000000000000000055
:1006E30000000000000070F8F87000000000000D2A
:1006F3000D000000001C3C0000003C1C000000003A
:10070300000000000020F8F820F8F82000020F0F86
:10071300020F0F020070F8888E8E983000060C08C6
:1007230038380F07006060000080C06000080C06C6
:1007330003010C0C0000B0F8C878B08000070F0864
:1007430009070F0800203C1C000000000000000007
:10075300000000000000E0F018080000000003079C
:100763000C0800000000000818F0E000000000087A
:100773000C07030080A0E0C0C0E0A08000020301DA
:1007830001030200808080F0F08080800000000779
:100793000700000000000000000000000000101E21
:1007A3000E000000808080808080800000000000B8
:1007B3000000000000000000000000000000000C2A
:1007C3000C00000000000080C06030180006030128
:1007D3000000000000F0F888C868F8F000070F096F
:1007E30008080F0700002030F8F800000000080890
:1007F3000F0F08080010180888C87830000C0E0B7B
:1008030009080C0C001018888888F87000040C087C
:1008130008080F070080C06030F8F80000010101EC
:10082300090F0F0900F8F8888888880800040C0865
:1008330008080F0700E0F0988888800000070F0879
:1008430008080F070018180888C878380000000F38
:100853000F0000000070F8888888F87000070F0800
:1008630008080F070070F8888888F8F00000080867
:10087300080C0703000000303000000000000006F1
:100883000600000000000030300000000000080EE9
:10089300060000000080C06030180800000001035B
:1008A300060C0800004040404040400000020202A5
:1008B300020202000008183060C0800000080C0625
:1008C300030100000030380888C8783000000000B9
:1008D3000D0D000000F0F808C8C8F8F000070F0875
:1008E3000B0B0B0100C0E0301830E0C0000F0F010C
:1008F30001010F0F0008F8F88888F87000080F0F3F
:1009030008080F0700E0F018080818300003070C68
:1009130008080C060008F8F80818F0E000080F0FA4
:10092300080C07030008F8F888C8183800080F0FE8
:1009330008090C0E0008F8F888C8183800080F0FCB
:100943000801000000E0F018080818300003070C45
:100953000909070F00F8F8808080F8F8000F0F00EE
:1009630000000F0F000008F8F80800000000080F4F
:100973000F0800000000000008F8F80800060E0841
:10098300080F07000008F8F880E0781800080F0F38
:1009930000030F0C0008F8F80800000000080F0F10
:1009A30008080C0E00F8F8306030F8F8000F0F005C
:1009B30000000F0F00F8F870E0C0F8F8000F0F0008
:1009C30000010F0F00E0F0180818F0E00003070C17
:1009D300080C07030008F8F88888F87000080F0F60
:1009E3000800000000F0F8080808F8F00003070406
:1009F300071E1F130008F8F88888F87000080F0F07
:100A030000010F0E003078C88888383000060E08C1
:100A130008090F06180808F8F80808180000080F56
:100A23000F08000000F8F8000000F8F800070F08AE
:100A330008080F0700F8F8000000F8F800010306A3
:100A43000C06030100F8F8000000F8F8000F0F0689
:100A530003060F0F003878C080C07838000E0F01EE
:100A630000010F0E003878C080C078380000080FEE
:100A73000F0F080000381888C8683818000E0F09CF
:100A830008080C0E0000F8F80808000000000F0F1B
:100A930008080000003870E0C0800000000000007B
:100AA3000103070E00000808F8F80000000008081A
:100AB3000F0F00000010180C060C181000000000A7
:100AC30000000000000000000000000000202020C3
:100AD30020202000000000060E0800000000000097
:100AE300000000000000404040C0800000060F09E5
:100AF30009070F080008F8F840C0800000080F0736
:100B030008080F070080C0404040C08000070F085E
:100B130008080C04000080C048F8F80000070F081C
:100B230008070F080080C0404040C08000070F093D
:100B330009090D050080F0F88898300000080F0FB0
:100B4300080000000080C0404080C04000133724EC
:100B5300243F1F000008F8F88040C08000080F0FF2
:100B630000000F0F00000040D8D80000000000086C
:100B73000F0F08000000000040D8D80000183820EC
:100B8300203F1F000008F8F80080C04000080F0F46
:100B930001030E0C00000008F8F800000000000834
:100BA3000F0F08000080C0808080C080000F0F00FE
:100BB3000F000F0F0040C0804040C08000000F0FA7
:100BC30000000F0F0080C0404040C08000070F08A6
:100BD30008080F070040C0804040C08000203F3F0E
:100BE300240407030080C0404080C0400003070482
:100BF300243F3F200040C080C040C08000080F0F4A
:100C0300080001010080C0404040C08000040D097D
:100C13000B0A0E04004040F0F840400000000007BB
:100C23000F080C0400C0C00000C0C00000070F087C
:100C330008070F0800C0C0000000C0C00001030681
:100C43000C06030100C0C0000000C0C000070F0C69
:100C5300060C0F070040C0800080C04000080C074E
:100C630003070C0800C0C0000000C0C00003272415
:100C730024341F0F00C0C04040C0C04000080C0E09
:100C83000B090C0C008080F07808080000000007B6
:100C93000F08080000000078780000000000000F33
:100CA3000F00000000080878F08080000008080F9B
:100CB30007000000001018081810180800000000B2
:100CC300000000000000000E0A0E000000000000FB
:100CD30000000000C0E0638002E580D0E032C0E0A5
:100CE30074F11204CCC2C5E58960487E0075080121
:100CF300750900EE78081203BEAF08E5895F602C22
:100D0300EEC333F8E433F9E82402F582E93401F55C
:100D130083E07002A3E0600EE82402F582E9340167
:100D2300120D92120426EFF45589F5890EEEC39441
:100D33000840BA7F0202052BC0E074F11204CCC252
:100D4300EBE58A60487E00750801750900EE7808B6
:100D53001203BEAF08E58A5F602CEEC333F8E433B9
:100D6300F9E82412F582E93401F583E07002A3E087
:100D7300600EE82412F582E93401120D9212042662
:100D8300EFF4558AF58A0EEEC3940840BA80A4F5B1
:100D930083E0F8A3E0F583888222C0E074F11204B3
:100DA300CCC2E8E58B60487E00750801750900EE4A
:100DB30078081203BEAF08E58B5F602CEEC333F8EF
:100DC300E433F9E82422F582E93401F583E0700283
:100DD300A3E0600EE82422F582E93401120D921299
:100DE3000426EFF4558BF58B0EEEC3940540BA023F
:100DF3000D36C0E074F21204CCA2AFE492E0FEC25E
:100E0300AFE5E9A2E6501E90013DE07002A3E06069
:100E13000E90013DE0F8A3E0F58388821204267565
:100E23009B0053E9BFEEA2E092AF7F0102052BC006
:100E3300E0C0D0E8C0E0E9C0E0EAC0E0C082C0831F
:100E4300E5C1C0E09001C0E0243FF582E43401F540
:100E530083D0E0F09001BFE0FA9001C0E06A700631
:100E6300E5959001C1F09001C0E004F0C394804087
:100E730002E4F0D083D082D0E0FAD0E0F9D0E0F8F9
:100E8300D0D0D0E032C0E0C0D0EAC0E0C008C00992
:100E9300C082C083900242E0FA900243E06A700A83
:100EA300539AFB74019002448025C2E9900242E008
:100EB300F50874012508F0E50824C2F582E434013D
:100EC300F583E0F5C1900242E0C394804002E4F070
:100ED300D083D082D009D008D0E0FA80A374F61270
:100EE3000428C290C2A07A00750880750900EA78C8
:100EF300081203AEE508596004D2928002C292C27E
:100F030091D2910AEAC3940840DE02100774F612E4
:100F13000428D290C2A07A00750880750900EA7887
:100F2300081203AEE508596004D2928002C292C24D
:100F330091D2910AEAC3940840DE021007C082C02E
:100F43008379E21202197A057B0012026179E212B7
:100F530002197A057B00120FAA120FAA12026179F5
:100F6300F8120219790112021979A31202197926CA
:100F73001202197981120219792012021979C01209
:100F8300021979A112021979A612021979AF120274
:100F9300197A147B0012026179401202191202318C
:100FA300D083D082020107120261792F1202197ACB
:100FB300027B002274F7120428E9C33324AEF50838
:100FC3007F02A908120219050812101E7E807900FB
:100FD30012021F1EEE70F71FEF70E77F0102048EEF
:100FE30074F71204287FB0EF1210167E8079001276
:100FF300021F1EEE70F70FEFC394B840EA80DC794E
:1010030010020107D2A0D292900101E0F5907F0275
:1010130002048EF912021912101E227910120219FB
:1010230079041202192274F3120428E9C33324AE9B
:10103300F50AEA33333354F82404FAC4540F441042
:10104300F50B740F5AF50CEBC394204006EBC394D5
:101053008040027B208B0874E02508F50874FF3478
:1010630000F509740478081203BEAE08AF09121024
:10107300A8A90A120219750800801174086508707E
:101083000B7401250AF91202191210A8EE24D7F5E0
:1010930082EF34061210B30508E508C3941040DB51
:1010A3007F0502048EA90B120219A90C1202192240
:1010B300F583E493F912021FEE24010EEF3400FFCF
:1010C3002274F2120428E9FF8A088C0C8D0DAA0CF5
:1010D300AB0D12028BEAF5097E0080128E0AE50C35
:1010E300250AF582E50D3400F583E01210FCEEC30A
:1010F300950940E87F0602048EFBEE1211600E2272
:1011030074F6120428EA7001EB60337C008A828B48
:1011130083E06015C0E08C08121144D0E0F08A82AD
:101123008B83A3AA82AB8380058C081211540CEC29
:10113300C3941040D87C2D7D017A00120243021023
:101143001112114822E508242DF582E43401F583B8
:10115300221211487420F022F912023D222508FAC6
:10116300EF80F5C082C083D2A4D2A37A027B00129F
:10117300025BC2A31211B180031211AFD083D082DC
:10118300020107C082C083C2A37A027B0012025B02
:10119300D2A47A027B0012025BD2A37A027B0012F2
:1011A300025B80D8C082C083C2A380CDD2A41211B7
:1011B300B5227A027B0012025BC2A47A027B001280
:1011C300025B22C082C083D2A380AE74F7120428CC
:1011D300E9FF7E08EFA2E75004D2A38002C2A3D2A4
:1011E300A4C333FF12122F70EB8001F97F010204B5
:1011F3008E74F71204287F00D2A353F5F753FFF739
:1012030053F7F753F77F7A027B0012025B7E08D213
:10121300A4EFC333FFA2A35003D2E0FF12122F7037
:10122300EE53F5F7D2A343FF08EF80BF1211B51EAB
:10123300EE2274F7120428E9FEEAFF12124BEFF9CB
:1012430012128F1201E380A41201DD79E0121293CE
:101253007900121293EEF91212932274F7120428F2
:101263001201DD79E012128F790012128F790812C0
:10127300128F12129A1201E9EEFF1201FBE9FE121C
:1012830001EF1201E3EEFAEFFB0211EF12129322C8
:101293001201F51201E9221201E31201DD79E112D3
:1012A30012931201FBE9FE22C082C0837A627900A5
:1012B3001202017AF779021202017A077903120204
:1012C300017A0079041202017A0079051202017A87
:1012D30030790E1202017A6A790012020102117F3B
:1012E30074F61204281202078A088B09780812067A
:1012F300210000140082004E13840052138800560C
:101303001390007A13A000861302015A1304015E9E
:10131300130801621310017E1320018A130202666F
:101323001304026A1308026E131002821320028E42
:10133300130204721304044A13080476131004926C
:1013430013200496139A137E30804E7E31804A7E9A
:101353003280467E3380427E34803E7E35803A7EC4
:101363003680367E3780327E38802E7E39802A7EE4
:101373002A80267E2380227E41801E7E42801A7E22
:101383004380167E4480127E45800E7E46800A7E10
:101393005580067E4E80027E0090012CE004F0C34F
:1013A30094C94008E4F07A6AF9120201EE60117AF6
:1013B300AA7B0A1201BF7A147B001202611201C5D3
:1013C300EEF97F0202048E74F61204288A088B0950
:1013D300EA7001EB700579000214FF7F007E018043
:1013E30036EE6033790212022B121471E0FCA3E093
:1013F300FD7A0379021202437B3C7A0079021202DE
:101403003D120237E914FA7B3E790212023D7E0057
:101413007A647B001202617A647B00120261120219
:1014230013E9FA74236A70107AC87B0012026112FE
:101433001471A3A3E0F980A0744E6A701774012F8E
:10144300C0E0850882850983A3A3E0F5F0D0E0849A
:10145300AFF0809074556A7088EF700E85088285AE
:101463000983A3A3E014FF0213E71F0213E7EF7539
:10147300F003A4F8A9F0850882850983E028FAA37C
:10148300E0398A82F5832274F612042874EC12037D
:10149300D1EAFEEBFF851082851183AC82AD8375A3
:1014A300830275829E741412038D750804F50978FE
:1014B3000812057B120267120279EAFCEBFD74073E
:1014C30012041CAA82AB8312029174021203E71264
:1014D300026DE92430C0E0740B12041CD0E0F085E7
:1014E3001082851183AA82AB837901120249EEFA35
:1014F300EFFB790212024974141203E77F0202041C
:101503008E74F012042843E40CE5E4750C48750D61
:10151300E8750E01750F008A088B09750A00750BB3
:1015230000780C7908120331850D09E509F5DBE52F
:101533000CF5DA75E54453E4EF53E4FDC2B97F08D3
:1015430002048E74F012042875E200750C48750DC0
:10155300E8750E01750F008A088B09750A00750B73
:1015630000780C7908120331850D09E509F5DBE5EF
:101573000CF5DA43E402D2B980C453E4FDC2B9D214
:1015830081020107C082C08375E20043E402D2B93D
:1015930012026153E4FDC2B9D281D083D082020129
:1015A300071201B3790812024F7A457B02120285B2
:1015B3007A2C7B011202617A2C7B011201CB12027D
:1015C30013E960FA7A007B0012027F1202311201E2
:1015D300A77A457B0279011202497A567B02790286
:1015E3001202491201ADE9FEA2E0E492E02430FBCD
:1015F3007A0A790212023DEEA2E1E492E02430FB82
:101603007A0D790212023D120213E9FE7A647B001D
:10161300120261742A6E70CB80B1C082C083E9125A
:1016230005C2000A017716024716117D16816B1653
:10163300845916854D16895316917116A55F16B5F3
:10164300651683167A677B02803A7A6C7B02803454
:101653007A717B02802E7A767B0280287A7B7B02EA
:1016630080227A807B02801C7A857B0280167A8AAC
:101673007B0280107A8F7B02800A7A947B0280043B
:101683007A997B02D083D082020107C082C083791A
:10169300001201D1D083D082020107EBC313FBEA0E
:1016A30013FAEAF8EBF974FF28FA74FF39FB7400B4
:1016B30068700374006960120000000000000000FD
:1016C300000000000000000080D802010774F71238
:1016D3000428EAFEEBFFEEF8EFF974FF28FE74FF2F
:1016E30039FF740068700374006960097AE87B034A
:1016F30012025B80E17F0102048EC082C083E91283
:10170300058C01075817191721172917311739178E
:10171300411749175117900101E0D2E0803690013B
:1017230001E0D2E1802E900101E0D2E28026900117
:1017330001E0D2E3801E900101E0D2E48016900123
:1017430001E0D2E5800E900101E0D2E6800690012F
:1017530001E0D2E7F0900101E0F590D083D082025E
:10176300010774F6120428740A12041CE0FEA3E0B5
:10177300FFEAF8EBF98E088F0974FF25081E74FF42
:101783003509FFE5087002E50960358C828D83E039
:10179300A3AC82AD838A828B83F0A3AA82AB8370CE
:1017A300D4EEFCEFFD74FF2C1E74FF3DFFEC7001C3
:1017B300ED600DE48A828B83F0A3AA82AB8380E180
:1017C300E8FAE9FB7F0202048EC082C0831202554D
:1017D30053F5EFD2A443FF1053F5F7D2A343FF0809
:1017E30053F5F753FFF743F70853F5FEC2A043FF42
:1017F3000153F3BFC28643FD4075F4007590FF7536
:10180300FEFF53F3FDD28143FD027AAA7B0A120144
:10181300B9E4900101F075900012022512020D1235
:1018230002731201D7D083D08202010712186953C1
:10183300F3DFD28543FD2053F37FD28743FD80023C
:101843000107C082C0831218697A027B0012026109
:101853007903A284400119A2864004E9C2E1F9D0C8
:1018630083D08202010753F3EF53FDEF538FEF53FE
:10187300F7DF53F3BF53FDBF538FBF53F7DF22C0CF
:1018830082C08353F1FE43F30CE5F353F2F3E5F225
:1018930075868075C48075C2D875C50B75C402433F
:1018A3008640D2AA75C100E49001BFF09001C0F058
:1018B300900242F0900243F09001C1F0900244F094
:1018C300D083D082020107748055C6FA53BEFBE56C
:1018D3009DA2E550FAE59DA2E240F400740169700F
:1018E3000774494AF5C68005E970028AC6E5C6FA57
:1018F300E59EFBEA6B70F943BE04020107C082C098
:101903008390624AE0800DC082C083906249E0C444
:10191300540F8000F9D083D082020107C082C083B4
:101923008A828B838001A3E070FCE582C39AFAE587
:0F193300839BFBD083D082020107D2AF02010752
:04000005000000E314
:00000001FF
